{
  "contractName": "ERC721r",
  "abi": [
    {
      "inputs": [
        {
          "internalType": "string",
          "name": "name_",
          "type": "string"
        },
        {
          "internalType": "string",
          "name": "symbol_",
          "type": "string"
        },
        {
          "internalType": "uint256",
          "name": "maxSupply_",
          "type": "uint256"
        }
      ],
      "stateMutability": "nonpayable",
      "type": "constructor"
    },
    {
      "anonymous": false,
      "inputs": [
        {
          "indexed": true,
          "internalType": "address",
          "name": "owner",
          "type": "address"
        },
        {
          "indexed": true,
          "internalType": "address",
          "name": "approved",
          "type": "address"
        },
        {
          "indexed": true,
          "internalType": "uint256",
          "name": "tokenId",
          "type": "uint256"
        }
      ],
      "name": "Approval",
      "type": "event"
    },
    {
      "anonymous": false,
      "inputs": [
        {
          "indexed": true,
          "internalType": "address",
          "name": "owner",
          "type": "address"
        },
        {
          "indexed": true,
          "internalType": "address",
          "name": "operator",
          "type": "address"
        },
        {
          "indexed": false,
          "internalType": "bool",
          "name": "approved",
          "type": "bool"
        }
      ],
      "name": "ApprovalForAll",
      "type": "event"
    },
    {
      "anonymous": false,
      "inputs": [
        {
          "indexed": true,
          "internalType": "address",
          "name": "from",
          "type": "address"
        },
        {
          "indexed": true,
          "internalType": "address",
          "name": "to",
          "type": "address"
        },
        {
          "indexed": true,
          "internalType": "uint256",
          "name": "tokenId",
          "type": "uint256"
        }
      ],
      "name": "Transfer",
      "type": "event"
    },
    {
      "inputs": [
        {
          "internalType": "bytes4",
          "name": "interfaceId",
          "type": "bytes4"
        }
      ],
      "name": "supportsInterface",
      "outputs": [
        {
          "internalType": "bool",
          "name": "",
          "type": "bool"
        }
      ],
      "stateMutability": "view",
      "type": "function",
      "constant": true
    },
    {
      "inputs": [],
      "name": "totalSupply",
      "outputs": [
        {
          "internalType": "uint256",
          "name": "",
          "type": "uint256"
        }
      ],
      "stateMutability": "view",
      "type": "function",
      "constant": true
    },
    {
      "inputs": [],
      "name": "maxSupply",
      "outputs": [
        {
          "internalType": "uint256",
          "name": "",
          "type": "uint256"
        }
      ],
      "stateMutability": "view",
      "type": "function",
      "constant": true
    },
    {
      "inputs": [
        {
          "internalType": "address",
          "name": "owner",
          "type": "address"
        }
      ],
      "name": "balanceOf",
      "outputs": [
        {
          "internalType": "uint256",
          "name": "",
          "type": "uint256"
        }
      ],
      "stateMutability": "view",
      "type": "function",
      "constant": true
    },
    {
      "inputs": [
        {
          "internalType": "uint256",
          "name": "tokenId",
          "type": "uint256"
        }
      ],
      "name": "ownerOf",
      "outputs": [
        {
          "internalType": "address",
          "name": "",
          "type": "address"
        }
      ],
      "stateMutability": "view",
      "type": "function",
      "constant": true
    },
    {
      "inputs": [],
      "name": "name",
      "outputs": [
        {
          "internalType": "string",
          "name": "",
          "type": "string"
        }
      ],
      "stateMutability": "view",
      "type": "function",
      "constant": true
    },
    {
      "inputs": [],
      "name": "symbol",
      "outputs": [
        {
          "internalType": "string",
          "name": "",
          "type": "string"
        }
      ],
      "stateMutability": "view",
      "type": "function",
      "constant": true
    },
    {
      "inputs": [
        {
          "internalType": "uint256",
          "name": "tokenId",
          "type": "uint256"
        }
      ],
      "name": "tokenURI",
      "outputs": [
        {
          "internalType": "string",
          "name": "",
          "type": "string"
        }
      ],
      "stateMutability": "view",
      "type": "function",
      "constant": true
    },
    {
      "inputs": [
        {
          "internalType": "address",
          "name": "to",
          "type": "address"
        },
        {
          "internalType": "uint256",
          "name": "tokenId",
          "type": "uint256"
        }
      ],
      "name": "approve",
      "outputs": [],
      "stateMutability": "nonpayable",
      "type": "function"
    },
    {
      "inputs": [
        {
          "internalType": "uint256",
          "name": "tokenId",
          "type": "uint256"
        }
      ],
      "name": "getApproved",
      "outputs": [
        {
          "internalType": "address",
          "name": "",
          "type": "address"
        }
      ],
      "stateMutability": "view",
      "type": "function",
      "constant": true
    },
    {
      "inputs": [
        {
          "internalType": "address",
          "name": "operator",
          "type": "address"
        },
        {
          "internalType": "bool",
          "name": "approved",
          "type": "bool"
        }
      ],
      "name": "setApprovalForAll",
      "outputs": [],
      "stateMutability": "nonpayable",
      "type": "function"
    },
    {
      "inputs": [
        {
          "internalType": "address",
          "name": "owner",
          "type": "address"
        },
        {
          "internalType": "address",
          "name": "operator",
          "type": "address"
        }
      ],
      "name": "isApprovedForAll",
      "outputs": [
        {
          "internalType": "bool",
          "name": "",
          "type": "bool"
        }
      ],
      "stateMutability": "view",
      "type": "function",
      "constant": true
    },
    {
      "inputs": [
        {
          "internalType": "address",
          "name": "from",
          "type": "address"
        },
        {
          "internalType": "address",
          "name": "to",
          "type": "address"
        },
        {
          "internalType": "uint256",
          "name": "tokenId",
          "type": "uint256"
        }
      ],
      "name": "transferFrom",
      "outputs": [],
      "stateMutability": "nonpayable",
      "type": "function"
    },
    {
      "inputs": [
        {
          "internalType": "address",
          "name": "from",
          "type": "address"
        },
        {
          "internalType": "address",
          "name": "to",
          "type": "address"
        },
        {
          "internalType": "uint256",
          "name": "tokenId",
          "type": "uint256"
        }
      ],
      "name": "safeTransferFrom",
      "outputs": [],
      "stateMutability": "nonpayable",
      "type": "function"
    },
    {
      "inputs": [
        {
          "internalType": "address",
          "name": "from",
          "type": "address"
        },
        {
          "internalType": "address",
          "name": "to",
          "type": "address"
        },
        {
          "internalType": "uint256",
          "name": "tokenId",
          "type": "uint256"
        },
        {
          "internalType": "bytes",
          "name": "_data",
          "type": "bytes"
        }
      ],
      "name": "safeTransferFrom",
      "outputs": [],
      "stateMutability": "nonpayable",
      "type": "function"
    }
  ],
  "bytecode": "0x60a06040523480156200001157600080fd5b50604051620015ea380380620015ea8339810160408190526200003491620001c2565b82516200004990600090602086019062000071565b5081516200005f90600190602085019062000071565b50608081905260035550620002859050565b8280546200007f9062000232565b90600052602060002090601f016020900481019282620000a35760008555620000ee565b82601f10620000be57805160ff1916838001178555620000ee565b82800160010185558215620000ee579182015b82811115620000ee578251825591602001919060010190620000d1565b50620000fc92915062000100565b5090565b5b80821115620000fc576000815560010162000101565b600082601f83011262000128578081fd5b81516001600160401b03808211156200014557620001456200026f565b6040516020601f8401601f19168201810183811183821017156200016d576200016d6200026f565b604052838252858401810187101562000184578485fd5b8492505b83831015620001a7578583018101518284018201529182019162000188565b83831115620001b857848185840101525b5095945050505050565b600080600060608486031215620001d7578283fd5b83516001600160401b0380821115620001ee578485fd5b620001fc8783880162000117565b9450602086015191508082111562000212578384fd5b50620002218682870162000117565b925050604084015190509250925092565b6002810460018216806200024757607f821691505b602082108114156200026957634e487b7160e01b600052602260045260246000fd5b50919050565b634e487b7160e01b600052604160045260246000fd5b608051611342620002a8600039600081816103bf01526105a201526113426000f3fe608060405234801561001057600080fd5b50600436106100c55760003560e01c806301ffc9a7146100ca57806306fdde03146100f3578063081812fc14610108578063095ea7b31461012857806318160ddd1461013d57806323b872dd1461015257806342842e0e146101655780636352211e1461017857806370a082311461018b57806395d89b411461019e578063a22cb465146101a6578063b88d4fde146101b9578063c87b56dd146101cc578063d5abeb01146101df578063e985e9c5146101e7575b600080fd5b6100dd6100d8366004610d43565b6101fa565b6040516100ea9190610e3f565b60405180910390f35b6100fb610242565b6040516100ea9190610e4a565b61011b610116366004610d7b565b6102d4565b6040516100ea9190610dee565b61013b610136366004610d1a565b610320565b005b6101456103b8565b6040516100ea91906111cf565b61013b610160366004610bd9565b6103ed565b61013b610173366004610bd9565b610425565b61011b610186366004610d7b565b610440565b610145610199366004610b8d565b610475565b6100fb6104b9565b61013b6101b4366004610ce0565b6104c8565b61013b6101c7366004610c14565b6104de565b6100fb6101da366004610d7b565b61051d565b6101456105a0565b6100dd6101f5366004610ba7565b6105c4565b60006001600160e01b031982166380ac58cd60e01b148061022b57506001600160e01b03198216635b5e139f60e01b145b8061023a575061023a826105f2565b90505b919050565b60606000805461025190611247565b80601f016020809104026020016040519081016040528092919081815260200182805461027d90611247565b80156102ca5780601f1061029f576101008083540402835291602001916102ca565b820191906000526020600020905b8154815290600101906020018083116102ad57829003601f168201915b5050505050905090565b60006102df8261060b565b6103045760405162461bcd60e51b81526004016102fb906110a2565b60405180910390fd5b506000908152600660205260409020546001600160a01b031690565b600061032b82610440565b9050806001600160a01b0316836001600160a01b0316141561035f5760405162461bcd60e51b81526004016102fb9061113d565b806001600160a01b0316610371610628565b6001600160a01b0316148061038d575061038d816101f5610628565b6103a95760405162461bcd60e51b81526004016102fb90610fb7565b6103b3838361062c565b505050565b60006003547f00000000000000000000000000000000000000000000000000000000000000006103e89190611204565b905090565b6103fe6103f8610628565b8261069a565b61041a5760405162461bcd60e51b81526004016102fb9061117e565b6103b383838361071f565b6103b3838383604051806020016040528060008152506104de565b6000818152600460205260408120546001600160a01b03168061023a5760405162461bcd60e51b81526004016102fb90611059565b60006001600160a01b03821661049d5760405162461bcd60e51b81526004016102fb9061100f565b506001600160a01b031660009081526005602052604090205490565b60606001805461025190611247565b6104da6104d3610628565b8383610852565b5050565b6104ef6104e9610628565b8361069a565b61050b5760405162461bcd60e51b81526004016102fb9061117e565b610517848484846108f5565b50505050565b60606105288261060b565b6105445760405162461bcd60e51b81526004016102fb906110ee565b600061054e610928565b9050600081511161056e5760405180602001604052806000815250610599565b806105788461093a565b604051602001610589929190610dbf565b6040516020818303038152906040525b9392505050565b7f000000000000000000000000000000000000000000000000000000000000000090565b6001600160a01b03918216600090815260076020908152604080832093909416825291909152205460ff1690565b6001600160e01b031981166301ffc9a760e01b14919050565b6000908152600460205260409020546001600160a01b0316151590565b3390565b600081815260066020526040902080546001600160a01b0319166001600160a01b038416908117909155819061066182610440565b6001600160a01b03167f8c5be1e5ebec7d5bd14f71427d1e84f3dd0314c0f7b2291e5b200ac8c7c3b92560405160405180910390a45050565b60006106a58261060b565b6106c15760405162461bcd60e51b81526004016102fb90610f6b565b60006106cc83610440565b9050806001600160a01b0316846001600160a01b031614806107075750836001600160a01b03166106fc846102d4565b6001600160a01b0316145b80610717575061071781856105c4565b949350505050565b826001600160a01b031661073282610440565b6001600160a01b0316146107585760405162461bcd60e51b81526004016102fb90610eaf565b6001600160a01b03821661077e5760405162461bcd60e51b81526004016102fb90610ef4565b6107898383836103b3565b61079460008261062c565b6001600160a01b03831660009081526005602052604081208054600192906107bd908490611204565b90915550506001600160a01b03821660009081526005602052604081208054600192906107eb9084906111d8565b909155505060008181526004602052604080822080546001600160a01b0319166001600160a01b0386811691821790925591518493918716917fddf252ad1be2c89b69c2b068fc378daa952ba7f163c4a11628f55a4df523b3ef91a46103b38383836103b3565b816001600160a01b0316836001600160a01b031614156108845760405162461bcd60e51b81526004016102fb90610f38565b6001600160a01b0383811660008181526007602090815260408083209487168084529490915290819020805460ff1916851515179055517f17307eab39ab6107e8899845ad3d59bd9653f200f220920489ca2b5937696c31906108e8908590610e3f565b60405180910390a3505050565b61090084848461071f565b61090c84848484610a55565b6105175760405162461bcd60e51b81526004016102fb90610e5d565b60408051602081019091526000815290565b60608161095f57506040805180820190915260018152600360fc1b602082015261023d565b8160005b8115610989578061097381611282565b91506109829050600a836111f0565b9150610963565b60008167ffffffffffffffff8111156109b257634e487b7160e01b600052604160045260246000fd5b6040519080825280601f01601f1916602001820160405280156109dc576020820181803683370190505b5090505b8415610717576109f1600183611204565b91506109fe600a8661129d565b610a099060306111d8565b60f81b818381518110610a2c57634e487b7160e01b600052603260045260246000fd5b60200101906001600160f81b031916908160001a905350610a4e600a866111f0565b94506109e0565b6000610a69846001600160a01b0316610b70565b15610b6557836001600160a01b031663150b7a02610a85610628565b8786866040518563ffffffff1660e01b8152600401610aa79493929190610e02565b602060405180830381600087803b158015610ac157600080fd5b505af1925050508015610af1575060408051601f3d908101601f19168201909252610aee91810190610d5f565b60015b610b4b573d808015610b1f576040519150601f19603f3d011682016040523d82523d6000602084013e610b24565b606091505b508051610b435760405162461bcd60e51b81526004016102fb90610e5d565b805181602001fd5b6001600160e01b031916630a85bd0160e11b149050610717565b506001949350505050565b3b151590565b80356001600160a01b038116811461023d57600080fd5b600060208284031215610b9e578081fd5b61059982610b76565b60008060408385031215610bb9578081fd5b610bc283610b76565b9150610bd060208401610b76565b90509250929050565b600080600060608486031215610bed578081fd5b610bf684610b76565b9250610c0460208501610b76565b9150604084013590509250925092565b60008060008060808587031215610c29578081fd5b610c3285610b76565b93506020610c41818701610b76565b935060408601359250606086013567ffffffffffffffff80821115610c64578384fd5b818801915088601f830112610c77578384fd5b813581811115610c8957610c896112dd565b604051601f8201601f1916810185018381118282101715610cac57610cac6112dd565b60405281815283820185018b1015610cc2578586fd5b81858501868301379081019093019390935250939692955090935050565b60008060408385031215610cf2578182fd5b610cfb83610b76565b915060208301358015158114610d0f578182fd5b809150509250929050565b60008060408385031215610d2c578182fd5b610d3583610b76565b946020939093013593505050565b600060208284031215610d54578081fd5b8135610599816112f3565b600060208284031215610d70578081fd5b8151610599816112f3565b600060208284031215610d8c578081fd5b5035919050565b60008151808452610dab81602086016020860161121b565b601f01601f19169290920160200192915050565b60008351610dd181846020880161121b565b835190830190610de581836020880161121b565b01949350505050565b6001600160a01b0391909116815260200190565b6001600160a01b0385811682528416602082015260408101839052608060608201819052600090610e3590830184610d93565b9695505050505050565b901515815260200190565b6000602082526105996020830184610d93565b60208082526032908201527f4552433732313a207472616e7366657220746f206e6f6e20455243373231526560408201527131b2b4bb32b91034b6b83632b6b2b73a32b960711b606082015260800190565b60208082526025908201527f4552433732313a207472616e736665722066726f6d20696e636f72726563742060408201526437bbb732b960d91b606082015260800190565b60208082526024908201527f4552433732313a207472616e7366657220746f20746865207a65726f206164646040820152637265737360e01b606082015260800190565b60208082526019908201527822a9219b99189d1030b8383937bb32903a379031b0b63632b960391b604082015260600190565b6020808252602c908201527f4552433732313a206f70657261746f7220717565727920666f72206e6f6e657860408201526b34b9ba32b73a103a37b5b2b760a11b606082015260800190565b60208082526038908201527f4552433732313a20617070726f76652063616c6c6572206973206e6f74206f776040820152771b995c881b9bdc88185c1c1c9bdd995908199bdc88185b1b60421b606082015260800190565b6020808252602a908201527f4552433732313a2062616c616e636520717565727920666f7220746865207a65604082015269726f206164647265737360b01b606082015260800190565b60208082526029908201527f4552433732313a206f776e657220717565727920666f72206e6f6e657869737460408201526832b73a103a37b5b2b760b91b606082015260800190565b6020808252602c908201527f4552433732313a20617070726f76656420717565727920666f72206e6f6e657860408201526b34b9ba32b73a103a37b5b2b760a11b606082015260800190565b6020808252602f908201527f4552433732314d657461646174613a2055524920717565727920666f72206e6f60408201526e3732bc34b9ba32b73a103a37b5b2b760891b606082015260800190565b60208082526021908201527f4552433732313a20617070726f76616c20746f2063757272656e74206f776e656040820152603960f91b606082015260800190565b60208082526031908201527f4552433732313a207472616e736665722063616c6c6572206973206e6f74206f6040820152701ddb995c881b9bdc88185c1c1c9bdd9959607a1b606082015260800190565b90815260200190565b600082198211156111eb576111eb6112b1565b500190565b6000826111ff576111ff6112c7565b500490565b600082821015611216576112166112b1565b500390565b60005b8381101561123657818101518382015260200161121e565b838111156105175750506000910152565b60028104600182168061125b57607f821691505b6020821081141561127c57634e487b7160e01b600052602260045260246000fd5b50919050565b6000600019821415611296576112966112b1565b5060010190565b6000826112ac576112ac6112c7565b500690565b634e487b7160e01b600052601160045260246000fd5b634e487b7160e01b600052601260045260246000fd5b634e487b7160e01b600052604160045260246000fd5b6001600160e01b03198116811461130957600080fd5b5056fea2646970667358221220772490d6c8908ed72480c358026fb8534eaaca0d9ddca6ba0da2eef39f655a2c64736f6c63430008000033",
  "immutableReferences": {
    "754": [
      {
        "length": 32,
        "start": 959
      },
      {
        "length": 32,
        "start": 1442
      }
    ]
  },
  "source": "// SPDX-License-Identifier: MIT\n\npragma solidity ^0.8.0;\n\nimport \"@openzeppelin/contracts/token/ERC721/IERC721.sol\";\nimport \"@openzeppelin/contracts/token/ERC721/IERC721Receiver.sol\";\nimport \"@openzeppelin/contracts/token/ERC721/extensions/IERC721Metadata.sol\";\nimport \"@openzeppelin/contracts/utils/Address.sol\";\nimport \"@openzeppelin/contracts/utils/Context.sol\";\nimport \"@openzeppelin/contracts/utils/Strings.sol\";\nimport \"@openzeppelin/contracts/utils/introspection/ERC165.sol\";\n\n/**\n * @dev Implementation of https://eips.ethereum.org/EIPS/eip-721[ERC721] Non-Fungible Token Standard, including\n * the Metadata extension, but not including the Enumerable extension. This does random batch minting.\n */\ncontract ERC721r is Context, ERC165, IERC721, IERC721Metadata {\n    using Address for address;\n    using Strings for uint256;\n\n    // Token name\n    string private _name;\n\n    // Token symbol\n    string private _symbol;\n\n    mapping(uint256 => uint256) private _availableTokens;\n    uint256 private _numAvailableTokens;\n    uint256 immutable _maxSupply;\n    // Mapping from token ID to owner address\n    mapping(uint256 => address) private _owners;\n\n    // Mapping owner address to token count\n    mapping(address => uint256) private _balances;\n\n    // Mapping from token ID to approved address\n    mapping(uint256 => address) private _tokenApprovals;\n\n    // Mapping from owner to operator approvals\n    mapping(address => mapping(address => bool)) private _operatorApprovals;\n\n    /**\n     * @dev Initializes the contract by setting a `name` and a `symbol` to the token collection.\n     */\n    constructor(\n        string memory name_,\n        string memory symbol_,\n        uint256 maxSupply_\n    ) {\n        _name = name_;\n        _symbol = symbol_;\n        _maxSupply = maxSupply_;\n        _numAvailableTokens = maxSupply_;\n    }\n\n    /**\n     * @dev See {IERC165-supportsInterface}.\n     */\n    function supportsInterface(bytes4 interfaceId)\n        public\n        view\n        virtual\n        override(ERC165, IERC165)\n        returns (bool)\n    {\n        return\n            interfaceId == type(IERC721).interfaceId ||\n            interfaceId == type(IERC721Metadata).interfaceId ||\n            super.supportsInterface(interfaceId);\n    }\n\n    function totalSupply() public view virtual returns (uint256) {\n        return _maxSupply - _numAvailableTokens;\n    }\n\n    function maxSupply() public view virtual returns (uint256) {\n        return _maxSupply;\n    }\n\n    /**\n     * @dev See {IERC721-balanceOf}.\n     */\n    function balanceOf(address owner)\n        public\n        view\n        virtual\n        override\n        returns (uint256)\n    {\n        require(\n            owner != address(0),\n            \"ERC721: balance query for the zero address\"\n        );\n        return _balances[owner];\n    }\n\n    /**\n     * @dev See {IERC721-ownerOf}.\n     */\n    function ownerOf(uint256 tokenId)\n        public\n        view\n        virtual\n        override\n        returns (address)\n    {\n        address owner = _owners[tokenId];\n        require(\n            owner != address(0),\n            \"ERC721: owner query for nonexistent token\"\n        );\n        return owner;\n    }\n\n    /**\n     * @dev See {IERC721Metadata-name}.\n     */\n    function name() public view virtual override returns (string memory) {\n        return _name;\n    }\n\n    /**\n     * @dev See {IERC721Metadata-symbol}.\n     */\n    function symbol() public view virtual override returns (string memory) {\n        return _symbol;\n    }\n\n    /**\n     * @dev See {IERC721Metadata-tokenURI}.\n     */\n    function tokenURI(uint256 tokenId)\n        public\n        view\n        virtual\n        override\n        returns (string memory)\n    {\n        require(\n            _exists(tokenId),\n            \"ERC721Metadata: URI query for nonexistent token\"\n        );\n\n        string memory baseURI = _baseURI();\n        return\n            bytes(baseURI).length > 0\n                ? string(abi.encodePacked(baseURI, tokenId.toString()))\n                : \"\";\n    }\n\n    /**\n     * @dev Base URI for computing {tokenURI}. If set, the resulting URI for each\n     * token will be the concatenation of the `baseURI` and the `tokenId`. Empty\n     * by default, can be overridden in child contracts.\n     */\n    function _baseURI() internal view virtual returns (string memory) {\n        return \"\";\n    }\n\n    /**\n     * @dev See {IERC721-approve}.\n     */\n    function approve(address to, uint256 tokenId) public virtual override {\n        address owner = ERC721r.ownerOf(tokenId);\n        require(to != owner, \"ERC721: approval to current owner\");\n\n        require(\n            _msgSender() == owner || isApprovedForAll(owner, _msgSender()),\n            \"ERC721: approve caller is not owner nor approved for all\"\n        );\n\n        _approve(to, tokenId);\n    }\n\n    /**\n     * @dev See {IERC721-getApproved}.\n     */\n    function getApproved(uint256 tokenId)\n        public\n        view\n        virtual\n        override\n        returns (address)\n    {\n        require(\n            _exists(tokenId),\n            \"ERC721: approved query for nonexistent token\"\n        );\n\n        return _tokenApprovals[tokenId];\n    }\n\n    /**\n     * @dev See {IERC721-setApprovalForAll}.\n     */\n    function setApprovalForAll(address operator, bool approved)\n        public\n        virtual\n        override\n    {\n        _setApprovalForAll(_msgSender(), operator, approved);\n    }\n\n    /**\n     * @dev See {IERC721-isApprovedForAll}.\n     */\n    function isApprovedForAll(address owner, address operator)\n        public\n        view\n        virtual\n        override\n        returns (bool)\n    {\n        return _operatorApprovals[owner][operator];\n    }\n\n    /**\n     * @dev See {IERC721-transferFrom}.\n     */\n    function transferFrom(\n        address from,\n        address to,\n        uint256 tokenId\n    ) public virtual override {\n        //solhint-disable-next-line max-line-length\n        require(\n            _isApprovedOrOwner(_msgSender(), tokenId),\n            \"ERC721: transfer caller is not owner nor approved\"\n        );\n\n        _transfer(from, to, tokenId);\n    }\n\n    /**\n     * @dev See {IERC721-safeTransferFrom}.\n     */\n    function safeTransferFrom(\n        address from,\n        address to,\n        uint256 tokenId\n    ) public virtual override {\n        safeTransferFrom(from, to, tokenId, \"\");\n    }\n\n    /**\n     * @dev See {IERC721-safeTransferFrom}.\n     */\n    function safeTransferFrom(\n        address from,\n        address to,\n        uint256 tokenId,\n        bytes memory _data\n    ) public virtual override {\n        require(\n            _isApprovedOrOwner(_msgSender(), tokenId),\n            \"ERC721: transfer caller is not owner nor approved\"\n        );\n        _safeTransfer(from, to, tokenId, _data);\n    }\n\n    /**\n     * @dev Safely transfers `tokenId` token from `from` to `to`, checking first that contract recipients\n     * are aware of the ERC721 protocol to prevent tokens from being forever locked.\n     *\n     * `_data` is additional data, it has no specified format and it is sent in call to `to`.\n     *\n     * This internal function is equivalent to {safeTransferFrom}, and can be used to e.g.\n     * implement alternative mechanisms to perform token transfer, such as signature-based.\n     *\n     * Requirements:\n     *\n     * - `from` cannot be the zero address.\n     * - `to` cannot be the zero address.\n     * - `tokenId` token must exist and be owned by `from`.\n     * - If `to` refers to a smart contract, it must implement {IERC721Receiver-onERC721Received}, which is called upon a safe transfer.\n     *\n     * Emits a {Transfer} event.\n     */\n    function _safeTransfer(\n        address from,\n        address to,\n        uint256 tokenId,\n        bytes memory _data\n    ) internal virtual {\n        _transfer(from, to, tokenId);\n        require(\n            _checkOnERC721Received(from, to, tokenId, _data),\n            \"ERC721: transfer to non ERC721Receiver implementer\"\n        );\n    }\n\n    /**\n     * @dev Returns whether `tokenId` exists.\n     *\n     * Tokens can be managed by their owner or approved accounts via {approve} or {setApprovalForAll}.\n     *\n     * Tokens start existing when they are minted (`_mint`),\n     * and stop existing when they are burned (`_burn`).\n     */\n    function _exists(uint256 tokenId) internal view virtual returns (bool) {\n        return _owners[tokenId] != address(0);\n    }\n\n    /**\n     * @dev Returns whether `spender` is allowed to manage `tokenId`.\n     *\n     * Requirements:\n     *\n     * - `tokenId` must exist.\n     */\n    function _isApprovedOrOwner(address spender, uint256 tokenId)\n        internal\n        view\n        virtual\n        returns (bool)\n    {\n        require(\n            _exists(tokenId),\n            \"ERC721: operator query for nonexistent token\"\n        );\n        address owner = ERC721r.ownerOf(tokenId);\n        return (spender == owner ||\n            getApproved(tokenId) == spender ||\n            isApprovedForAll(owner, spender));\n    }\n\n    function _mintIdWithoutBalanceUpdate(address to, uint256 tokenId) private {\n        _beforeTokenTransfer(address(0), to, tokenId);\n\n        _owners[tokenId] = to;\n\n        emit Transfer(address(0), to, tokenId);\n\n        _afterTokenTransfer(address(0), to, tokenId);\n    }\n\n    function _mintRandom(address to, uint256 _numToMint) internal virtual {\n        require(_msgSender() == tx.origin, \"Contracts cannot mint\");\n        require(to != address(0), \"ERC721: mint to the zero address\");\n        require(_numToMint > 0, \"ERC721r: need to mint at least one token\");\n\n        // TODO: Probably don't need this as it will underflow and revert automatically in this case\n        require(\n            _numAvailableTokens >= _numToMint,\n            \"ERC721r: minting more tokens than available\"\n        );\n\n        uint256 updatedNumAvailableTokens = _numAvailableTokens;\n        for (uint256 i; i < _numToMint; ++i) {\n            // Do this ++ unchecked?\n            uint256 tokenId = getRandomAvailableTokenId(\n                to,\n                updatedNumAvailableTokens\n            );\n\n            _mintIdWithoutBalanceUpdate(to, tokenId);\n\n            --updatedNumAvailableTokens;\n        }\n\n        _numAvailableTokens = updatedNumAvailableTokens;\n        _balances[to] += _numToMint;\n    }\n\n    function getRandomAvailableTokenId(\n        address to,\n        uint256 updatedNumAvailableTokens\n    ) internal returns (uint256) {\n        uint256 randomNum = uint256(\n            keccak256(\n                abi.encode(\n                    to,\n                    tx.gasprice,\n                    block.number,\n                    block.timestamp,\n                    block.difficulty,\n                    blockhash(block.number - 1),\n                    address(this),\n                    updatedNumAvailableTokens\n                )\n            )\n        );\n        uint256 randomIndex = randomNum % updatedNumAvailableTokens;\n        return getAvailableTokenAtIndex(randomIndex, updatedNumAvailableTokens);\n    }\n\n    // Implements https://en.wikipedia.org/wiki/Fisher%E2%80%93Yates_shuffle. Code taken from CryptoPhunksV2\n    function getAvailableTokenAtIndex(\n        uint256 indexToUse,\n        uint256 updatedNumAvailableTokens\n    ) internal returns (uint256) {\n        uint256 valAtIndex = _availableTokens[indexToUse];\n        uint256 result;\n        if (valAtIndex == 0) {\n            // This means the index itself is still an available token\n            result = indexToUse;\n        } else {\n            // This means the index itself is not an available token, but the val at that index is.\n            result = valAtIndex;\n        }\n\n        uint256 lastIndex = updatedNumAvailableTokens - 1;\n        if (indexToUse != lastIndex) {\n            // Replace the value at indexToUse, now that it's been used.\n            // Replace it with the data from the last index in the array, since we are going to decrease the array size afterwards.\n            uint256 lastValInArray = _availableTokens[lastIndex];\n            if (lastValInArray == 0) {\n                // This means the index itself is still an available token\n                _availableTokens[indexToUse] = lastIndex;\n            } else {\n                // This means the index itself is not an available token, but the val at that index is.\n                _availableTokens[indexToUse] = lastValInArray;\n                // Gas refund courtsey of @dievardump\n                delete _availableTokens[lastIndex];\n            }\n        }\n\n        return result;\n    }\n\n    // Not as good as minting a specific tokenId, but will behave the same at the start\n    // allowing you to explicitly mint some tokens at launch.\n    function _mintAtIndex(address to, uint256 index) internal virtual {\n        require(_msgSender() == tx.origin, \"Contracts cannot mint\");\n        require(to != address(0), \"ERC721: mint to the zero address\");\n        require(\n            _numAvailableTokens >= 1,\n            \"ERC721r: minting more tokens than available\"\n        );\n\n        uint256 tokenId = getAvailableTokenAtIndex(index, _numAvailableTokens);\n        --_numAvailableTokens;\n\n        _mintIdWithoutBalanceUpdate(to, tokenId);\n\n        _balances[to] += 1;\n    }\n\n    /**\n     * @dev Transfers `tokenId` from `from` to `to`.\n     *  As opposed to {transferFrom}, this imposes no restrictions on msg.sender.\n     *\n     * Requirements:\n     *\n     * - `to` cannot be the zero address.\n     * - `tokenId` token must be owned by `from`.\n     *\n     * Emits a {Transfer} event.\n     */\n    function _transfer(\n        address from,\n        address to,\n        uint256 tokenId\n    ) internal virtual {\n        require(\n            ERC721r.ownerOf(tokenId) == from,\n            \"ERC721: transfer from incorrect owner\"\n        );\n        require(to != address(0), \"ERC721: transfer to the zero address\");\n\n        _beforeTokenTransfer(from, to, tokenId);\n\n        // Clear approvals from the previous owner\n        _approve(address(0), tokenId);\n\n        _balances[from] -= 1;\n        _balances[to] += 1;\n        _owners[tokenId] = to;\n\n        emit Transfer(from, to, tokenId);\n\n        _afterTokenTransfer(from, to, tokenId);\n    }\n\n    /**\n     * @dev Approve `to` to operate on `tokenId`\n     *\n     * Emits a {Approval} event.\n     */\n    function _approve(address to, uint256 tokenId) internal virtual {\n        _tokenApprovals[tokenId] = to;\n        emit Approval(ERC721r.ownerOf(tokenId), to, tokenId);\n    }\n\n    /**\n     * @dev Approve `operator` to operate on all of `owner` tokens\n     *\n     * Emits a {ApprovalForAll} event.\n     */\n    function _setApprovalForAll(\n        address owner,\n        address operator,\n        bool approved\n    ) internal virtual {\n        require(owner != operator, \"ERC721: approve to caller\");\n        _operatorApprovals[owner][operator] = approved;\n        emit ApprovalForAll(owner, operator, approved);\n    }\n\n    /**\n     * @dev Internal function to invoke {IERC721Receiver-onERC721Received} on a target address.\n     * The call is not executed if the target address is not a contract.\n     *\n     * @param from address representing the previous owner of the given token ID\n     * @param to target address that will receive the tokens\n     * @param tokenId uint256 ID of the token to be transferred\n     * @param _data bytes optional data to send along with the call\n     * @return bool whether the call correctly returned the expected magic value\n     */\n    function _checkOnERC721Received(\n        address from,\n        address to,\n        uint256 tokenId,\n        bytes memory _data\n    ) private returns (bool) {\n        if (to.isContract()) {\n            try\n                IERC721Receiver(to).onERC721Received(\n                    _msgSender(),\n                    from,\n                    tokenId,\n                    _data\n                )\n            returns (bytes4 retval) {\n                return retval == IERC721Receiver.onERC721Received.selector;\n            } catch (bytes memory reason) {\n                if (reason.length == 0) {\n                    revert(\n                        \"ERC721: transfer to non ERC721Receiver implementer\"\n                    );\n                } else {\n                    assembly {\n                        revert(add(32, reason), mload(reason))\n                    }\n                }\n            }\n        } else {\n            return true;\n        }\n    }\n\n    /**\n     * @dev Hook that is called before any token transfer. This includes minting\n     * and burning.\n     *\n     * Calling conditions:\n     *\n     * - When `from` and `to` are both non-zero, ``from``'s `tokenId` will be\n     * transferred to `to`.\n     * - When `from` is zero, `tokenId` will be minted for `to`.\n     * - When `to` is zero, ``from``'s `tokenId` will be burned.\n     * - `from` and `to` are never both zero.\n     *\n     * To learn more about hooks, head to xref:ROOT:extending-contracts.adoc#using-hooks[Using Hooks].\n     */\n    function _beforeTokenTransfer(\n        address from,\n        address to,\n        uint256 tokenId\n    ) internal virtual {}\n\n    /**\n     * @dev Hook that is called after any transfer of tokens. This includes\n     * minting and burning.\n     *\n     * Calling conditions:\n     *\n     * - when `from` and `to` are both non-zero.\n     * - `from` and `to` are never both zero.\n     *\n     * To learn more about hooks, head to xref:ROOT:extending-contracts.adoc#using-hooks[Using Hooks].\n     */\n    function _afterTokenTransfer(\n        address from,\n        address to,\n        uint256 tokenId\n    ) internal virtual {}\n}\n",
  "sourcePath": "/home/basti/Desktop/activate/vcu3/contracts/ERC721r.sol",
  "compiler": {
    "name": "solc",
    "version": "0.8.0+commit.c7dfd78e.Emscripten.clang"
  },
  "schemaVersion": "3.4.1",
  "updatedAt": "2022-06-23T02:07:19.932Z",
  "networkType": "ethereum",
  "devdoc": {
    "details": "Implementation of https://eips.ethereum.org/EIPS/eip-721[ERC721] Non-Fungible Token Standard, including the Metadata extension, but not including the Enumerable extension. This does random batch minting.",
    "kind": "dev",
    "methods": {
      "approve(address,uint256)": {
        "details": "See {IERC721-approve}."
      },
      "balanceOf(address)": {
        "details": "See {IERC721-balanceOf}."
      },
      "constructor": {
        "details": "Initializes the contract by setting a `name` and a `symbol` to the token collection."
      },
      "getApproved(uint256)": {
        "details": "See {IERC721-getApproved}."
      },
      "isApprovedForAll(address,address)": {
        "details": "See {IERC721-isApprovedForAll}."
      },
      "name()": {
        "details": "See {IERC721Metadata-name}."
      },
      "ownerOf(uint256)": {
        "details": "See {IERC721-ownerOf}."
      },
      "safeTransferFrom(address,address,uint256)": {
        "details": "See {IERC721-safeTransferFrom}."
      },
      "safeTransferFrom(address,address,uint256,bytes)": {
        "details": "See {IERC721-safeTransferFrom}."
      },
      "setApprovalForAll(address,bool)": {
        "details": "See {IERC721-setApprovalForAll}."
      },
      "supportsInterface(bytes4)": {
        "details": "See {IERC165-supportsInterface}."
      },
      "symbol()": {
        "details": "See {IERC721Metadata-symbol}."
      },
      "tokenURI(uint256)": {
        "details": "See {IERC721Metadata-tokenURI}."
      },
      "transferFrom(address,address,uint256)": {
        "details": "See {IERC721-transferFrom}."
      }
    },
    "version": 1
  },
  "userdoc": {
    "kind": "user",
    "methods": {},
    "version": 1
  }
}