{
  "contractName": "KolorMarketplace",
  "abi": [
    {
      "inputs": [],
      "stateMutability": "nonpayable",
      "type": "constructor"
    },
    {
      "anonymous": false,
      "inputs": [
        {
          "indexed": true,
          "internalType": "address",
          "name": "previousOwner",
          "type": "address"
        },
        {
          "indexed": true,
          "internalType": "address",
          "name": "newOwner",
          "type": "address"
        }
      ],
      "name": "OwnershipTransferred",
      "type": "event"
    },
    {
      "inputs": [],
      "name": "KolorLandNFTAddress",
      "outputs": [
        {
          "internalType": "address",
          "name": "",
          "type": "address"
        }
      ],
      "stateMutability": "view",
      "type": "function",
      "constant": true
    },
    {
      "inputs": [
        {
          "internalType": "address",
          "name": "",
          "type": "address"
        }
      ],
      "name": "isAuthorized",
      "outputs": [
        {
          "internalType": "bool",
          "name": "",
          "type": "bool"
        }
      ],
      "stateMutability": "view",
      "type": "function",
      "constant": true
    },
    {
      "inputs": [
        {
          "internalType": "address",
          "name": "",
          "type": "address"
        },
        {
          "internalType": "uint256",
          "name": "",
          "type": "uint256"
        }
      ],
      "name": "offsetsByAddress",
      "outputs": [
        {
          "internalType": "uint256",
          "name": "vcuOffset",
          "type": "uint256"
        },
        {
          "internalType": "uint256",
          "name": "offsetDate",
          "type": "uint256"
        },
        {
          "internalType": "uint256",
          "name": "vcuPrice",
          "type": "uint256"
        },
        {
          "internalType": "uint256",
          "name": "tokenId",
          "type": "uint256"
        },
        {
          "internalType": "address",
          "name": "account",
          "type": "address"
        }
      ],
      "stateMutability": "view",
      "type": "function",
      "constant": true
    },
    {
      "inputs": [
        {
          "internalType": "uint256",
          "name": "",
          "type": "uint256"
        },
        {
          "internalType": "uint256",
          "name": "",
          "type": "uint256"
        }
      ],
      "name": "offsetsByLand",
      "outputs": [
        {
          "internalType": "uint256",
          "name": "vcuOffset",
          "type": "uint256"
        },
        {
          "internalType": "uint256",
          "name": "offsetDate",
          "type": "uint256"
        },
        {
          "internalType": "uint256",
          "name": "vcuPrice",
          "type": "uint256"
        },
        {
          "internalType": "uint256",
          "name": "tokenId",
          "type": "uint256"
        },
        {
          "internalType": "address",
          "name": "account",
          "type": "address"
        }
      ],
      "stateMutability": "view",
      "type": "function",
      "constant": true
    },
    {
      "inputs": [],
      "name": "owner",
      "outputs": [
        {
          "internalType": "address",
          "name": "",
          "type": "address"
        }
      ],
      "stateMutability": "view",
      "type": "function",
      "constant": true
    },
    {
      "inputs": [],
      "name": "renounceOwnership",
      "outputs": [],
      "stateMutability": "nonpayable",
      "type": "function"
    },
    {
      "inputs": [
        {
          "internalType": "address",
          "name": "",
          "type": "address"
        }
      ],
      "name": "totalOffsetsOfAddress",
      "outputs": [
        {
          "internalType": "uint256",
          "name": "",
          "type": "uint256"
        }
      ],
      "stateMutability": "view",
      "type": "function",
      "constant": true
    },
    {
      "inputs": [
        {
          "internalType": "uint256",
          "name": "",
          "type": "uint256"
        }
      ],
      "name": "totalOffsetsOfLand",
      "outputs": [
        {
          "internalType": "uint256",
          "name": "",
          "type": "uint256"
        }
      ],
      "stateMutability": "view",
      "type": "function",
      "constant": true
    },
    {
      "inputs": [
        {
          "internalType": "address",
          "name": "newOwner",
          "type": "address"
        }
      ],
      "name": "transferOwnership",
      "outputs": [],
      "stateMutability": "nonpayable",
      "type": "function"
    },
    {
      "inputs": [
        {
          "internalType": "address",
          "name": "_NFTAddress",
          "type": "address"
        }
      ],
      "name": "setNFTAddress",
      "outputs": [],
      "stateMutability": "nonpayable",
      "type": "function"
    },
    {
      "inputs": [
        {
          "internalType": "uint256",
          "name": "tokenId",
          "type": "uint256"
        }
      ],
      "name": "removeLand",
      "outputs": [],
      "stateMutability": "nonpayable",
      "type": "function"
    },
    {
      "inputs": [
        {
          "internalType": "uint256",
          "name": "tokenId",
          "type": "uint256"
        },
        {
          "internalType": "uint256",
          "name": "emissions",
          "type": "uint256"
        },
        {
          "internalType": "uint256",
          "name": "vcuPrice",
          "type": "uint256"
        },
        {
          "internalType": "address",
          "name": "account",
          "type": "address"
        }
      ],
      "name": "offsetEmissions",
      "outputs": [],
      "stateMutability": "payable",
      "type": "function",
      "payable": true
    },
    {
      "inputs": [
        {
          "internalType": "uint256",
          "name": "tokenId",
          "type": "uint256"
        },
        {
          "internalType": "uint256",
          "name": "emissions",
          "type": "uint256"
        },
        {
          "internalType": "uint256",
          "name": "vcuPrice",
          "type": "uint256"
        },
        {
          "internalType": "address",
          "name": "account",
          "type": "address"
        }
      ],
      "name": "addOffsetsEmissionsOfBuyer",
      "outputs": [],
      "stateMutability": "nonpayable",
      "type": "function"
    },
    {
      "inputs": [
        {
          "internalType": "uint256",
          "name": "tokenId",
          "type": "uint256"
        },
        {
          "internalType": "uint256",
          "name": "emissions",
          "type": "uint256"
        },
        {
          "internalType": "uint256",
          "name": "vcuPrice",
          "type": "uint256"
        },
        {
          "internalType": "address",
          "name": "account",
          "type": "address"
        }
      ],
      "name": "addOffsetsEmmisionsOfLand",
      "outputs": [],
      "stateMutability": "nonpayable",
      "type": "function"
    },
    {
      "inputs": [
        {
          "internalType": "uint256",
          "name": "tokenId",
          "type": "uint256"
        }
      ],
      "name": "totalOffsetsOf",
      "outputs": [
        {
          "internalType": "uint256",
          "name": "",
          "type": "uint256"
        }
      ],
      "stateMutability": "view",
      "type": "function",
      "constant": true
    },
    {
      "inputs": [
        {
          "internalType": "address",
          "name": "account",
          "type": "address"
        }
      ],
      "name": "totalOffsetsOf",
      "outputs": [
        {
          "internalType": "uint256",
          "name": "",
          "type": "uint256"
        }
      ],
      "stateMutability": "view",
      "type": "function",
      "constant": true
    },
    {
      "inputs": [
        {
          "internalType": "uint256",
          "name": "tokenId",
          "type": "uint256"
        }
      ],
      "name": "offsetsOf",
      "outputs": [
        {
          "components": [
            {
              "internalType": "uint256",
              "name": "vcuOffset",
              "type": "uint256"
            },
            {
              "internalType": "uint256",
              "name": "offsetDate",
              "type": "uint256"
            },
            {
              "internalType": "uint256",
              "name": "vcuPrice",
              "type": "uint256"
            },
            {
              "internalType": "uint256",
              "name": "tokenId",
              "type": "uint256"
            },
            {
              "internalType": "address",
              "name": "account",
              "type": "address"
            }
          ],
          "internalType": "struct OffsetEmission[]",
          "name": "",
          "type": "tuple[]"
        }
      ],
      "stateMutability": "view",
      "type": "function",
      "constant": true
    },
    {
      "inputs": [
        {
          "internalType": "address",
          "name": "account",
          "type": "address"
        }
      ],
      "name": "offsetsOf",
      "outputs": [
        {
          "components": [
            {
              "internalType": "uint256",
              "name": "vcuOffset",
              "type": "uint256"
            },
            {
              "internalType": "uint256",
              "name": "offsetDate",
              "type": "uint256"
            },
            {
              "internalType": "uint256",
              "name": "vcuPrice",
              "type": "uint256"
            },
            {
              "internalType": "uint256",
              "name": "tokenId",
              "type": "uint256"
            },
            {
              "internalType": "address",
              "name": "account",
              "type": "address"
            }
          ],
          "internalType": "struct OffsetEmission[]",
          "name": "",
          "type": "tuple[]"
        }
      ],
      "stateMutability": "view",
      "type": "function",
      "constant": true
    },
    {
      "inputs": [
        {
          "internalType": "uint256",
          "name": "offsetId",
          "type": "uint256"
        },
        {
          "internalType": "address",
          "name": "account",
          "type": "address"
        }
      ],
      "name": "offsetInfo",
      "outputs": [
        {
          "components": [
            {
              "internalType": "uint256",
              "name": "vcuOffset",
              "type": "uint256"
            },
            {
              "internalType": "uint256",
              "name": "offsetDate",
              "type": "uint256"
            },
            {
              "internalType": "uint256",
              "name": "vcuPrice",
              "type": "uint256"
            },
            {
              "internalType": "uint256",
              "name": "tokenId",
              "type": "uint256"
            },
            {
              "internalType": "address",
              "name": "account",
              "type": "address"
            }
          ],
          "internalType": "struct OffsetEmission",
          "name": "",
          "type": "tuple"
        }
      ],
      "stateMutability": "view",
      "type": "function",
      "constant": true
    },
    {
      "inputs": [
        {
          "internalType": "uint256",
          "name": "offsetId",
          "type": "uint256"
        },
        {
          "internalType": "uint256",
          "name": "tokenId",
          "type": "uint256"
        }
      ],
      "name": "offsetInfo",
      "outputs": [
        {
          "components": [
            {
              "internalType": "uint256",
              "name": "vcuOffset",
              "type": "uint256"
            },
            {
              "internalType": "uint256",
              "name": "offsetDate",
              "type": "uint256"
            },
            {
              "internalType": "uint256",
              "name": "vcuPrice",
              "type": "uint256"
            },
            {
              "internalType": "uint256",
              "name": "tokenId",
              "type": "uint256"
            },
            {
              "internalType": "address",
              "name": "account",
              "type": "address"
            }
          ],
          "internalType": "struct OffsetEmission",
          "name": "",
          "type": "tuple"
        }
      ],
      "stateMutability": "view",
      "type": "function",
      "constant": true
    },
    {
      "inputs": [],
      "name": "getBalance",
      "outputs": [
        {
          "internalType": "uint256",
          "name": "",
          "type": "uint256"
        }
      ],
      "stateMutability": "view",
      "type": "function",
      "constant": true
    },
    {
      "inputs": [
        {
          "internalType": "address",
          "name": "manager",
          "type": "address"
        }
      ],
      "name": "authorize",
      "outputs": [],
      "stateMutability": "nonpayable",
      "type": "function"
    },
    {
      "inputs": [
        {
          "internalType": "address",
          "name": "operator",
          "type": "address"
        },
        {
          "internalType": "address",
          "name": "from",
          "type": "address"
        },
        {
          "internalType": "uint256",
          "name": "tokenId",
          "type": "uint256"
        },
        {
          "internalType": "bytes",
          "name": "data",
          "type": "bytes"
        }
      ],
      "name": "onERC721Received",
      "outputs": [
        {
          "internalType": "bytes4",
          "name": "",
          "type": "bytes4"
        }
      ],
      "stateMutability": "nonpayable",
      "type": "function"
    }
  ],
  "bytecode": "0x608060405234801561001057600080fd5b5061002161001c610045565b610049565b6001808055336000908152600860205260409020805460ff19169091179055610099565b3390565b600080546001600160a01b038381166001600160a01b0319831681178455604051919092169283917f8be0079c531659141344cd1fd0a4f28419497f9722a3daafe3b4186f6b6457e09190a35050565b611478806100a86000396000f3fe6080604052600436106101205760003560e01c806377d90c66116100a657806377d90c66146102bf5780637cac5e79146102df5780638da5cb5b146102ff578063a1f5fd0114610321578063a4b4771714610341578063abdc7fa114610361578063b6a5d7de14610381578063c102243b146103a1578063c812fe4b146103c1578063f2fde38b146103d6578063fbeb36ce146103f6578063fe9fbb801461040957610120565b80630a408ec71461012557806312065fe01461015b578063150b7a02146101705780631f62010e1461019d5780633453c936146101ce578063572d8074146101fb5780635b6f6f141461021b57806369d03738146102485780636b7fcfdf1461026a57806371180b431461028a578063715018a6146102aa575b600080fd5b34801561013157600080fd5b5061014561014036600461105c565b610436565b604051610152919061137a565b60405180910390f35b34801561016757600080fd5b50610145610448565b34801561017c57600080fd5b5061019061018b366004610f78565b61044c565b60405161015291906111bf565b3480156101a957600080fd5b506101bd6101b8366004611012565b61045d565b6040516101529594939291906113da565b3480156101da57600080fd5b506101ee6101e936600461108c565b61049e565b604051610152919061136c565b34801561020757600080fd5b506101ee6102163660046110bb565b61050c565b34801561022757600080fd5b5061023b61023636600461105c565b610575565b6040516101529190611166565b34801561025457600080fd5b50610268610263366004610f39565b610644565b005b34801561027657600080fd5b50610145610285366004610f39565b6106ae565b34801561029657600080fd5b506102686102a53660046110dc565b6106c0565b3480156102b657600080fd5b50610268610767565b3480156102cb57600080fd5b506102686102da36600461105c565b6107b2565b3480156102eb57600080fd5b506101456102fa366004610f39565b610877565b34801561030b57600080fd5b50610314610892565b6040516101529190611152565b34801561032d57600080fd5b506101bd61033c3660046110bb565b6108a1565b34801561034d57600080fd5b5061023b61035c366004610f39565b6108e4565b34801561036d57600080fd5b5061014561037c36600461105c565b6109ab565b34801561038d57600080fd5b5061026861039c366004610f39565b6109bd565b3480156103ad57600080fd5b506102686103bc3660046110dc565b610a25565b3480156103cd57600080fd5b50610314610ac0565b3480156103e257600080fd5b506102686103f1366004610f39565b610acf565b6102686104043660046110dc565b610b40565b34801561041557600080fd5b50610429610424366004610f39565b610e7a565b60405161015291906111b4565b60009081526007602052604090205490565b4790565b630a85bd0160e11b95945050505050565b60046020818152600093845260408085209091529183529120805460018201546002830154600384015493909401549193909290916001600160a01b031685565b6104a6610f01565b506001600160a01b038082166000908152600460208181526040808420878552825292839020835160a081018552815481526001820154928101929092526002810154938201939093526003830154606082015291015490911660808201525b92915050565b610514610f01565b50600090815260066020908152604080832093835292815290829020825160a08101845281548152600182015492810192909252600281015492820192909252600382015460608201526004909101546001600160a01b0316608082015290565b6060600061058283610436565b905060008167ffffffffffffffff8111156105ad57634e487b7160e01b600052604160045260246000fd5b6040519080825280602002602001820160405280156105e657816020015b6105d3610f01565b8152602001906001900390816105cb5790505b50905060005b8281101561063c576105fe818661050c565b82828151811061061e57634e487b7160e01b600052603260045260246000fd5b6020026020010181905250808061063490611406565b9150506105ec565b509392505050565b61064c610e8f565b6001600160a01b031661065d610892565b6001600160a01b03161461068c5760405162461bcd60e51b815260040161068390611288565b60405180910390fd5b600280546001600160a01b0319166001600160a01b0392909216919091179055565b60056020526000908152604090205481565b3360009081526008602052604090205460ff166106ef5760405162461bcd60e51b81526004016106839061121a565b6001600160a01b03811660008181526005602081815260408084208054600480855283872082885285529286208a8155426001820155600381018c9055600281018a905590920180546001600160a01b0319168717905594845291905282549092909161075b83611406565b91905055505050505050565b61076f610e8f565b6001600160a01b0316610780610892565b6001600160a01b0316146107a65760405162461bcd60e51b815260040161068390611288565b6107b06000610e93565b565b3360009081526008602052604090205460ff166107e15760405162461bcd60e51b81526004016106839061121a565b600260015414156108045760405162461bcd60e51b815260040161068390611335565b6002600181815590546040516313da6ae360e21b81526001600160a01b03909116918291634f69ab8c9161083d9186919060040161139a565b600060405180830381600087803b15801561085757600080fd5b505af115801561086b573d6000803e3d6000fd5b50506001805550505050565b6001600160a01b031660009081526005602052604090205490565b6000546001600160a01b031690565b600660209081526000928352604080842090915290825290208054600182015460028301546003840154600490940154929391929091906001600160a01b031685565b606060006108f183610877565b905060008167ffffffffffffffff81111561091c57634e487b7160e01b600052604160045260246000fd5b60405190808252806020026020018201604052801561095557816020015b610942610f01565b81526020019060019003908161093a5790505b50905060005b8281101561063c5761096d818661049e565b82828151811061098d57634e487b7160e01b600052603260045260246000fd5b602002602001018190525080806109a390611406565b91505061095b565b60076020526000908152604090205481565b6109c5610e8f565b6001600160a01b03166109d6610892565b6001600160a01b0316146109fc5760405162461bcd60e51b815260040161068390611288565b6001600160a01b03166000908152600860205260409020805460ff19811660ff90911615179055565b3360009081526008602052604090205460ff16610a545760405162461bcd60e51b81526004016106839061121a565b60008481526007602081815260408084208054600684528286208187528452918520888155426001820155600381018a90556002810188905560040180546001600160a01b0319166001600160a01b038816179055888552929091528154909290919061075b83611406565b6002546001600160a01b031681565b610ad7610e8f565b6001600160a01b0316610ae8610892565b6001600160a01b031614610b0e5760405162461bcd60e51b815260040161068390611288565b6001600160a01b038116610b345760405162461bcd60e51b8152600401610683906111d4565b610b3d81610e93565b50565b3360009081526008602052604090205460ff16610b6f5760405162461bcd60e51b81526004016106839061121a565b60026001541415610b925760405162461bcd60e51b815260040161068390611335565b60026001819055546001600160a01b0316808060036040516304c69f8960e21b81526001600160a01b0385169063131a7e2490610bd3908b9060040161137a565b60206040518083038186803b158015610beb57600080fd5b505afa158015610bff573d6000803e3d6000fd5b505050506040513d601f19601f82011682018060405250810190610c23919061103d565b6003811115610c4257634e487b7160e01b600052602160045260246000fd5b14610c5f5760405162461bcd60e51b815260040161068390611251565b6040516340247e0760e11b815286906001600160a01b03851690638048fc0e90610c8d908b9060040161137a565b60206040518083038186803b158015610ca557600080fd5b505afa158015610cb9573d6000803e3d6000fd5b505050506040513d601f19601f82011682018060405250810190610cdd9190611074565b1015610cfb5760405162461bcd60e51b8152600401610683906112ec565b6040516331a9108f60e11b81526000906001600160a01b03831690636352211e90610d2a908b9060040161137a565b60206040518083038186803b158015610d4257600080fd5b505afa158015610d56573d6000803e3d6000fd5b505050506040513d601f19601f82011682018060405250810190610d7a9190610f5c565b6001600160a01b03161415610da15760405162461bcd60e51b8152600401610683906112bd565b60405163ef2a174760e01b81526001600160a01b0384169063ef2a174790610dcf908a908890600401611383565b600060405180830381600087803b158015610de957600080fd5b505af1158015610dfd573d6000803e3d6000fd5b50505050610e0d87878787610ee3565b60405163d8d31fc160e01b81526001600160a01b0383169063d8d31fc190610e3b908a908a906004016113cc565b600060405180830381600087803b158015610e5557600080fd5b505af1158015610e69573d6000803e3d6000fd5b505060018055505050505050505050565b60086020526000908152604090205460ff1681565b3390565b600080546001600160a01b038381166001600160a01b0319831681178455604051919092169283917f8be0079c531659141344cd1fd0a4f28419497f9722a3daafe3b4186f6b6457e09190a35050565b610eef848484846106c0565b610efb84848484610a25565b50505050565b6040518060a001604052806000815260200160008152602001600081526020016000815260200160006001600160a01b031681525090565b600060208284031215610f4a578081fd5b8135610f558161142d565b9392505050565b600060208284031215610f6d578081fd5b8151610f558161142d565b600080600080600060808688031215610f8f578081fd5b8535610f9a8161142d565b94506020860135610faa8161142d565b935060408601359250606086013567ffffffffffffffff80821115610fcd578283fd5b818801915088601f830112610fe0578283fd5b813581811115610fee578384fd5b896020828501011115610fff578384fd5b9699959850939650602001949392505050565b60008060408385031215611024578182fd5b823561102f8161142d565b946020939093013593505050565b60006020828403121561104e578081fd5b815160048110610f55578182fd5b60006020828403121561106d578081fd5b5035919050565b600060208284031215611085578081fd5b5051919050565b6000806040838503121561109e578182fd5b8235915060208301356110b08161142d565b809150509250929050565b600080604083850312156110cd578182fd5b50508035926020909101359150565b600080600080608085870312156110f1578384fd5b84359350602085013592506040850135915060608501356111118161142d565b939692955090935050565b805182526020808201519083015260408082015190830152606080820151908301526080908101516001600160a01b0316910152565b6001600160a01b0391909116815260200190565b6020808252825182820181905260009190848201906040850190845b818110156111a85761119583855161111c565b9284019260a09290920191600101611182565b50909695505050505050565b901515815260200190565b6001600160e01b031991909116815260200190565b60208082526026908201527f4f776e61626c653a206e6577206f776e657220697320746865207a65726f206160408201526564647265737360d01b606082015260800190565b6020808252601d908201527f596f75277265206e6f7420616c6c6f77656420746f20646f2074686174000000604082015260600190565b6020808252601f908201527f54686973206c616e64204e4654206973206e6f7420617661696c61626c652100604082015260600190565b6020808252818101527f4f776e61626c653a2063616c6c6572206973206e6f7420746865206f776e6572604082015260600190565b602080825260159082015274546f6b656e20646f65736e2774206578697374732160581b604082015260600190565b60208082526029908201527f54686973206c616e64206861736e27742074686174206d7563682054434f32206040820152681d1bc81bd9999cd95d60ba1b606082015260800190565b6020808252601f908201527f5265656e7472616e637947756172643a207265656e7472616e742063616c6c00604082015260600190565b60a08101610506828461111c565b90815260200190565b9182526001600160a01b0316602082015260400190565b82815260408101600483106113bf57634e487b7160e01b600052602160045260246000fd5b8260208301529392505050565b918252602082015260400190565b9485526020850193909352604084019190915260608301526001600160a01b0316608082015260a00190565b600060001982141561142657634e487b7160e01b81526011600452602481fd5b5060010190565b6001600160a01b0381168114610b3d57600080fdfea2646970667358221220da83e8967f6d970dd3c6c5e208158ca8b25039209a7f0f918ec0fe4aab9d9b7b64736f6c63430008000033",
  "immutableReferences": {},
  "source": "// SPDX-License-Identifier: MIT\npragma solidity ^0.8.0;\n\nimport \"@openzeppelin/contracts/token/ERC721/ERC721.sol\";\nimport \"@openzeppelin/contracts/security/ReentrancyGuard.sol\";\nimport \"@openzeppelin/contracts/access/Ownable.sol\";\n\nimport \"./KolorLandNFT.sol\";\n\nstruct OffsetEmission {\n    uint256 vcuOffset;\n    uint256 offsetDate;\n    uint256 vcuPrice;\n    uint256 tokenId;\n    address account;\n}\n\ncontract KolorMarketplace is Ownable, ReentrancyGuard, IERC721Receiver {\n    // Address of the nft contract and kolor\n    address public KolorLandNFTAddress;\n\n    // Mapping from token Id to the timestamp when it was staked\n    // in this contract\n    mapping(uint256 => uint256) private lockStartTime;\n\n    // mapping from account to its offsets\n    mapping(address => mapping(uint256 => OffsetEmission))\n        public offsetsByAddress;\n    mapping(address => uint256) public totalOffsetsOfAddress;\n\n    // mapping from token id land to its offsets\n    mapping(uint256 => mapping(uint256 => OffsetEmission)) public offsetsByLand;\n    mapping(uint256 => uint256) public totalOffsetsOfLand;\n\n    mapping(address => bool) public isAuthorized;\n\n    constructor() {\n        isAuthorized[msg.sender] = true;\n    }\n\n    modifier onlyAuthorized() {\n        require(isAuthorized[msg.sender], \"You're not allowed to do that\");\n        _;\n    }\n\n    function setNFTAddress(address _NFTAddress) public onlyOwner {\n        KolorLandNFTAddress = _NFTAddress;\n    }\n\n    /**\n        @dev Withdraw a published land from the marketplace\n\n     */\n    function removeLand(uint256 tokenId) public onlyAuthorized nonReentrant {\n        IKolorLandNFT ilandInterface = IKolorLandNFT(KolorLandNFTAddress);\n\n        // update the land state to paused\n        ilandInterface.updateLandState(tokenId, State.Paused);\n    }\n\n    /**\n        @dev Register a new buying of vcu tokens\n\n     */\n    function offsetEmissions(\n        uint256 tokenId,\n        uint256 emissions,\n        uint256 vcuPrice,\n        address account\n    ) external payable onlyAuthorized nonReentrant {\n        IKolorLandNFT ilandInterface = IKolorLandNFT(KolorLandNFTAddress);\n        KolorLandNFT kolorLand = KolorLandNFT(KolorLandNFTAddress);\n        IERC721 erc721 = IERC721(KolorLandNFTAddress);\n\n        require(\n            ilandInterface.stateOf(tokenId) == State.Published,\n            \"This land NFT is not available!\"\n        );\n\n        require(\n            ilandInterface.getVCUSLeft(tokenId) >= emissions,\n            \"This land hasn't that much TCO2 to offset\"\n        );\n\n        require(erc721.ownerOf(tokenId) != address(0), \"Token doesn't exists!\");\n\n        // Add a new account to token Info\n        ilandInterface.addBuyer(tokenId, account);\n\n        // Create new information about this offset\n        addOffsetEmissions(tokenId, emissions, vcuPrice, account);\n\n        //Add Offset emissions in nft contract info\n        kolorLand.offsetEmissions(tokenId, emissions);\n    }\n\n    /** @dev Adds a new offset structure to a account to represent\n        its newly offset\n    */\n    function addOffsetEmissions(\n        uint256 tokenId,\n        uint256 emissions,\n        uint256 vcuPrice,\n        address account\n    ) internal {\n        addOffsetsEmissionsOfBuyer(tokenId, emissions, vcuPrice, account);\n        addOffsetsEmmisionsOfLand(tokenId, emissions, vcuPrice, account);\n    }\n\n    /**\n        @dev updates registry of emissions per client \n    \n    */\n    function addOffsetsEmissionsOfBuyer(\n        uint256 tokenId,\n        uint256 emissions,\n        uint256 vcuPrice,\n        address account\n    ) public onlyAuthorized {\n        uint256 currentOffsetsOf = totalOffsetsOfAddress[account];\n\n        // add offset\n        offsetsByAddress[account][currentOffsetsOf].vcuOffset = emissions;\n        offsetsByAddress[account][currentOffsetsOf].offsetDate = block\n            .timestamp;\n        offsetsByAddress[account][currentOffsetsOf].tokenId = tokenId;\n        offsetsByAddress[account][currentOffsetsOf].vcuPrice = vcuPrice;\n        offsetsByAddress[account][currentOffsetsOf].account = account;\n\n        // get the current offset emissions of this address\n        totalOffsetsOfAddress[account]++;\n    }\n\n    /**\n        @dev updates registry of emissions per land \n    \n    */\n    function addOffsetsEmmisionsOfLand(\n        uint256 tokenId,\n        uint256 emissions,\n        uint256 vcuPrice,\n        address account\n    ) public onlyAuthorized {\n        uint256 currentOffsetsOf = totalOffsetsOfLand[tokenId];\n\n        // add offset\n        offsetsByLand[tokenId][currentOffsetsOf].vcuOffset = emissions;\n        offsetsByLand[tokenId][currentOffsetsOf].offsetDate = block.timestamp;\n        offsetsByLand[tokenId][currentOffsetsOf].tokenId = tokenId;\n\n        offsetsByLand[tokenId][currentOffsetsOf].vcuPrice = vcuPrice;\n        offsetsByLand[tokenId][currentOffsetsOf].account = account;\n\n        // get the current offset emissions of this land\n        totalOffsetsOfLand[tokenId]++;\n    }\n\n    function totalOffsetsOf(address account) public view returns (uint256) {\n        return totalOffsetsOfAddress[account];\n    }\n\n    function totalOffsetsOf(uint256 tokenId) public view returns (uint256) {\n        return totalOffsetsOfLand[tokenId];\n    }\n\n    /**\n        @dev returns offsets of given land\n    */\n    function offsetsOf(uint256 tokenId)\n        public\n        view\n        returns (OffsetEmission[] memory)\n    {\n        uint256 _totalOffsetsOf = totalOffsetsOf(tokenId);\n\n        OffsetEmission[] memory offsets = new OffsetEmission[](_totalOffsetsOf);\n\n        for (uint256 i = 0; i < _totalOffsetsOf; i++) {\n            offsets[i] = offsetInfo(i, tokenId);\n        }\n\n        return offsets;\n    }\n\n    /**\n        @dev returns offsets of given account\n    */\n    function offsetsOf(address account)\n        public\n        view\n        returns (OffsetEmission[] memory)\n    {\n        uint256 _totalOffsetsOf = totalOffsetsOf(account);\n\n        OffsetEmission[] memory offsets = new OffsetEmission[](_totalOffsetsOf);\n\n        for (uint256 i = 0; i < _totalOffsetsOf; i++) {\n            offsets[i] = offsetInfo(i, account);\n        }\n\n        return offsets;\n    }\n\n    /**\n        @dev returns offset info of given land and offset\n        \n    */\n    function offsetInfo(uint256 offsetId, uint256 tokenId)\n        public\n        view\n        returns (OffsetEmission memory)\n    {\n        return offsetsByLand[tokenId][offsetId];\n    }\n\n    /**\n        @dev returns offset info of given account and offset\n        \n    */\n    function offsetInfo(uint256 offsetId, address account)\n        public\n        view\n        returns (OffsetEmission memory)\n    {\n        return offsetsByAddress[account][offsetId];\n    }\n\n    /**\n        @dev Returns the amount of CELO in this contract\n     */\n    function getBalance() public view returns (uint256) {\n        return address(this).balance;\n    }\n\n    function authorize(address manager) public onlyOwner {\n        isAuthorized[manager] = !isAuthorized[manager];\n    }\n\n    function onERC721Received(\n        address operator,\n        address from,\n        uint256 tokenId,\n        bytes calldata data\n    ) external override returns (bytes4) {\n        return this.onERC721Received.selector;\n    }\n}\n",
  "sourcePath": "/home/basti/Desktop/activate/vcu3/contracts/KolorMarketplace.sol",
  "compiler": {
    "name": "solc",
    "version": "0.8.0+commit.c7dfd78e.Emscripten.clang"
  },
  "schemaVersion": "3.4.1",
  "updatedAt": "2022-06-24T16:52:41.402Z",
  "networkType": "ethereum",
  "devdoc": {
    "kind": "dev",
    "methods": {
      "addOffsetsEmissionsOfBuyer(uint256,uint256,uint256,address)": {
        "details": "updates registry of emissions per client "
      },
      "addOffsetsEmmisionsOfLand(uint256,uint256,uint256,address)": {
        "details": "updates registry of emissions per land "
      },
      "getBalance()": {
        "details": "Returns the amount of CELO in this contract"
      },
      "offsetEmissions(uint256,uint256,uint256,address)": {
        "details": "Register a new buying of vcu tokens"
      },
      "offsetInfo(uint256,address)": {
        "details": "returns offset info of given account and offset"
      },
      "offsetInfo(uint256,uint256)": {
        "details": "returns offset info of given land and offset"
      },
      "offsetsOf(address)": {
        "details": "returns offsets of given account"
      },
      "offsetsOf(uint256)": {
        "details": "returns offsets of given land"
      },
      "onERC721Received(address,address,uint256,bytes)": {
        "details": "Whenever an {IERC721} `tokenId` token is transferred to this contract via {IERC721-safeTransferFrom} by `operator` from `from`, this function is called. It must return its Solidity selector to confirm the token transfer. If any other value is returned or the interface is not implemented by the recipient, the transfer will be reverted. The selector can be obtained in Solidity with `IERC721.onERC721Received.selector`."
      },
      "owner()": {
        "details": "Returns the address of the current owner."
      },
      "removeLand(uint256)": {
        "details": "Withdraw a published land from the marketplace"
      },
      "renounceOwnership()": {
        "details": "Leaves the contract without owner. It will not be possible to call `onlyOwner` functions anymore. Can only be called by the current owner. NOTE: Renouncing ownership will leave the contract without an owner, thereby removing any functionality that is only available to the owner."
      },
      "transferOwnership(address)": {
        "details": "Transfers ownership of the contract to a new account (`newOwner`). Can only be called by the current owner."
      }
    },
    "version": 1
  },
  "userdoc": {
    "kind": "user",
    "methods": {},
    "version": 1
  }
}