{
  "contractName": "KolorLandNFT",
  "abi": [
    {
      "inputs": [],
      "stateMutability": "nonpayable",
      "type": "constructor"
    },
    {
      "anonymous": false,
      "inputs": [
        {
          "indexed": true,
          "internalType": "address",
          "name": "owner",
          "type": "address"
        },
        {
          "indexed": true,
          "internalType": "address",
          "name": "approved",
          "type": "address"
        },
        {
          "indexed": true,
          "internalType": "uint256",
          "name": "tokenId",
          "type": "uint256"
        }
      ],
      "name": "Approval",
      "type": "event"
    },
    {
      "anonymous": false,
      "inputs": [
        {
          "indexed": true,
          "internalType": "address",
          "name": "owner",
          "type": "address"
        },
        {
          "indexed": true,
          "internalType": "address",
          "name": "operator",
          "type": "address"
        },
        {
          "indexed": false,
          "internalType": "bool",
          "name": "approved",
          "type": "bool"
        }
      ],
      "name": "ApprovalForAll",
      "type": "event"
    },
    {
      "anonymous": false,
      "inputs": [
        {
          "indexed": true,
          "internalType": "address",
          "name": "previousOwner",
          "type": "address"
        },
        {
          "indexed": true,
          "internalType": "address",
          "name": "newOwner",
          "type": "address"
        }
      ],
      "name": "OwnershipTransferred",
      "type": "event"
    },
    {
      "anonymous": false,
      "inputs": [
        {
          "indexed": true,
          "internalType": "address",
          "name": "from",
          "type": "address"
        },
        {
          "indexed": true,
          "internalType": "address",
          "name": "to",
          "type": "address"
        },
        {
          "indexed": true,
          "internalType": "uint256",
          "name": "tokenId",
          "type": "uint256"
        }
      ],
      "name": "Transfer",
      "type": "event"
    },
    {
      "inputs": [
        {
          "internalType": "address",
          "name": "to",
          "type": "address"
        },
        {
          "internalType": "uint256",
          "name": "tokenId",
          "type": "uint256"
        }
      ],
      "name": "approve",
      "outputs": [],
      "stateMutability": "nonpayable",
      "type": "function"
    },
    {
      "inputs": [
        {
          "internalType": "address",
          "name": "owner",
          "type": "address"
        }
      ],
      "name": "balanceOf",
      "outputs": [
        {
          "internalType": "uint256",
          "name": "",
          "type": "uint256"
        }
      ],
      "stateMutability": "view",
      "type": "function",
      "constant": true
    },
    {
      "inputs": [],
      "name": "baseURI",
      "outputs": [
        {
          "internalType": "string",
          "name": "",
          "type": "string"
        }
      ],
      "stateMutability": "view",
      "type": "function",
      "constant": true
    },
    {
      "inputs": [
        {
          "internalType": "uint256",
          "name": "tokenId",
          "type": "uint256"
        }
      ],
      "name": "burn",
      "outputs": [],
      "stateMutability": "nonpayable",
      "type": "function"
    },
    {
      "inputs": [
        {
          "internalType": "uint256",
          "name": "",
          "type": "uint256"
        },
        {
          "internalType": "address",
          "name": "",
          "type": "address"
        }
      ],
      "name": "buyers",
      "outputs": [
        {
          "internalType": "bool",
          "name": "",
          "type": "bool"
        }
      ],
      "stateMutability": "view",
      "type": "function",
      "constant": true
    },
    {
      "inputs": [
        {
          "internalType": "uint256",
          "name": "tokenId",
          "type": "uint256"
        }
      ],
      "name": "getApproved",
      "outputs": [
        {
          "internalType": "address",
          "name": "",
          "type": "address"
        }
      ],
      "stateMutability": "view",
      "type": "function",
      "constant": true
    },
    {
      "inputs": [
        {
          "internalType": "address",
          "name": "owner",
          "type": "address"
        },
        {
          "internalType": "address",
          "name": "operator",
          "type": "address"
        }
      ],
      "name": "isApprovedForAll",
      "outputs": [
        {
          "internalType": "bool",
          "name": "",
          "type": "bool"
        }
      ],
      "stateMutability": "view",
      "type": "function",
      "constant": true
    },
    {
      "inputs": [
        {
          "internalType": "address",
          "name": "",
          "type": "address"
        }
      ],
      "name": "isAuthorized",
      "outputs": [
        {
          "internalType": "bool",
          "name": "",
          "type": "bool"
        }
      ],
      "stateMutability": "view",
      "type": "function",
      "constant": true
    },
    {
      "inputs": [],
      "name": "marketplace",
      "outputs": [
        {
          "internalType": "address",
          "name": "",
          "type": "address"
        }
      ],
      "stateMutability": "view",
      "type": "function",
      "constant": true
    },
    {
      "inputs": [],
      "name": "name",
      "outputs": [
        {
          "internalType": "string",
          "name": "",
          "type": "string"
        }
      ],
      "stateMutability": "view",
      "type": "function",
      "constant": true
    },
    {
      "inputs": [],
      "name": "owner",
      "outputs": [
        {
          "internalType": "address",
          "name": "",
          "type": "address"
        }
      ],
      "stateMutability": "view",
      "type": "function",
      "constant": true
    },
    {
      "inputs": [
        {
          "internalType": "uint256",
          "name": "tokenId",
          "type": "uint256"
        }
      ],
      "name": "ownerOf",
      "outputs": [
        {
          "internalType": "address",
          "name": "",
          "type": "address"
        }
      ],
      "stateMutability": "view",
      "type": "function",
      "constant": true
    },
    {
      "inputs": [
        {
          "internalType": "uint256",
          "name": "",
          "type": "uint256"
        },
        {
          "internalType": "uint256",
          "name": "",
          "type": "uint256"
        }
      ],
      "name": "points",
      "outputs": [
        {
          "internalType": "int256",
          "name": "latitude",
          "type": "int256"
        },
        {
          "internalType": "int256",
          "name": "longitude",
          "type": "int256"
        },
        {
          "internalType": "uint256",
          "name": "decimals",
          "type": "uint256"
        },
        {
          "internalType": "uint256",
          "name": "creationDate",
          "type": "uint256"
        },
        {
          "internalType": "uint256",
          "name": "updateDate",
          "type": "uint256"
        }
      ],
      "stateMutability": "view",
      "type": "function",
      "constant": true
    },
    {
      "inputs": [],
      "name": "renounceOwnership",
      "outputs": [],
      "stateMutability": "nonpayable",
      "type": "function"
    },
    {
      "inputs": [
        {
          "internalType": "address",
          "name": "from",
          "type": "address"
        },
        {
          "internalType": "address",
          "name": "to",
          "type": "address"
        },
        {
          "internalType": "uint256",
          "name": "tokenId",
          "type": "uint256"
        }
      ],
      "name": "safeTransferFrom",
      "outputs": [],
      "stateMutability": "nonpayable",
      "type": "function"
    },
    {
      "inputs": [
        {
          "internalType": "address",
          "name": "from",
          "type": "address"
        },
        {
          "internalType": "address",
          "name": "to",
          "type": "address"
        },
        {
          "internalType": "uint256",
          "name": "tokenId",
          "type": "uint256"
        },
        {
          "internalType": "bytes",
          "name": "_data",
          "type": "bytes"
        }
      ],
      "name": "safeTransferFrom",
      "outputs": [],
      "stateMutability": "nonpayable",
      "type": "function"
    },
    {
      "inputs": [
        {
          "internalType": "address",
          "name": "operator",
          "type": "address"
        },
        {
          "internalType": "bool",
          "name": "approved",
          "type": "bool"
        }
      ],
      "name": "setApprovalForAll",
      "outputs": [],
      "stateMutability": "nonpayable",
      "type": "function"
    },
    {
      "inputs": [
        {
          "internalType": "uint256",
          "name": "",
          "type": "uint256"
        },
        {
          "internalType": "uint256",
          "name": "",
          "type": "uint256"
        }
      ],
      "name": "species",
      "outputs": [
        {
          "internalType": "string",
          "name": "speciesAlias",
          "type": "string"
        },
        {
          "internalType": "string",
          "name": "scientificName",
          "type": "string"
        },
        {
          "internalType": "uint256",
          "name": "density",
          "type": "uint256"
        },
        {
          "internalType": "uint256",
          "name": "size",
          "type": "uint256"
        },
        {
          "internalType": "uint256",
          "name": "decimals",
          "type": "uint256"
        },
        {
          "internalType": "uint256",
          "name": "TCO2perSecond",
          "type": "uint256"
        },
        {
          "internalType": "uint256",
          "name": "TCO2perYear",
          "type": "uint256"
        },
        {
          "internalType": "uint256",
          "name": "landId",
          "type": "uint256"
        },
        {
          "internalType": "uint256",
          "name": "creationDate",
          "type": "uint256"
        },
        {
          "internalType": "uint256",
          "name": "updateDate",
          "type": "uint256"
        }
      ],
      "stateMutability": "view",
      "type": "function",
      "constant": true
    },
    {
      "inputs": [],
      "name": "symbol",
      "outputs": [
        {
          "internalType": "string",
          "name": "",
          "type": "string"
        }
      ],
      "stateMutability": "view",
      "type": "function",
      "constant": true
    },
    {
      "inputs": [
        {
          "internalType": "uint256",
          "name": "index",
          "type": "uint256"
        }
      ],
      "name": "tokenByIndex",
      "outputs": [
        {
          "internalType": "uint256",
          "name": "",
          "type": "uint256"
        }
      ],
      "stateMutability": "view",
      "type": "function",
      "constant": true
    },
    {
      "inputs": [
        {
          "internalType": "address",
          "name": "owner",
          "type": "address"
        },
        {
          "internalType": "uint256",
          "name": "index",
          "type": "uint256"
        }
      ],
      "name": "tokenOfOwnerByIndex",
      "outputs": [
        {
          "internalType": "uint256",
          "name": "",
          "type": "uint256"
        }
      ],
      "stateMutability": "view",
      "type": "function",
      "constant": true
    },
    {
      "inputs": [
        {
          "internalType": "uint256",
          "name": "",
          "type": "uint256"
        }
      ],
      "name": "totalBuyers",
      "outputs": [
        {
          "internalType": "uint256",
          "name": "",
          "type": "uint256"
        }
      ],
      "stateMutability": "view",
      "type": "function",
      "constant": true
    },
    {
      "inputs": [
        {
          "internalType": "uint256",
          "name": "",
          "type": "uint256"
        }
      ],
      "name": "totalPoints",
      "outputs": [
        {
          "internalType": "uint256",
          "name": "",
          "type": "uint256"
        }
      ],
      "stateMutability": "view",
      "type": "function",
      "constant": true
    },
    {
      "inputs": [
        {
          "internalType": "uint256",
          "name": "",
          "type": "uint256"
        }
      ],
      "name": "totalSpecies",
      "outputs": [
        {
          "internalType": "uint256",
          "name": "",
          "type": "uint256"
        }
      ],
      "stateMutability": "view",
      "type": "function",
      "constant": true
    },
    {
      "inputs": [],
      "name": "totalSupply",
      "outputs": [
        {
          "internalType": "uint256",
          "name": "",
          "type": "uint256"
        }
      ],
      "stateMutability": "view",
      "type": "function",
      "constant": true
    },
    {
      "inputs": [
        {
          "internalType": "address",
          "name": "from",
          "type": "address"
        },
        {
          "internalType": "address",
          "name": "to",
          "type": "address"
        },
        {
          "internalType": "uint256",
          "name": "tokenId",
          "type": "uint256"
        }
      ],
      "name": "transferFrom",
      "outputs": [],
      "stateMutability": "nonpayable",
      "type": "function"
    },
    {
      "inputs": [
        {
          "internalType": "address",
          "name": "newOwner",
          "type": "address"
        }
      ],
      "name": "transferOwnership",
      "outputs": [],
      "stateMutability": "nonpayable",
      "type": "function"
    },
    {
      "inputs": [
        {
          "internalType": "address",
          "name": "to",
          "type": "address"
        },
        {
          "internalType": "string",
          "name": "name",
          "type": "string"
        },
        {
          "internalType": "string",
          "name": "identifier",
          "type": "string"
        },
        {
          "internalType": "address",
          "name": "landOwner",
          "type": "address"
        },
        {
          "internalType": "string",
          "name": "landOwnerAlias",
          "type": "string"
        },
        {
          "internalType": "uint256",
          "name": "decimals",
          "type": "uint256"
        },
        {
          "internalType": "uint256",
          "name": "size",
          "type": "uint256"
        },
        {
          "internalType": "string",
          "name": "country",
          "type": "string"
        },
        {
          "internalType": "string",
          "name": "stateOrRegion",
          "type": "string"
        },
        {
          "internalType": "string",
          "name": "city",
          "type": "string"
        },
        {
          "internalType": "uint256",
          "name": "initialTCO2",
          "type": "uint256"
        }
      ],
      "name": "safeMint",
      "outputs": [],
      "stateMutability": "nonpayable",
      "type": "function"
    },
    {
      "inputs": [
        {
          "internalType": "address",
          "name": "manager",
          "type": "address"
        }
      ],
      "name": "authorize",
      "outputs": [],
      "stateMutability": "nonpayable",
      "type": "function"
    },
    {
      "inputs": [
        {
          "internalType": "address",
          "name": "_marketplace",
          "type": "address"
        }
      ],
      "name": "setMarketplace",
      "outputs": [],
      "stateMutability": "nonpayable",
      "type": "function"
    },
    {
      "inputs": [
        {
          "internalType": "uint256",
          "name": "tokenId",
          "type": "uint256"
        }
      ],
      "name": "isRemoved",
      "outputs": [
        {
          "internalType": "bool",
          "name": "",
          "type": "bool"
        }
      ],
      "stateMutability": "view",
      "type": "function",
      "constant": true
    },
    {
      "inputs": [
        {
          "internalType": "uint256",
          "name": "tokenId",
          "type": "uint256"
        }
      ],
      "name": "isPublished",
      "outputs": [
        {
          "internalType": "bool",
          "name": "",
          "type": "bool"
        }
      ],
      "stateMutability": "view",
      "type": "function",
      "constant": true
    },
    {
      "inputs": [
        {
          "internalType": "uint256",
          "name": "tokenId",
          "type": "uint256"
        },
        {
          "internalType": "enum State",
          "name": "_state",
          "type": "uint8"
        }
      ],
      "name": "updateLandState",
      "outputs": [],
      "stateMutability": "nonpayable",
      "type": "function"
    },
    {
      "inputs": [
        {
          "internalType": "uint256",
          "name": "tokenId",
          "type": "uint256"
        },
        {
          "internalType": "address",
          "name": "newLandOwner",
          "type": "address"
        },
        {
          "internalType": "string",
          "name": "name",
          "type": "string"
        }
      ],
      "name": "updateLandOwner",
      "outputs": [],
      "stateMutability": "nonpayable",
      "type": "function"
    },
    {
      "inputs": [
        {
          "internalType": "uint256",
          "name": "tokenId",
          "type": "uint256"
        },
        {
          "internalType": "address",
          "name": "newBuyer",
          "type": "address"
        }
      ],
      "name": "addBuyer",
      "outputs": [],
      "stateMutability": "nonpayable",
      "type": "function"
    },
    {
      "inputs": [
        {
          "internalType": "uint256",
          "name": "tokenId",
          "type": "uint256"
        },
        {
          "internalType": "string",
          "name": "newName",
          "type": "string"
        }
      ],
      "name": "updateName",
      "outputs": [],
      "stateMutability": "nonpayable",
      "type": "function"
    },
    {
      "inputs": [
        {
          "internalType": "uint256",
          "name": "tokenId",
          "type": "uint256"
        }
      ],
      "name": "landOwnerOf",
      "outputs": [
        {
          "internalType": "address",
          "name": "",
          "type": "address"
        }
      ],
      "stateMutability": "view",
      "type": "function",
      "constant": true
    },
    {
      "inputs": [
        {
          "internalType": "uint256",
          "name": "tokenId",
          "type": "uint256"
        },
        {
          "internalType": "address",
          "name": "buyer",
          "type": "address"
        }
      ],
      "name": "isBuyerOf",
      "outputs": [
        {
          "internalType": "bool",
          "name": "",
          "type": "bool"
        }
      ],
      "stateMutability": "view",
      "type": "function",
      "constant": true
    },
    {
      "inputs": [
        {
          "internalType": "uint256",
          "name": "tokenId",
          "type": "uint256"
        }
      ],
      "name": "initialTCO2Of",
      "outputs": [
        {
          "internalType": "uint256",
          "name": "",
          "type": "uint256"
        }
      ],
      "stateMutability": "view",
      "type": "function",
      "constant": true
    },
    {
      "inputs": [
        {
          "internalType": "uint256",
          "name": "tokenId",
          "type": "uint256"
        }
      ],
      "name": "stateOf",
      "outputs": [
        {
          "internalType": "enum State",
          "name": "",
          "type": "uint8"
        }
      ],
      "stateMutability": "view",
      "type": "function",
      "constant": true
    },
    {
      "inputs": [
        {
          "internalType": "address",
          "name": "from",
          "type": "address"
        },
        {
          "internalType": "uint256",
          "name": "tokenId",
          "type": "uint256"
        }
      ],
      "name": "safeTransferToMarketplace",
      "outputs": [],
      "stateMutability": "nonpayable",
      "type": "function"
    },
    {
      "inputs": [
        {
          "internalType": "uint256",
          "name": "tokenId",
          "type": "uint256"
        }
      ],
      "name": "getNFTInfo",
      "outputs": [
        {
          "components": [
            {
              "internalType": "string",
              "name": "name",
              "type": "string"
            },
            {
              "internalType": "string",
              "name": "identifier",
              "type": "string"
            },
            {
              "internalType": "address",
              "name": "landOwner",
              "type": "address"
            },
            {
              "internalType": "string",
              "name": "landOwnerAlias",
              "type": "string"
            },
            {
              "internalType": "uint256",
              "name": "decimals",
              "type": "uint256"
            },
            {
              "internalType": "uint256",
              "name": "size",
              "type": "uint256"
            },
            {
              "internalType": "string",
              "name": "country",
              "type": "string"
            },
            {
              "internalType": "string",
              "name": "stateOrRegion",
              "type": "string"
            },
            {
              "internalType": "string",
              "name": "city",
              "type": "string"
            },
            {
              "internalType": "enum State",
              "name": "state",
              "type": "uint8"
            },
            {
              "internalType": "uint256",
              "name": "initialTCO2perYear",
              "type": "uint256"
            },
            {
              "internalType": "uint256",
              "name": "soldTCO2",
              "type": "uint256"
            },
            {
              "internalType": "uint256",
              "name": "creationDate",
              "type": "uint256"
            }
          ],
          "internalType": "struct NFTInfo",
          "name": "",
          "type": "tuple"
        }
      ],
      "stateMutability": "view",
      "type": "function",
      "constant": true
    },
    {
      "inputs": [
        {
          "internalType": "address",
          "name": "landOwner",
          "type": "address"
        },
        {
          "internalType": "uint256",
          "name": "index",
          "type": "uint256"
        }
      ],
      "name": "landOfOwnerByIndex",
      "outputs": [
        {
          "internalType": "uint256",
          "name": "",
          "type": "uint256"
        }
      ],
      "stateMutability": "view",
      "type": "function",
      "constant": true
    },
    {
      "inputs": [
        {
          "internalType": "address",
          "name": "landOwner",
          "type": "address"
        }
      ],
      "name": "totalLandOwnedOf",
      "outputs": [
        {
          "internalType": "uint256",
          "name": "",
          "type": "uint256"
        }
      ],
      "stateMutability": "view",
      "type": "function",
      "constant": true
    },
    {
      "inputs": [
        {
          "internalType": "uint256",
          "name": "tokenId",
          "type": "uint256"
        }
      ],
      "name": "totalSpeciesOf",
      "outputs": [
        {
          "internalType": "uint256",
          "name": "",
          "type": "uint256"
        }
      ],
      "stateMutability": "view",
      "type": "function",
      "constant": true
    },
    {
      "inputs": [
        {
          "internalType": "uint256",
          "name": "tokenId",
          "type": "uint256"
        }
      ],
      "name": "totalPointsOf",
      "outputs": [
        {
          "internalType": "uint256",
          "name": "",
          "type": "uint256"
        }
      ],
      "stateMutability": "view",
      "type": "function",
      "constant": true
    },
    {
      "inputs": [
        {
          "internalType": "uint256",
          "name": "tokenId",
          "type": "uint256"
        },
        {
          "components": [
            {
              "internalType": "string",
              "name": "speciesAlias",
              "type": "string"
            },
            {
              "internalType": "string",
              "name": "scientificName",
              "type": "string"
            },
            {
              "internalType": "uint256",
              "name": "density",
              "type": "uint256"
            },
            {
              "internalType": "uint256",
              "name": "size",
              "type": "uint256"
            },
            {
              "internalType": "uint256",
              "name": "decimals",
              "type": "uint256"
            },
            {
              "internalType": "uint256",
              "name": "TCO2perSecond",
              "type": "uint256"
            },
            {
              "internalType": "uint256",
              "name": "TCO2perYear",
              "type": "uint256"
            },
            {
              "internalType": "uint256",
              "name": "landId",
              "type": "uint256"
            },
            {
              "internalType": "uint256",
              "name": "creationDate",
              "type": "uint256"
            },
            {
              "internalType": "uint256",
              "name": "updateDate",
              "type": "uint256"
            }
          ],
          "internalType": "struct Species[]",
          "name": "_species",
          "type": "tuple[]"
        }
      ],
      "name": "setSpecies",
      "outputs": [],
      "stateMutability": "nonpayable",
      "type": "function"
    },
    {
      "inputs": [
        {
          "internalType": "uint256",
          "name": "tokenId",
          "type": "uint256"
        },
        {
          "components": [
            {
              "internalType": "string",
              "name": "speciesAlias",
              "type": "string"
            },
            {
              "internalType": "string",
              "name": "scientificName",
              "type": "string"
            },
            {
              "internalType": "uint256",
              "name": "density",
              "type": "uint256"
            },
            {
              "internalType": "uint256",
              "name": "size",
              "type": "uint256"
            },
            {
              "internalType": "uint256",
              "name": "decimals",
              "type": "uint256"
            },
            {
              "internalType": "uint256",
              "name": "TCO2perSecond",
              "type": "uint256"
            },
            {
              "internalType": "uint256",
              "name": "TCO2perYear",
              "type": "uint256"
            },
            {
              "internalType": "uint256",
              "name": "landId",
              "type": "uint256"
            },
            {
              "internalType": "uint256",
              "name": "creationDate",
              "type": "uint256"
            },
            {
              "internalType": "uint256",
              "name": "updateDate",
              "type": "uint256"
            }
          ],
          "internalType": "struct Species",
          "name": "_species",
          "type": "tuple"
        }
      ],
      "name": "addSpecies",
      "outputs": [],
      "stateMutability": "nonpayable",
      "type": "function"
    },
    {
      "inputs": [
        {
          "internalType": "uint256",
          "name": "tokenId",
          "type": "uint256"
        },
        {
          "internalType": "uint256",
          "name": "speciesIndex",
          "type": "uint256"
        },
        {
          "components": [
            {
              "internalType": "string",
              "name": "speciesAlias",
              "type": "string"
            },
            {
              "internalType": "string",
              "name": "scientificName",
              "type": "string"
            },
            {
              "internalType": "uint256",
              "name": "density",
              "type": "uint256"
            },
            {
              "internalType": "uint256",
              "name": "size",
              "type": "uint256"
            },
            {
              "internalType": "uint256",
              "name": "decimals",
              "type": "uint256"
            },
            {
              "internalType": "uint256",
              "name": "TCO2perSecond",
              "type": "uint256"
            },
            {
              "internalType": "uint256",
              "name": "TCO2perYear",
              "type": "uint256"
            },
            {
              "internalType": "uint256",
              "name": "landId",
              "type": "uint256"
            },
            {
              "internalType": "uint256",
              "name": "creationDate",
              "type": "uint256"
            },
            {
              "internalType": "uint256",
              "name": "updateDate",
              "type": "uint256"
            }
          ],
          "internalType": "struct Species",
          "name": "_species",
          "type": "tuple"
        }
      ],
      "name": "updateSpecies",
      "outputs": [],
      "stateMutability": "nonpayable",
      "type": "function"
    },
    {
      "inputs": [
        {
          "internalType": "uint256",
          "name": "tokenId",
          "type": "uint256"
        },
        {
          "components": [
            {
              "internalType": "int256",
              "name": "latitude",
              "type": "int256"
            },
            {
              "internalType": "int256",
              "name": "longitude",
              "type": "int256"
            },
            {
              "internalType": "uint256",
              "name": "decimals",
              "type": "uint256"
            },
            {
              "internalType": "uint256",
              "name": "creationDate",
              "type": "uint256"
            },
            {
              "internalType": "uint256",
              "name": "updateDate",
              "type": "uint256"
            }
          ],
          "internalType": "struct GeoSpatialPoint[]",
          "name": "_points",
          "type": "tuple[]"
        }
      ],
      "name": "setPoints",
      "outputs": [],
      "stateMutability": "nonpayable",
      "type": "function"
    },
    {
      "inputs": [
        {
          "internalType": "uint256",
          "name": "tokenId",
          "type": "uint256"
        },
        {
          "components": [
            {
              "internalType": "int256",
              "name": "latitude",
              "type": "int256"
            },
            {
              "internalType": "int256",
              "name": "longitude",
              "type": "int256"
            },
            {
              "internalType": "uint256",
              "name": "decimals",
              "type": "uint256"
            },
            {
              "internalType": "uint256",
              "name": "creationDate",
              "type": "uint256"
            },
            {
              "internalType": "uint256",
              "name": "updateDate",
              "type": "uint256"
            }
          ],
          "internalType": "struct GeoSpatialPoint",
          "name": "point",
          "type": "tuple"
        }
      ],
      "name": "addPoint",
      "outputs": [],
      "stateMutability": "nonpayable",
      "type": "function"
    },
    {
      "inputs": [
        {
          "internalType": "uint256",
          "name": "tokenId",
          "type": "uint256"
        },
        {
          "internalType": "uint256",
          "name": "pointIndex",
          "type": "uint256"
        },
        {
          "components": [
            {
              "internalType": "int256",
              "name": "latitude",
              "type": "int256"
            },
            {
              "internalType": "int256",
              "name": "longitude",
              "type": "int256"
            },
            {
              "internalType": "uint256",
              "name": "decimals",
              "type": "uint256"
            },
            {
              "internalType": "uint256",
              "name": "creationDate",
              "type": "uint256"
            },
            {
              "internalType": "uint256",
              "name": "updateDate",
              "type": "uint256"
            }
          ],
          "internalType": "struct GeoSpatialPoint",
          "name": "point",
          "type": "tuple"
        }
      ],
      "name": "updatePoint",
      "outputs": [],
      "stateMutability": "nonpayable",
      "type": "function"
    },
    {
      "inputs": [
        {
          "internalType": "uint256",
          "name": "tokenId",
          "type": "uint256"
        },
        {
          "internalType": "uint256",
          "name": "amount",
          "type": "uint256"
        }
      ],
      "name": "offsetEmissions",
      "outputs": [],
      "stateMutability": "nonpayable",
      "type": "function"
    },
    {
      "inputs": [
        {
          "internalType": "uint256",
          "name": "tokenId",
          "type": "uint256"
        },
        {
          "internalType": "uint256",
          "name": "index",
          "type": "uint256"
        }
      ],
      "name": "totalVCUBySpecies",
      "outputs": [
        {
          "internalType": "uint256",
          "name": "",
          "type": "uint256"
        }
      ],
      "stateMutability": "view",
      "type": "function",
      "constant": true
    },
    {
      "inputs": [
        {
          "internalType": "uint256",
          "name": "tokenId",
          "type": "uint256"
        }
      ],
      "name": "totalVCUSEmitedBy",
      "outputs": [
        {
          "internalType": "uint256",
          "name": "",
          "type": "uint256"
        }
      ],
      "stateMutability": "view",
      "type": "function",
      "constant": true
    },
    {
      "inputs": [
        {
          "internalType": "uint256",
          "name": "tokenId",
          "type": "uint256"
        }
      ],
      "name": "getVCUSLeft",
      "outputs": [
        {
          "internalType": "uint256",
          "name": "",
          "type": "uint256"
        }
      ],
      "stateMutability": "view",
      "type": "function",
      "constant": true
    },
    {
      "inputs": [
        {
          "internalType": "uint256",
          "name": "timestamp1",
          "type": "uint256"
        },
        {
          "internalType": "uint256",
          "name": "timestamp2",
          "type": "uint256"
        }
      ],
      "name": "timestampDifference",
      "outputs": [
        {
          "internalType": "uint256",
          "name": "",
          "type": "uint256"
        }
      ],
      "stateMutability": "pure",
      "type": "function",
      "constant": true
    },
    {
      "inputs": [
        {
          "internalType": "string",
          "name": "_baseURI",
          "type": "string"
        }
      ],
      "name": "setBaseURI",
      "outputs": [],
      "stateMutability": "nonpayable",
      "type": "function"
    },
    {
      "inputs": [
        {
          "internalType": "uint256",
          "name": "tokenId",
          "type": "uint256"
        }
      ],
      "name": "tokenURI",
      "outputs": [
        {
          "internalType": "string",
          "name": "",
          "type": "string"
        }
      ],
      "stateMutability": "view",
      "type": "function",
      "constant": true
    },
    {
      "inputs": [
        {
          "internalType": "bytes4",
          "name": "interfaceId",
          "type": "bytes4"
        }
      ],
      "name": "supportsInterface",
      "outputs": [
        {
          "internalType": "bool",
          "name": "",
          "type": "bool"
        }
      ],
      "stateMutability": "view",
      "type": "function",
      "constant": true
    }
  ],
  "bytecode": "0x60806040523480156200001157600080fd5b50604080518082018252600e81526d12dbdb1bdc8813185b990813919560921b60208083019182528351808501909452600584526412d3185b9960da1b90840152815191929162000065916000916200010e565b5080516200007b9060019060208401906200010e565b5050506200009862000092620000b860201b60201c565b620000bc565b336000908152601860205260409020805460ff19166001179055620001f1565b3390565b600a80546001600160a01b038381166001600160a01b0319831681179093556040519116919082907f8be0079c531659141344cd1fd0a4f28419497f9722a3daafe3b4186f6b6457e090600090a35050565b8280546200011c90620001b4565b90600052602060002090601f0160209004810192826200014057600085556200018b565b82601f106200015b57805160ff19168380011785556200018b565b828001600101855582156200018b579182015b828111156200018b5782518255916020019190600101906200016e565b50620001999291506200019d565b5090565b5b808211156200019957600081556001016200019e565b600281046001821680620001c957607f821691505b60208210811415620001eb57634e487b7160e01b600052602260045260246000fd5b50919050565b61448080620002016000396000f3fe608060405234801561001057600080fd5b50600436106102e45760003560e01c80636c0360eb11610189578063b14745e4116100df578063b14745e414610655578063b6a5d7de14610668578063b88d4fde1461067b578063c42625a01461068e578063c87b56dd146106a1578063d188929f146106b4578063d72448ed146106d4578063d7b359d5146106e7578063d8d31fc1146106fa578063e3cdda391461070d578063e985e9c514610731578063ef2a174714610744578063f2fde38b14610757578063fba2f1b91461076a578063fe9fbb801461077d576102e4565b80636c0360eb146105595780636ed03162146105615780636f4ffd211461057457806370624aff1461058757806370a082311461059a578063715018a6146105ad57806373ad6c2d146105b5578063746d1a6e146105c85780637b156fb5146105f15780638048fc0e146106045780638da5cb5b1461061757806395d89b411461061f578063a0a8318914610627578063a22cb4651461063a578063abc8c7af1461064d576102e4565b80632fc3deff1161023e5780632fc3deff1461043c578063313a249b1461044f57806338345d9514610462578063388fc40c146104755780634032e7131461048857806342842e0e1461049b57806342966c68146104ae57806348743400146104c15780634f69ab8c146104d45780634f6ccce7146104e757806353e76f2c146104fa57806355f804b31461050d5780635c94c545146105205780636352211e146105335780636481514e14610546576102e4565b806301ffc9a7146102e957806306fdde031461031257806307f0ea5814610327578063081812fc14610347578063095ea7b314610367578063128e5e581461037c578063131a7e241461038f57806317ff4c94146103af57806318160ddd146103c257806323b872dd146103ca57806323e0547f146103dd57806324c05772146103f0578063278e3aad146104035780632f745c59146104165780632fa5073714610429575b600080fd5b6102fc6102f7366004613423565b610790565b6040516103099190613922565b60405180910390f35b61031a6107a3565b604051610309919061395e565b61033a61033536600461348d565b610835565b60405161030991906142e3565b61035a61035536600461348d565b610847565b60405161030991906138d1565b61037a6103753660046133fa565b610893565b005b61033a61038a36600461348d565b61092b565b6103a261039d36600461348d565b610940565b604051610309919061392d565b61037a6103bd3660046136b4565b610958565b61033a610a0c565b61037a6103d83660046131d4565b610a12565b61037a6103eb3660046136d7565b610a4a565b61037a6103fe366004613732565b610b81565b61037a610411366004613767565b610c30565b61033a6104243660046133fa565b610d60565b61037a6104373660046132c1565b610db5565b61033a61044a36600461348d565b611002565b61033a61045d36600461348d565b611014565b61033a610470366004613188565b611026565b6102fc6104833660046134a5565b611041565b61037a6104963660046134c7565b611061565b61037a6104a93660046131d4565b6110ff565b61037a6104bc36600461348d565b61111a565b61035a6104cf36600461348d565b61114d565b61037a6104e2366004613649565b61116b565b61033a6104f536600461348d565b611246565b61037a610508366004613670565b6112a1565b61037a61051b36600461345b565b61131b565b61033a61052e366004613711565b611371565b61035a61054136600461348d565b611384565b61033a6105543660046133fa565b6113b9565b61031a611416565b6102fc61056f3660046134a5565b6114a4565b61033a61058236600461348d565b6114cf565b61033a610595366004613711565b61151f565b61033a6105a8366004613188565b61157a565b61037a6115be565b61037a6105c3366004613188565b611609565b6105db6105d6366004613711565b611672565b6040516103099a99989796959493929190613971565b6102fc6105ff36600461348d565b6117d9565b61033a61061236600461348d565b611819565b61035a611844565b61031a611853565b6102fc61063536600461348d565b611862565b61037a610648366004613287565b61186b565b61035a61187d565b61037a61066336600461351b565b61188c565b61037a610676366004613188565b611a2f565b61037a61068936600461320f565b611a97565b61033a61069c36600461348d565b611ad0565b61031a6106af36600461348d565b611ae2565b6106c76106c236600461348d565b611b48565b60405161030991906141c3565b61037a6106e23660046133fa565b611f73565b61037a6106f53660046135c7565b612024565b61037a610708366004613711565b612318565b61072061071b366004613711565b612393565b60405161030995949392919061393b565b6102fc61073f3660046131a2565b6123cd565b61037a6107523660046134a5565b6123fb565b61037a610765366004613188565b612498565b61033a61077836600461348d565b612506565b6102fc61078b366004613188565b612518565b600061079b8261252d565b90505b919050565b6060600080546107b290614392565b80601f01602080910402602001604051908101604052809291908181526020018280546107de90614392565b801561082b5780601f106108005761010080835404028352916020019161082b565b820191906000526020600020905b81548152906001019060200180831161080e57829003601f168201915b5050505050905090565b60009081526017602052604090205490565b600061085282612552565b6108775760405162461bcd60e51b815260040161086e90613e9e565b60405180910390fd5b506000908152600460205260409020546001600160a01b031690565b600061089e82611384565b9050806001600160a01b0316836001600160a01b031614156108d25760405162461bcd60e51b815260040161086e9061404b565b806001600160a01b03166108e461256f565b6001600160a01b0316148061090057506109008161073f61256f565b61091c5760405162461bcd60e51b815260040161086e90613d7e565b6109268383612573565b505050565b6000908152600e60205260409020600a015490565b6000908152600e602052604090206009015460ff1690565b3360009081526018602052604090205460ff166109875760405162461bcd60e51b815260040161086e90613a6a565b8161099181612552565b6109ad5760405162461bcd60e51b815260040161086e90614129565b600083815260176020818152604080842080548751601685528387208288528552838720908155888501516001820155928801516002909301929092558785529290915281549092909190610a01836143cd565b919050555050505050565b60085490565b610a23610a1d61256f565b826125e1565b610a3f5760405162461bcd60e51b815260040161086e9061408c565b610926838383612666565b3360009081526018602052604090205460ff16610a795760405162461bcd60e51b815260040161086e90613a6a565b81610a8381612552565b610a9f5760405162461bcd60e51b815260040161086e90614129565b6000610aaa84611ad0565b8351600086815260146020908152604080832085845282529091208251939450610ada9390929190910190612e9f565b506020808401516000868152601483526040808220858352845290208151610b0b9360019092019290910190612e9f565b5060408381015160008681526014602090815283822085835281528382206002810193909355606087015160038401556080870151600484015560c087015160068401556007830188905542600884015560a08701516005909301929092558681526015909152908120805491610a01836143cd565b3360009081526018602052604090205460ff16610bb05760405162461bcd60e51b815260040161086e90613a6a565b82610bba81612552565b610bd65760405162461bcd60e51b815260040161086e90614129565b610be08385612781565b610bfc5760405162461bcd60e51b815260040161086e906139db565b5080516000938452601660209081526040808620948652938152938390209081559281015160018401550151600290910155565b3360009081526018602052604090205460ff16610c5f5760405162461bcd60e51b815260040161086e90613a6a565b82610c6981612552565b610c855760405162461bcd60e51b815260040161086e90614129565b610c8f83856127a4565b610cab5760405162461bcd60e51b815260040161086e90613a22565b8151600085815260146020908152604080832087845282529091208251610cd793919290910190612e9f565b506020808301516000868152601483526040808220878352845290208151610d089360019092019290910190612e9f565b505060408181015160008581526014602090815283822095825294909452922060028101929092556060810151600383015560c08101516006830155600782019290925542600982015560a090910151600590910155565b6000610d6b8361157a565b8210610d895760405162461bcd60e51b815260040161086e90613b44565b506001600160a01b03821660009081526006602090815260408083208484529091529020545b92915050565b3360009081526018602052604090205460ff16610de45760405162461bcd60e51b815260040161086e90613a6a565b6000610df0600b6127af565b9050610dfc600b6127b3565b610e068c826127bc565b6000818152600e602090815260409091208c51610e25928e0190612e9f565b506000818152600e602090815260409091208b51610e4b926001909201918d0190612e9f565b506000818152600e602090815260409091206002810180546001600160a01b0319166001600160a01b038d161790558951610e8e926003909201918b0190612e9f565b506000818152600e6020908152604090912060048101899055600581018890558651610ec292600690920191880190612e9f565b506000818152600e602090815260409091208551610ee892600790920191870190612e9f565b506000818152600e602090815260409091208451610f0e92600890920191860190612e9f565b506000818152600e60205260408120600a810184905542600c820155600901805460ff191660018302179055506000601160008b6001600160a01b03166001600160a01b0316815260200190815260200160002054905081600f60008f6001600160a01b03166001600160a01b03168152602001908152602001600020600083815260200190815260200160002081905550806010600084815260200190815260200160002081905550601160008e6001600160a01b03166001600160a01b031681526020019081526020016000206000815480929190610fee906143cd565b919050555050505050505050505050505050565b60156020526000908152604090205481565b60176020526000908152604090205481565b6001600160a01b031660009081526011602052604090205490565b601260209081526000928352604080842090915290825290205460ff1681565b3360009081526018602052604090205460ff166110905760405162461bcd60e51b815260040161086e90613a6a565b8261109a81612552565b6110b65760405162461bcd60e51b815260040161086e90614129565b6000848152600e602090815260409091206002810180546001600160a01b0319166001600160a01b03871617905583516110f892600390920191850190612e9f565b5050505050565b61092683838360405180602001604052806000815250611a97565b611125610a1d61256f565b6111415760405162461bcd60e51b815260040161086e90614173565b61114a816127d6565b50565b6000908152600e60205260409020600201546001600160a01b031690565b8161117581612552565b6111915760405162461bcd60e51b815260040161086e90614129565b3360009081526018602052604090205460ff166111c05760405162461bcd60e51b815260040161086e90613a6a565b60008260038111156111e257634e487b7160e01b600052602160045260246000fd5b14156112005760405162461bcd60e51b815260040161086e90613f1f565b6000838152600e60205260409020600901805483919060ff1916600183600381111561123c57634e487b7160e01b600052602160045260246000fd5b0217905550505050565b6000611250610a0c565b821061126e5760405162461bcd60e51b815260040161086e906140dd565b6008828154811061128f57634e487b7160e01b600052603260045260246000fd5b90600052602060002001549050919050565b3360009081526018602052604090205460ff166112d05760405162461bcd60e51b815260040161086e90613a6a565b816112da81612552565b6112f65760405162461bcd60e51b815260040161086e90614129565b6000838152600e60209081526040909120835161131592850190612e9f565b50505050565b61132361256f565b6001600160a01b0316611334611844565b6001600160a01b03161461135a5760405162461bcd60e51b815260040161086e90613eea565b805161136d90600d906020840190612e9f565b5050565b600061137d838361437b565b9392505050565b6000818152600260205260408120546001600160a01b03168061079b5760405162461bcd60e51b815260040161086e90613e20565b60006113c48361157a565b6113cf906001614344565b82106113ed5760405162461bcd60e51b815260040161086e90613b0d565b506001600160a01b03919091166000908152600f60209081526040808320938352929052205490565b600d805461142390614392565b80601f016020809104026020016040519081016040528092919081815260200182805461144f90614392565b801561149c5780601f106114715761010080835404028352916020019161149c565b820191906000526020600020905b81548152906001019060200180831161147f57829003601f168201915b505050505081565b60009182526012602090815260408084206001600160a01b0393909316845291905290205460ff1690565b6000806114db83611ad0565b90506000805b828110156115175760006114f5868361151f565b90506115018184614344565b925050808061150f906143cd565b9150506114e1565b509392505050565b6000828152601460209081526040808320848452909152812060080154816115478242611371565b6000868152601460209081526040808320888452909152902060050154909150611571908261435c565b95945050505050565b60006001600160a01b0382166115a25760405162461bcd60e51b815260040161086e90613dd6565b506001600160a01b031660009081526003602052604090205490565b6115c661256f565b6001600160a01b03166115d7611844565b6001600160a01b0316146115fd5760405162461bcd60e51b815260040161086e90613eea565b611607600061286b565b565b3360009081526018602052604090205460ff166116385760405162461bcd60e51b815260040161086e90613a6a565b600c80546001600160a01b0319166001600160a01b039283161790819055166000908152601860205260409020805460ff19166001179055565b601460209081526000928352604080842090915290825290208054819061169890614392565b80601f01602080910402602001604051908101604052809291908181526020018280546116c490614392565b80156117115780601f106116e657610100808354040283529160200191611711565b820191906000526020600020905b8154815290600101906020018083116116f457829003601f168201915b50505050509080600101805461172690614392565b80601f016020809104026020016040519081016040528092919081815260200182805461175290614392565b801561179f5780601f106117745761010080835404028352916020019161179f565b820191906000526020600020905b81548152906001019060200180831161178257829003601f168201915b505050505090806002015490806003015490806004015490806005015490806006015490806007015490806008015490806009015490508a565b600060035b6000838152600e602052604090206009015460ff16600381111561181257634e487b7160e01b600052602160045260246000fd5b1492915050565b600080611825836114cf565b6000848152600e60205260409020600b015490915061137d908261437b565b600a546001600160a01b031690565b6060600180546107b290614392565b600060026117de565b61136d61187661256f565b83836128bd565b600c546001600160a01b031681565b3360009081526018602052604090205460ff166118bb5760405162461bcd60e51b815260040161086e90613a6a565b816118c581612552565b6118e15760405162461bcd60e51b815260040161086e90614129565b6118ea83610835565b156119075760405162461bcd60e51b815260040161086e90613fee565b815160005b818110156110f85783818151811061193457634e487b7160e01b600052603260045260246000fd5b6020908102919091018101515160008781526016835260408082208583529093529190912055835184908290811061197c57634e487b7160e01b600052603260045260246000fd5b6020908102919091018101518101516000878152601683526040808220858352909352919091206001015583518490829081106119c957634e487b7160e01b600052603260045260246000fd5b602090810291909101810151604090810151600088815260168452828120858252845282812060028101929092554260039092019190915587815260179092528120805491611a17836143cd565b91905055508080611a27906143cd565b91505061190c565b611a3761256f565b6001600160a01b0316611a48611844565b6001600160a01b031614611a6e5760405162461bcd60e51b815260040161086e90613eea565b6001600160a01b03166000908152601860205260409020805460ff19811660ff90911615179055565b611aa8611aa261256f565b836125e1565b611ac45760405162461bcd60e51b815260040161086e9061408c565b61131584848484612960565b60009081526015602052604090205490565b6060611aed82612552565b611b095760405162461bcd60e51b815260040161086e90613f9f565b600d600e6000848152602001908152602001600020600101604051602001611b329291906138bc565b6040516020818303038152906040529050919050565b611b50612f23565b6000828152600e60205260409081902081516101a08101909252805482908290611b7990614392565b80601f0160208091040260200160405190810160405280929190818152602001828054611ba590614392565b8015611bf25780601f10611bc757610100808354040283529160200191611bf2565b820191906000526020600020905b815481529060010190602001808311611bd557829003601f168201915b50505050508152602001600182018054611c0b90614392565b80601f0160208091040260200160405190810160405280929190818152602001828054611c3790614392565b8015611c845780601f10611c5957610100808354040283529160200191611c84565b820191906000526020600020905b815481529060010190602001808311611c6757829003601f168201915b505050918352505060028201546001600160a01b03166020820152600382018054604090920191611cb490614392565b80601f0160208091040260200160405190810160405280929190818152602001828054611ce090614392565b8015611d2d5780601f10611d0257610100808354040283529160200191611d2d565b820191906000526020600020905b815481529060010190602001808311611d1057829003601f168201915b505050505081526020016004820154815260200160058201548152602001600682018054611d5a90614392565b80601f0160208091040260200160405190810160405280929190818152602001828054611d8690614392565b8015611dd35780601f10611da857610100808354040283529160200191611dd3565b820191906000526020600020905b815481529060010190602001808311611db657829003601f168201915b50505050508152602001600782018054611dec90614392565b80601f0160208091040260200160405190810160405280929190818152602001828054611e1890614392565b8015611e655780601f10611e3a57610100808354040283529160200191611e65565b820191906000526020600020905b815481529060010190602001808311611e4857829003601f168201915b50505050508152602001600882018054611e7e90614392565b80601f0160208091040260200160405190810160405280929190818152602001828054611eaa90614392565b8015611ef75780601f10611ecc57610100808354040283529160200191611ef7565b820191906000526020600020905b815481529060010190602001808311611eda57829003601f168201915b5050509183525050600982015460209091019060ff166003811115611f2c57634e487b7160e01b600052602160045260246000fd5b6003811115611f4b57634e487b7160e01b600052602160045260246000fd5b8152600a8201546020820152600b8201546040820152600c9091015460609091015292915050565b80611f7d81612552565b611f995760405162461bcd60e51b815260040161086e90614129565b3360009081526018602052604090205460ff16611fc85760405162461bcd60e51b815260040161086e90613a6a565b81611fd281611862565b158015611fe55750611fe3816117d9565b155b6120015760405162461bcd60e51b815260040161086e90613d21565b61200c83600361116b565b600c546113159085906001600160a01b0316856110ff565b3360009081526018602052604090205460ff166120535760405162461bcd60e51b815260040161086e90613a6a565b8161205d81612552565b6120795760405162461bcd60e51b815260040161086e90614129565b61208283611ad0565b1561209f5760405162461bcd60e51b815260040161086e90613ab8565b815160005b81811015612300578381815181106120cc57634e487b7160e01b600052603260045260246000fd5b6020908102919091018101515160008781526014835260408082208583528452902081516120ff93919290910190612e9f565b5083818151811061212057634e487b7160e01b600052603260045260246000fd5b60209081029190910181015181015160008781526014835260408082208583528452902081516121599360019092019290910190612e9f565b5083818151811061217a57634e487b7160e01b600052603260045260246000fd5b60209081029190910181015160409081015160008881526014845282812085825290935291206002015583518490829081106121c657634e487b7160e01b600052603260045260246000fd5b6020908102919091018101516060015160008781526014835260408082208583529093529190912060030155835184908290811061221457634e487b7160e01b600052603260045260246000fd5b6020908102919091018101516080015160008781526014835260408082208583529093529190912060040155835184908290811061226257634e487b7160e01b600052603260045260246000fd5b60209081029190910181015160a001516000878152601483526040808220858352909352919091206005015583518490829081106122b057634e487b7160e01b600052603260045260246000fd5b60209081029190910181015160c0015160008781526014835260408082208583529093529190912060068101919091556007810186905542600890910155806122f8816143cd565b9150506120a4565b50600093845260156020526040909320929092555050565b600c546001600160a01b031633146123425760405162461bcd60e51b815260040161086e90613a6a565b8161234c81612552565b6123685760405162461bcd60e51b815260040161086e90614129565b6000838152600e60205260408120600b018054849290612389908490614344565b9091555050505050565b6016602090815260009283526040808420909152908252902080546001820154600283015460038401546004909401549293919290919085565b6001600160a01b03918216600090815260056020908152604080832093909416825291909152205460ff1690565b600c546001600160a01b031633146124255760405162461bcd60e51b815260040161086e90613a6a565b8161242f81612552565b61244b5760405162461bcd60e51b815260040161086e90614129565b60008381526012602090815260408083206001600160a01b03861684528252808320805460ff191660011790558583526013909152812080549161248e836143cd565b9190505550505050565b6124a061256f565b6001600160a01b03166124b1611844565b6001600160a01b0316146124d75760405162461bcd60e51b815260040161086e90613eea565b6001600160a01b0381166124fd5760405162461bcd60e51b815260040161086e90613be1565b61114a8161286b565b60136020526000908152604090205481565b60186020526000908152604090205460ff1681565b60006001600160e01b0319821663780e9d6360e01b148061079b575061079b82612993565b6000908152600260205260409020546001600160a01b0316151590565b3390565b600081815260046020526040902080546001600160a01b0319166001600160a01b03841690811790915581906125a882611384565b6001600160a01b03167f8c5be1e5ebec7d5bd14f71427d1e84f3dd0314c0f7b2291e5b200ac8c7c3b92560405160405180910390a45050565b60006125ec82612552565b6126085760405162461bcd60e51b815260040161086e90613cd5565b600061261383611384565b9050806001600160a01b0316846001600160a01b0316148061264e5750836001600160a01b031661264384610847565b6001600160a01b0316145b8061265e575061265e81856123cd565b949350505050565b826001600160a01b031661267982611384565b6001600160a01b03161461269f5760405162461bcd60e51b815260040161086e90613f56565b6001600160a01b0382166126c55760405162461bcd60e51b815260040161086e90613c5e565b6126d08383836129d3565b6126db600082612573565b6001600160a01b038316600090815260036020526040812080546001929061270490849061437b565b90915550506001600160a01b0382166000908152600360205260408120805460019290612732908490614344565b909155505060008181526002602052604080822080546001600160a01b0319166001600160a01b03868116918217909255915184939187169160008051602061442b83398151915291a4505050565b600061278c82610835565b83101561279b57506001610daf565b50600092915050565b600061278c82611ad0565b5490565b80546001019055565b61136d8282604051806020016040528060008152506129de565b60006127e182611384565b90506127ef816000846129d3565b6127fa600083612573565b6001600160a01b038116600090815260036020526040812080546001929061282390849061437b565b909155505060008281526002602052604080822080546001600160a01b0319169055518391906001600160a01b0384169060008051602061442b833981519152908390a45050565b600a80546001600160a01b038381166001600160a01b0319831681179093556040519116919082907f8be0079c531659141344cd1fd0a4f28419497f9722a3daafe3b4186f6b6457e090600090a35050565b816001600160a01b0316836001600160a01b031614156128ef5760405162461bcd60e51b815260040161086e90613ca2565b6001600160a01b0383811660008181526005602090815260408083209487168084529490915290819020805460ff1916851515179055517f17307eab39ab6107e8899845ad3d59bd9653f200f220920489ca2b5937696c3190612953908590613922565b60405180910390a3505050565b61296b848484612666565b61297784848484612a11565b6113155760405162461bcd60e51b815260040161086e90613b8f565b60006001600160e01b031982166380ac58cd60e01b14806129c457506001600160e01b03198216635b5e139f60e01b145b8061079b575061079b82612b2c565b610926838383612b45565b6129e88383612bce565b6129f56000848484612a11565b6109265760405162461bcd60e51b815260040161086e90613b8f565b6000612a25846001600160a01b0316612c9b565b15612b2157836001600160a01b031663150b7a02612a4161256f565b8786866040518563ffffffff1660e01b8152600401612a6394939291906138e5565b602060405180830381600087803b158015612a7d57600080fd5b505af1925050508015612aad575060408051601f3d908101601f19168201909252612aaa9181019061343f565b60015b612b07573d808015612adb576040519150601f19603f3d011682016040523d82523d6000602084013e612ae0565b606091505b508051612aff5760405162461bcd60e51b815260040161086e90613b8f565b805181602001fd5b6001600160e01b031916630a85bd0160e11b14905061265e565b506001949350505050565b6001600160e01b031981166301ffc9a760e01b14919050565b612b50838383610926565b6001600160a01b038316612b6c57612b6781612ca1565b612b8f565b816001600160a01b0316836001600160a01b031614612b8f57612b8f8382612ce5565b6001600160a01b038216612bab57612ba681612d82565b610926565b826001600160a01b0316826001600160a01b031614610926576109268282612e5b565b6001600160a01b038216612bf45760405162461bcd60e51b815260040161086e90613e69565b612bfd81612552565b15612c1a5760405162461bcd60e51b815260040161086e90613c27565b612c26600083836129d3565b6001600160a01b0382166000908152600360205260408120805460019290612c4f908490614344565b909155505060008181526002602052604080822080546001600160a01b0319166001600160a01b038616908117909155905183929060008051602061442b833981519152908290a45050565b3b151590565b600880546000838152600960205260408120829055600182018355919091527ff3f7a9fe364faab93b216da50a3214154f22a0a2b415b23a84c8169e8b636ee30155565b60006001612cf28461157a565b612cfc919061437b565b600083815260076020526040902054909150808214612d4f576001600160a01b03841660009081526006602090815260408083208584528252808320548484528184208190558352600790915290208190555b5060009182526007602090815260408084208490556001600160a01b039094168352600681528383209183525290812055565b600854600090612d949060019061437b565b60008381526009602052604081205460088054939450909284908110612dca57634e487b7160e01b600052603260045260246000fd5b906000526020600020015490508060088381548110612df957634e487b7160e01b600052603260045260246000fd5b6000918252602080832090910192909255828152600990915260408082208490558582528120556008805480612e3f57634e487b7160e01b600052603160045260246000fd5b6001900381819060005260206000200160009055905550505050565b6000612e668361157a565b6001600160a01b039093166000908152600660209081526040808320868452825280832085905593825260079052919091209190915550565b828054612eab90614392565b90600052602060002090601f016020900481019282612ecd5760008555612f13565b82601f10612ee657805160ff1916838001178555612f13565b82800160010185558215612f13579182015b82811115612f13578251825591602001919060010190612ef8565b50612f1f929150612fb3565b5090565b604051806101a00160405280606081526020016060815260200160006001600160a01b0316815260200160608152602001600081526020016000815260200160608152602001606081526020016060815260200160006003811115612f9857634e487b7160e01b600052602160045260246000fd5b81526020016000815260200160008152602001600081525090565b5b80821115612f1f5760008155600101612fb4565b60006001600160401b03831115612fe157612fe16143fe565b612ff4601f8401601f19166020016142ec565b905082815283838301111561300857600080fd5b828260208301376000602084830101529392505050565b80356001600160a01b038116811461079e57600080fd5b600082601f830112613046578081fd5b61137d83833560208501612fc8565b600060a08284031215613066578081fd5b60405160a081018181106001600160401b0382111715613088576130886143fe565b806040525080915082358152602083013560208201526040830135604082015260608301356060820152608083013560808201525092915050565b60006101408083850312156130d6578182fd5b6130df816142ec565b91505081356001600160401b03808211156130f957600080fd5b61310585838601613036565b8352602084013591508082111561311b57600080fd5b5061312884828501613036565b60208301525060408201356040820152606082013560608201526080820135608082015260a082013560a082015260c082013560c082015260e082013560e082015261010080830135818301525061012080830135818301525092915050565b600060208284031215613199578081fd5b61137d8261301f565b600080604083850312156131b4578081fd5b6131bd8361301f565b91506131cb6020840161301f565b90509250929050565b6000806000606084860312156131e8578081fd5b6131f18461301f565b92506131ff6020850161301f565b9150604084013590509250925092565b60008060008060808587031215613224578081fd5b61322d8561301f565b935061323b6020860161301f565b92506040850135915060608501356001600160401b0381111561325c578182fd5b8501601f8101871361326c578182fd5b61327b87823560208401612fc8565b91505092959194509250565b60008060408385031215613299578182fd5b6132a28361301f565b9150602083013580151581146132b6578182fd5b809150509250929050565b60008060008060008060008060008060006101608c8e0312156132e2578889fd5b6132eb8c61301f565b9a506001600160401b038060208e0135111561330557898afd5b6133158e60208f01358f01613036565b9a508060408e0135111561332757898afd5b6133378e60408f01358f01613036565b995061334560608e0161301f565b98508060808e01351115613357578788fd5b6133678e60808f01358f01613036565b975060a08d0135965060c08d013595508060e08e01351115613387578485fd5b6133978e60e08f01358f01613036565b9450806101008e013511156133aa578384fd5b6133bb8e6101008f01358f01613036565b9350806101208e013511156133ce578283fd5b506133e08d6101208e01358e01613036565b91506101408c013590509295989b509295989b9093969950565b6000806040838503121561340c578182fd5b6134158361301f565b946020939093013593505050565b600060208284031215613434578081fd5b813561137d81614414565b600060208284031215613450578081fd5b815161137d81614414565b60006020828403121561346c578081fd5b81356001600160401b03811115613481578182fd5b61265e84828501613036565b60006020828403121561349e578081fd5b5035919050565b600080604083850312156134b7578182fd5b823591506131cb6020840161301f565b6000806000606084860312156134db578081fd5b833592506134eb6020850161301f565b915060408401356001600160401b03811115613505578182fd5b61351186828701613036565b9150509250925092565b6000806040838503121561352d578182fd5b823591506020808401356001600160401b0381111561354a578283fd5b8401601f8101861361355a578283fd5b803561356d61356882614315565b6142ec565b8181528381019083850160a0808502860187018b101561358b578788fd5b8795505b848610156135b7576135a18b83613055565b845260019590950194928601929081019061358f565b5096999098509650505050505050565b600080604083850312156135d9578182fd5b823591506020808401356001600160401b038111156135f6578283fd5b8401601f81018613613606578283fd5b803561361461356882614315565b81815283810190838501865b848110156135b7576136378b8884358901016130c3565b84529286019290860190600101613620565b6000806040838503121561365b578182fd5b823591506020830135600481106132b6578182fd5b60008060408385031215613682578182fd5b8235915060208301356001600160401b0381111561369e578182fd5b6136aa85828601613036565b9150509250929050565b60008060c083850312156136c6578182fd5b823591506131cb8460208501613055565b600080604083850312156136e9578182fd5b8235915060208301356001600160401b03811115613705578182fd5b6136aa858286016130c3565b60008060408385031215613723578182fd5b50508035926020909101359150565b600080600060e08486031215613746578081fd5b833592506020840135915061375e8560408601613055565b90509250925092565b60008060006060848603121561377b578081fd5b833592506020840135915060408401356001600160401b0381111561379e578182fd5b613511868287016130c3565b6001600160a01b03169052565b60008151808452815b818110156137dc576020818501810151868301820152016137c0565b818111156137ed5782602083870101525b50601f01601f19169290920160200192915050565b6004811061382057634e487b7160e01b600052602160045260246000fd5b9052565b80546000906002810460018083168061383e57607f831692505b602080841082141561385e57634e487b7160e01b86526022600452602486fd5b8180156138725760018114613883576138b0565b60ff198616895284890196506138b0565b61388c88614338565b60005b868110156138a85781548b82015290850190830161388f565b505084890196505b50505050505092915050565b600061265e6138cb8386613824565b84613824565b6001600160a01b0391909116815260200190565b6001600160a01b0385811682528416602082015260408101839052608060608201819052600090613918908301846137b7565b9695505050505050565b901515815260200190565b60208101610daf8284613802565b948552602085019390935260408401919091526060830152608082015260a00190565b60006020825261137d60208301846137b7565b60006101408083526139858184018e6137b7565b90508281036020840152613999818d6137b7565b604084019b909b5250506060810197909752608087019590955260a086019390935260c085019190915260e08401526101008301526101209091015292915050565b60208082526027908201527f4b6f6c6f72204c616e64204e46543a20496e76616c696420706f696e7420746f6040820152662075706461746560c81b606082015260800190565b60208082526028908201527f4b6f6c6f72204c616e64204e46543a20496e76616c69642073706563696520746040820152676f2075706461746560c01b606082015260800190565b6020808252602e908201527f4b6f6c6f72204c616e64204e46543a20596f75277265206e6f7420616c6c6f7760408201526d656420746f20646f20746861742160901b606082015260800190565b60208082526035908201527f4b6f6c6f72204c616e64204e46543a2053706563696573206f662074686973206040820152741b185b9908185b1c9958591e481899595b881cd95d605a1b606082015260800190565b6020808252601d908201527f6c616e646f776e657220696e646578206f7574206f6620626f756e6473000000604082015260600190565b6020808252602b908201527f455243373231456e756d657261626c653a206f776e657220696e646578206f7560408201526a74206f6620626f756e647360a81b606082015260800190565b60208082526032908201527f4552433732313a207472616e7366657220746f206e6f6e20455243373231526560408201527131b2b4bb32b91034b6b83632b6b2b73a32b960711b606082015260800190565b60208082526026908201527f4f776e61626c653a206e6577206f776e657220697320746865207a65726f206160408201526564647265737360d01b606082015260800190565b6020808252601c908201527f4552433732313a20746f6b656e20616c7265616479206d696e74656400000000604082015260600190565b60208082526024908201527f4552433732313a207472616e7366657220746f20746865207a65726f206164646040820152637265737360e01b606082015260800190565b60208082526019908201527822a9219b99189d1030b8383937bb32903a379031b0b63632b960391b604082015260600190565b6020808252602c908201527f4552433732313a206f70657261746f7220717565727920666f72206e6f6e657860408201526b34b9ba32b73a103a37b5b2b760a11b606082015260800190565b6020808252603d908201527f4b6f6c6f72204c616e64204e46543a202054686973206c616e642063616e277460408201527f206265207472616e73666572656420746f204d61726b6574706c616365000000606082015260800190565b60208082526038908201527f4552433732313a20617070726f76652063616c6c6572206973206e6f74206f776040820152771b995c881b9bdc88185c1c1c9bdd995908199bdc88185b1b60421b606082015260800190565b6020808252602a908201527f4552433732313a2062616c616e636520717565727920666f7220746865207a65604082015269726f206164647265737360b01b606082015260800190565b60208082526029908201527f4552433732313a206f776e657220717565727920666f72206e6f6e657869737460408201526832b73a103a37b5b2b760b91b606082015260800190565b6020808252818101527f4552433732313a206d696e7420746f20746865207a65726f2061646472657373604082015260600190565b6020808252602c908201527f4552433732313a20617070726f76656420717565727920666f72206e6f6e657860408201526b34b9ba32b73a103a37b5b2b760a11b606082015260800190565b6020808252818101527f4f776e61626c653a2063616c6c6572206973206e6f7420746865206f776e6572604082015260600190565b6020808252601d908201527f4b6f6c6f72204c616e64204e46543a20496e76616c6964205374617465000000604082015260600190565b60208082526029908201527f4552433732313a207472616e73666572206f6620746f6b656e2074686174206960408201526839903737ba1037bbb760b91b606082015260800190565b6020808252602f908201527f4552433732314d657461646174613a2055524920717565727920666f72206e6f60408201526e3732bc34b9ba32b73a103a37b5b2b760891b606082015260800190565b6020808252603f908201527f4b6f6c6f72204c616e64204e46543a2047656f7370617469616c20706f696e7460408201527f73206f662074686973206c616e6420616c7265616479206265656e2073657400606082015260800190565b60208082526021908201527f4552433732313a20617070726f76616c20746f2063757272656e74206f776e656040820152603960f91b606082015260800190565b60208082526031908201527f4552433732313a207472616e736665722063616c6c6572206973206e6f74206f6040820152701ddb995c881b9bdc88185c1c1c9bdd9959607a1b606082015260800190565b6020808252602c908201527f455243373231456e756d657261626c653a20676c6f62616c20696e646578206f60408201526b7574206f6620626f756e647360a01b606082015260800190565b6020808252602a908201527f4552433732314d657461646174613a206f7065726174696f6e206f6e206275726040820152696e656420746f6b656e2160b01b606082015260800190565b60208082526030908201527f4552433732314275726e61626c653a2063616c6c6572206973206e6f74206f7760408201526f1b995c881b9bdc88185c1c1c9bdd995960821b606082015260800190565b60006020825282516101a08060208501526141e26101c08501836137b7565b91506020850151601f198086850301604087015261420084836137b7565b93506040870151915061421660608701836137aa565b606087015191508086850301608087015261423184836137b7565b9350608087015160a087015260a087015160c087015260c08701519150808685030160e087015261426284836137b7565b935060e0870151915061010081878603018188015261428185846137b7565b9450808801519250506101208187860301818801526142a085846137b7565b945080880151925050506101406142b981870183613802565b86015161016086810191909152860151610180808701919091529095015193019290925250919050565b90815260200190565b6040518181016001600160401b038111828210171561430d5761430d6143fe565b604052919050565b60006001600160401b0382111561432e5761432e6143fe565b5060209081020190565b60009081526020902090565b60008219821115614357576143576143e8565b500190565b6000816000190483118215151615614376576143766143e8565b500290565b60008282101561438d5761438d6143e8565b500390565b6002810460018216806143a657607f821691505b602082108114156143c757634e487b7160e01b600052602260045260246000fd5b50919050565b60006000198214156143e1576143e16143e8565b5060010190565b634e487b7160e01b600052601160045260246000fd5b634e487b7160e01b600052604160045260246000fd5b6001600160e01b03198116811461114a57600080fdfeddf252ad1be2c89b69c2b068fc378daa952ba7f163c4a11628f55a4df523b3efa2646970667358221220be59e2e75533d750ff4ed1e0e01751042a12c27d7451e948c9ef9da79d029e5c64736f6c63430008000033",
  "immutableReferences": {},
  "source": "// SPDX-License-Identifier: MIT\npragma solidity >=0.8.0;\n\nimport \"@openzeppelin/contracts/token/ERC721/ERC721.sol\";\nimport \"@openzeppelin/contracts/token/ERC721/extensions/ERC721Burnable.sol\";\nimport \"@openzeppelin/contracts/token/ERC721/extensions/ERC721Enumerable.sol\";\nimport \"@openzeppelin/contracts/access/Ownable.sol\";\nimport \"@openzeppelin/contracts/utils/Counters.sol\";\nimport \"./IKolorLandNFT.sol\";\n\nstruct GeoSpatialPoint {\n    int256 latitude;\n    int256 longitude;\n    uint256 decimals;\n    uint256 creationDate;\n    uint256 updateDate;\n}\n\nstruct Species {\n    string speciesAlias;\n    string scientificName;\n    uint256 density;\n    uint256 size;\n    uint256 decimals;\n    uint256 TCO2perSecond;\n    uint256 TCO2perYear;\n    uint256 landId;\n    uint256 creationDate;\n    uint256 updateDate;\n}\n\nstruct NFTInfo {\n    string name;\n    string identifier;\n    address landOwner;\n    string landOwnerAlias;\n    uint256 decimals;\n    uint256 size;\n    string country;\n    string stateOrRegion;\n    string city;\n    State state;\n    uint256 initialTCO2perYear;\n    uint256 soldTCO2;\n    uint256 creationDate;\n}\n\ncontract KolorLandNFT is\n    ERC721,\n    ERC721Enumerable,\n    ERC721Burnable,\n    Ownable,\n    IKolorLandNFT\n{\n    using Counters for Counters.Counter;\n\n    Counters.Counter private _tokenIdCounter;\n    address public marketplace;\n\n    constructor() ERC721(\"Kolor Land NFT\", \"KLand\") {\n        isAuthorized[msg.sender] = true;\n    }\n\n    string public baseURI;\n\n    // NFT info\n    mapping(uint256 => NFTInfo) private mintedNFTSInfo;\n\n    // Owned lands to use in enumeration\n    mapping(address => mapping(uint256 => uint256)) private ownedLands;\n    mapping(uint256 => uint256) private landIndex;\n    mapping(address => uint256) private _totalLandOwned;\n\n    // mapping to get buyers of a land\n    mapping(uint256 => mapping(address => bool)) public buyers;\n    mapping(uint256 => uint256) public totalBuyers;\n\n    // mappings of conflictive data such as species and location\n    mapping(uint256 => mapping(uint256 => Species)) public species;\n    mapping(uint256 => uint256) public totalSpecies;\n\n    mapping(uint256 => mapping(uint256 => GeoSpatialPoint)) public points;\n    mapping(uint256 => uint256) public totalPoints;\n\n    mapping(address => bool) public isAuthorized;\n\n    function safeMint(\n        address to,\n        string memory name,\n        string memory identifier,\n        address landOwner,\n        string memory landOwnerAlias,\n        uint256 decimals,\n        uint256 size,\n        string memory country,\n        string memory stateOrRegion,\n        string memory city,\n        uint256 initialTCO2\n    ) public onlyAuthorized {\n        uint256 currentTokenId = _tokenIdCounter.current();\n        _tokenIdCounter.increment();\n        _safeMint(to, currentTokenId);\n\n        // Set all NFT information\n        mintedNFTSInfo[currentTokenId].name = name;\n        mintedNFTSInfo[currentTokenId].identifier = identifier;\n        mintedNFTSInfo[currentTokenId].landOwner = landOwner;\n        mintedNFTSInfo[currentTokenId].landOwnerAlias = landOwnerAlias;\n        mintedNFTSInfo[currentTokenId].decimals = decimals;\n        mintedNFTSInfo[currentTokenId].size = size;\n        mintedNFTSInfo[currentTokenId].country = country;\n        mintedNFTSInfo[currentTokenId].stateOrRegion = stateOrRegion;\n        mintedNFTSInfo[currentTokenId].city = city;\n        mintedNFTSInfo[currentTokenId].initialTCO2perYear = initialTCO2;\n        mintedNFTSInfo[currentTokenId].creationDate = block.timestamp;\n        mintedNFTSInfo[currentTokenId].state = State.Created;\n\n        uint256 _landsOwned = _totalLandOwned[landOwner];\n        // set the tokenId to current landowner collection index\n        ownedLands[to][_landsOwned] = currentTokenId;\n\n        // update the tokenId index in landowner collection\n        landIndex[currentTokenId] = _landsOwned;\n\n        // increase total lands owned by address\n        _totalLandOwned[to]++;\n    }\n\n    function authorize(address manager) public onlyOwner {\n        isAuthorized[manager] = !isAuthorized[manager];\n    }\n\n    function setMarketplace(address _marketplace) public onlyAuthorized {\n        marketplace = _marketplace;\n        isAuthorized[marketplace] = true;\n    }\n\n    modifier onlyMarketplace() {\n        require(\n            marketplace == msg.sender,\n            \"Kolor Land NFT: You're not allowed to do that!\"\n        );\n        _;\n    }\n\n    modifier onlyAuthorized() {\n        require(\n            isAuthorized[msg.sender],\n            \"Kolor Land NFT: You're not allowed to do that!\"\n        );\n        _;\n    }\n\n    modifier notBurned(uint256 tokenId) {\n        require(_exists(tokenId), \"ERC721Metadata: operation on burned token!\");\n        _;\n    }\n\n    modifier notPublishedNorRemoved(uint256 tokenId) {\n        require(\n            !isRemoved(tokenId) && !isPublished(tokenId),\n            \"Kolor Land NFT:  This land can't be transfered to Marketplace\"\n        );\n        _;\n    }\n\n    function isLandOwner(address landOwner, uint256 tokenId)\n        internal\n        view\n        returns (bool)\n    {\n        return mintedNFTSInfo[tokenId].landOwner == landOwner;\n    }\n\n    function isRemoved(uint256 tokenId) public view returns (bool) {\n        return mintedNFTSInfo[tokenId].state == State.Removed;\n    }\n\n    function isPublished(uint256 tokenId) public view returns (bool) {\n        return mintedNFTSInfo[tokenId].state == State.Published;\n    }\n\n    /**\n        @dev Override of functions defined on interface ILandNFT\n    \n     */\n    function updateLandState(uint256 tokenId, State _state)\n        public\n        override\n        notBurned(tokenId)\n        onlyAuthorized\n    {\n        require(_state != State.Created, \"Kolor Land NFT: Invalid State\");\n        mintedNFTSInfo[tokenId].state = _state;\n    }\n\n    function updateLandOwner(\n        uint256 tokenId,\n        address newLandOwner,\n        string memory name\n    ) public override onlyAuthorized notBurned(tokenId) {\n        mintedNFTSInfo[tokenId].landOwner = newLandOwner;\n        mintedNFTSInfo[tokenId].landOwnerAlias = name;\n    }\n\n    /**  \n        @dev adds a new buyer to this land \n    */\n    function addBuyer(uint256 tokenId, address newBuyer)\n        public\n        override\n        onlyMarketplace\n        notBurned(tokenId)\n    {\n        buyers[tokenId][newBuyer] = true;\n        totalBuyers[tokenId]++;\n    }\n\n    function updateName(uint256 tokenId, string memory newName)\n        public\n        override\n        onlyAuthorized\n        notBurned(tokenId)\n    {\n        mintedNFTSInfo[tokenId].name = newName;\n    }\n\n    function landOwnerOf(uint256 tokenId)\n        public\n        view\n        override\n        returns (address)\n    {\n        address landOwner = mintedNFTSInfo[tokenId].landOwner;\n\n        return landOwner;\n    }\n\n    function isBuyerOf(uint256 tokenId, address buyer)\n        public\n        view\n        override\n        returns (bool)\n    {\n        return buyers[tokenId][buyer];\n    }\n\n    function initialTCO2Of(uint256 tokenId)\n        public\n        view\n        override\n        returns (uint256)\n    {\n        return mintedNFTSInfo[tokenId].initialTCO2perYear;\n    }\n\n    function stateOf(uint256 tokenId) public view override returns (State) {\n        return mintedNFTSInfo[tokenId].state;\n    }\n\n    /**\n        @dev transfers the token to the marketplace and marks it\n        as published for buyers to invest\n\n     */\n    function safeTransferToMarketplace(address from, uint256 tokenId)\n        public\n        override\n        notBurned(tokenId)\n        onlyAuthorized\n        notPublishedNorRemoved(tokenId)\n    {\n        // Transfer to the marketplace\n        updateLandState(tokenId, State.Published);\n        safeTransferFrom(from, marketplace, tokenId);\n    }\n\n    function getNFTInfo(uint256 tokenId) public view returns (NFTInfo memory) {\n        return mintedNFTSInfo[tokenId];\n    }\n\n    function landOfOwnerByIndex(address landOwner, uint256 index)\n        public\n        view\n        returns (uint256)\n    {\n        require(\n            index < balanceOf(landOwner) + 1,\n            \"landowner index out of bounds\"\n        );\n\n        return ownedLands[landOwner][index];\n    }\n\n    function totalLandOwnedOf(address landOwner) public view returns (uint256) {\n        return _totalLandOwned[landOwner];\n    }\n\n    function totalSpeciesOf(uint256 tokenId) public view returns (uint256) {\n        return totalSpecies[tokenId];\n    }\n\n    function totalPointsOf(uint256 tokenId) public view returns (uint256) {\n        return totalPoints[tokenId];\n    }\n\n    /** @dev set all species of a certain land */\n    function setSpecies(uint256 tokenId, Species[] memory _species)\n        public\n        onlyAuthorized\n        notBurned(tokenId)\n    {\n        require(\n            totalSpeciesOf(tokenId) == 0,\n            \"Kolor Land NFT: Species of this land already been set\"\n        );\n        uint256 _totalSpecies = _species.length;\n        for (uint256 i = 0; i < _totalSpecies; i++) {\n            species[tokenId][i].speciesAlias = _species[i].speciesAlias;\n            species[tokenId][i].scientificName = _species[i].scientificName;\n            species[tokenId][i].density = _species[i].density;\n            species[tokenId][i].size = _species[i].size;\n            species[tokenId][i].decimals = _species[i].decimals;\n            species[tokenId][i].TCO2perSecond = _species[i].TCO2perSecond;\n            species[tokenId][i].TCO2perYear = _species[i].TCO2perYear;\n            species[tokenId][i].landId = tokenId;\n            species[tokenId][i].creationDate = block.timestamp;\n        }\n\n        totalSpecies[tokenId] = _totalSpecies;\n    }\n\n    function addSpecies(uint256 tokenId, Species memory _species)\n        public\n        onlyAuthorized\n        notBurned(tokenId)\n    {\n        uint256 _totalSpecies = totalSpeciesOf(tokenId);\n        species[tokenId][_totalSpecies].speciesAlias = _species.speciesAlias;\n        species[tokenId][_totalSpecies].scientificName = _species\n            .scientificName;\n        species[tokenId][_totalSpecies].density = _species.density;\n        species[tokenId][_totalSpecies].size = _species.size;\n        species[tokenId][_totalSpecies].decimals = _species.decimals;\n        species[tokenId][_totalSpecies].TCO2perYear = _species.TCO2perYear;\n        species[tokenId][_totalSpecies].landId = tokenId;\n        species[tokenId][_totalSpecies].creationDate = block.timestamp;\n        species[tokenId][_totalSpecies].TCO2perSecond = _species.TCO2perSecond;\n\n        totalSpecies[tokenId]++;\n    }\n\n    function updateSpecies(\n        uint256 tokenId,\n        uint256 speciesIndex,\n        Species memory _species\n    ) public onlyAuthorized notBurned(tokenId) {\n        require(\n            validSpecie(speciesIndex, tokenId),\n            \"Kolor Land NFT: Invalid specie to update\"\n        );\n\n        species[tokenId][speciesIndex].speciesAlias = _species.speciesAlias;\n        species[tokenId][speciesIndex].scientificName = _species.scientificName;\n        species[tokenId][speciesIndex].density = _species.density;\n        species[tokenId][speciesIndex].size = _species.size;\n        species[tokenId][speciesIndex].TCO2perYear = _species.TCO2perYear;\n        species[tokenId][speciesIndex].landId = tokenId;\n        species[tokenId][speciesIndex].updateDate = block.timestamp;\n        species[tokenId][speciesIndex].TCO2perSecond = _species.TCO2perSecond;\n    }\n\n    function setPoints(uint256 tokenId, GeoSpatialPoint[] memory _points)\n        public\n        onlyAuthorized\n        notBurned(tokenId)\n    {\n        require(\n            totalPointsOf(tokenId) == 0,\n            \"Kolor Land NFT: Geospatial points of this land already been set\"\n        );\n        uint256 _totalPoints = _points.length;\n\n        for (uint256 i = 0; i < _totalPoints; i++) {\n            points[tokenId][i].latitude = _points[i].latitude;\n            points[tokenId][i].longitude = _points[i].longitude;\n            points[tokenId][i].decimals = _points[i].decimals;\n            points[tokenId][i].creationDate = block.timestamp;\n\n            totalPoints[tokenId]++;\n        }\n    }\n\n    function addPoint(uint256 tokenId, GeoSpatialPoint memory point)\n        public\n        onlyAuthorized\n        notBurned(tokenId)\n    {\n        uint256 _totalPoints = totalPoints[tokenId];\n\n        points[tokenId][_totalPoints].latitude = point.latitude;\n        points[tokenId][_totalPoints].longitude = point.longitude;\n        points[tokenId][_totalPoints].decimals = point.decimals;\n\n        totalPoints[tokenId]++;\n    }\n\n    function updatePoint(\n        uint256 tokenId,\n        uint256 pointIndex,\n        GeoSpatialPoint memory point\n    ) public onlyAuthorized notBurned(tokenId) {\n        require(\n            validPoint(pointIndex, tokenId),\n            \"Kolor Land NFT: Invalid point to update\"\n        );\n\n        points[tokenId][pointIndex].latitude = point.latitude;\n        points[tokenId][pointIndex].longitude = point.longitude;\n        points[tokenId][pointIndex].decimals = point.decimals;\n    }\n\n    function validSpecie(uint256 specieIndex, uint256 tokenId)\n        internal\n        view\n        returns (bool)\n    {\n        if (specieIndex >= 0 && specieIndex < totalSpeciesOf(tokenId)) {\n            return true;\n        }\n\n        return false;\n    }\n\n    function validPoint(uint256 pointIndex, uint256 tokenId)\n        internal\n        view\n        returns (bool)\n    {\n        if (pointIndex >= 0 && pointIndex < totalPointsOf(tokenId)) {\n            return true;\n        }\n\n        return false;\n    }\n\n    function offsetEmissions(uint256 tokenId, uint256 amount)\n        public\n        onlyMarketplace\n        notBurned(tokenId)\n    {\n        mintedNFTSInfo[tokenId].soldTCO2 += amount;\n    }\n\n    function totalVCUBySpecies(uint256 tokenId, uint256 index)\n        public\n        view\n        returns (uint256)\n    {\n        // Get the seconds elapsed until now\n        uint256 speciesCreationDate = species[tokenId][index].creationDate;\n\n        uint256 secondsElapsed = timestampDifference(\n            speciesCreationDate,\n            block.timestamp\n        );\n\n        // now we get the total vcus emitted until now\n        return secondsElapsed * species[tokenId][index].TCO2perSecond;\n    }\n\n    function totalVCUSEmitedBy(uint256 tokenId) public view returns (uint256) {\n        // Get total species of a land\n        uint256 _totalSpecies = totalSpeciesOf(tokenId);\n\n        uint256 totalVCUSEmitted = 0;\n        // Iterate over all species and calculate its total vcu\n        for (uint256 i = 0; i < _totalSpecies; i++) {\n            uint256 currentVCUSEmitted = totalVCUBySpecies(tokenId, i);\n            totalVCUSEmitted += currentVCUSEmitted;\n        }\n\n        return totalVCUSEmitted;\n    }\n\n    /**\n        @dev returns vcus emitted from this land that are available\n        for sale\n    \n     */\n    function getVCUSLeft(uint256 tokenId)\n        public\n        view\n        override\n        returns (uint256)\n    {\n        // Get the ideal vcutokens from creation date until now\n        uint256 totalVCUSEmited = totalVCUSEmitedBy(tokenId);\n\n        // get the difference between the ideal minus the sold TCO2\n        return totalVCUSEmited - mintedNFTSInfo[tokenId].soldTCO2;\n    }\n\n    function timestampDifference(uint256 timestamp1, uint256 timestamp2)\n        public\n        pure\n        returns (uint256)\n    {\n        return timestamp2 - timestamp1;\n    }\n\n    function setBaseURI(string memory _baseURI) public onlyOwner {\n        baseURI = _baseURI;\n    }\n\n    function tokenURI(uint256 tokenId)\n        public\n        view\n        override\n        returns (string memory)\n    {\n        require(\n            _exists(tokenId),\n            \"ERC721Metadata: URI query for nonexistent token\"\n        );\n\n        return\n            string(\n                abi.encodePacked(baseURI, mintedNFTSInfo[tokenId].identifier)\n            );\n    }\n\n    // The following functions are overrides required by Solidity.\n    function _beforeTokenTransfer(\n        address from,\n        address to,\n        uint256 tokenId\n    ) internal override(ERC721, ERC721Enumerable) {\n        super._beforeTokenTransfer(from, to, tokenId);\n    }\n\n    function supportsInterface(bytes4 interfaceId)\n        public\n        view\n        override(ERC721, ERC721Enumerable)\n        returns (bool)\n    {\n        return super.supportsInterface(interfaceId);\n    }\n}\n",
  "sourcePath": "/home/basti/Desktop/activate/vcu3/contracts/KolorLandNFT.sol",
  "compiler": {
    "name": "solc",
    "version": "0.8.0+commit.c7dfd78e.Emscripten.clang"
  },
  "schemaVersion": "3.4.1",
  "updatedAt": "2022-06-24T16:52:41.383Z",
  "networkType": "ethereum",
  "devdoc": {
    "kind": "dev",
    "methods": {
      "addBuyer(uint256,address)": {
        "details": "adds a new buyer to this land "
      },
      "approve(address,uint256)": {
        "details": "See {IERC721-approve}."
      },
      "balanceOf(address)": {
        "details": "See {IERC721-balanceOf}."
      },
      "burn(uint256)": {
        "details": "Burns `tokenId`. See {ERC721-_burn}. Requirements: - The caller must own `tokenId` or be an approved operator."
      },
      "getApproved(uint256)": {
        "details": "See {IERC721-getApproved}."
      },
      "getVCUSLeft(uint256)": {
        "details": "returns vcus emitted from this land that are available for sale"
      },
      "isApprovedForAll(address,address)": {
        "details": "See {IERC721-isApprovedForAll}."
      },
      "name()": {
        "details": "See {IERC721Metadata-name}."
      },
      "owner()": {
        "details": "Returns the address of the current owner."
      },
      "ownerOf(uint256)": {
        "details": "See {IERC721-ownerOf}."
      },
      "renounceOwnership()": {
        "details": "Leaves the contract without owner. It will not be possible to call `onlyOwner` functions anymore. Can only be called by the current owner. NOTE: Renouncing ownership will leave the contract without an owner, thereby removing any functionality that is only available to the owner."
      },
      "safeTransferFrom(address,address,uint256)": {
        "details": "See {IERC721-safeTransferFrom}."
      },
      "safeTransferFrom(address,address,uint256,bytes)": {
        "details": "See {IERC721-safeTransferFrom}."
      },
      "safeTransferToMarketplace(address,uint256)": {
        "details": "transfers the token to the marketplace and marks it as published for buyers to invest"
      },
      "setApprovalForAll(address,bool)": {
        "details": "See {IERC721-setApprovalForAll}."
      },
      "setSpecies(uint256,(string,string,uint256,uint256,uint256,uint256,uint256,uint256,uint256,uint256)[])": {
        "details": "set all species of a certain land "
      },
      "symbol()": {
        "details": "See {IERC721Metadata-symbol}."
      },
      "tokenByIndex(uint256)": {
        "details": "See {IERC721Enumerable-tokenByIndex}."
      },
      "tokenOfOwnerByIndex(address,uint256)": {
        "details": "See {IERC721Enumerable-tokenOfOwnerByIndex}."
      },
      "tokenURI(uint256)": {
        "details": "See {IERC721Metadata-tokenURI}."
      },
      "totalSupply()": {
        "details": "See {IERC721Enumerable-totalSupply}."
      },
      "transferFrom(address,address,uint256)": {
        "details": "See {IERC721-transferFrom}."
      },
      "transferOwnership(address)": {
        "details": "Transfers ownership of the contract to a new account (`newOwner`). Can only be called by the current owner."
      },
      "updateLandState(uint256,uint8)": {
        "details": "Override of functions defined on interface ILandNFT"
      }
    },
    "version": 1
  },
  "userdoc": {
    "kind": "user",
    "methods": {},
    "version": 1
  }
}