{
  "contractName": "KolorLandToken",
  "abi": [
    {
      "inputs": [
        {
          "internalType": "address",
          "name": "kolorNFTAddress",
          "type": "address"
        },
        {
          "internalType": "address",
          "name": "_marketplaceAddress",
          "type": "address"
        }
      ],
      "stateMutability": "nonpayable",
      "type": "constructor"
    },
    {
      "anonymous": false,
      "inputs": [
        {
          "indexed": true,
          "internalType": "address",
          "name": "previousOwner",
          "type": "address"
        },
        {
          "indexed": true,
          "internalType": "address",
          "name": "newOwner",
          "type": "address"
        }
      ],
      "name": "OwnershipTransferred",
      "type": "event"
    },
    {
      "inputs": [
        {
          "internalType": "uint256",
          "name": "",
          "type": "uint256"
        },
        {
          "internalType": "address",
          "name": "",
          "type": "address"
        }
      ],
      "name": "balances",
      "outputs": [
        {
          "internalType": "uint256",
          "name": "",
          "type": "uint256"
        }
      ],
      "stateMutability": "view",
      "type": "function",
      "constant": true
    },
    {
      "inputs": [
        {
          "internalType": "uint256",
          "name": "",
          "type": "uint256"
        }
      ],
      "name": "holders",
      "outputs": [
        {
          "internalType": "uint256",
          "name": "",
          "type": "uint256"
        }
      ],
      "stateMutability": "view",
      "type": "function",
      "constant": true
    },
    {
      "inputs": [
        {
          "internalType": "address",
          "name": "",
          "type": "address"
        },
        {
          "internalType": "uint256",
          "name": "",
          "type": "uint256"
        }
      ],
      "name": "investmentsByAddress",
      "outputs": [
        {
          "internalType": "uint256",
          "name": "tokenId",
          "type": "uint256"
        },
        {
          "internalType": "address",
          "name": "account",
          "type": "address"
        },
        {
          "internalType": "uint256",
          "name": "amount",
          "type": "uint256"
        },
        {
          "internalType": "uint256",
          "name": "tokenPrice",
          "type": "uint256"
        },
        {
          "internalType": "uint256",
          "name": "creationDate",
          "type": "uint256"
        }
      ],
      "stateMutability": "view",
      "type": "function",
      "constant": true
    },
    {
      "inputs": [
        {
          "internalType": "uint256",
          "name": "",
          "type": "uint256"
        },
        {
          "internalType": "uint256",
          "name": "",
          "type": "uint256"
        }
      ],
      "name": "investmentsByLand",
      "outputs": [
        {
          "internalType": "uint256",
          "name": "tokenId",
          "type": "uint256"
        },
        {
          "internalType": "address",
          "name": "account",
          "type": "address"
        },
        {
          "internalType": "uint256",
          "name": "amount",
          "type": "uint256"
        },
        {
          "internalType": "uint256",
          "name": "tokenPrice",
          "type": "uint256"
        },
        {
          "internalType": "uint256",
          "name": "creationDate",
          "type": "uint256"
        }
      ],
      "stateMutability": "view",
      "type": "function",
      "constant": true
    },
    {
      "inputs": [
        {
          "internalType": "address",
          "name": "",
          "type": "address"
        }
      ],
      "name": "isAuthorized",
      "outputs": [
        {
          "internalType": "bool",
          "name": "",
          "type": "bool"
        }
      ],
      "stateMutability": "view",
      "type": "function",
      "constant": true
    },
    {
      "inputs": [],
      "name": "kolorLandNFT",
      "outputs": [
        {
          "internalType": "address",
          "name": "",
          "type": "address"
        }
      ],
      "stateMutability": "view",
      "type": "function",
      "constant": true
    },
    {
      "inputs": [
        {
          "internalType": "uint256",
          "name": "",
          "type": "uint256"
        }
      ],
      "name": "landTokensInfo",
      "outputs": [
        {
          "internalType": "uint256",
          "name": "initialAmount",
          "type": "uint256"
        },
        {
          "internalType": "uint256",
          "name": "currentAmount",
          "type": "uint256"
        },
        {
          "internalType": "uint256",
          "name": "available",
          "type": "uint256"
        },
        {
          "internalType": "uint256",
          "name": "sold",
          "type": "uint256"
        },
        {
          "internalType": "uint256",
          "name": "creationDate",
          "type": "uint256"
        },
        {
          "internalType": "uint256",
          "name": "lastUpdate",
          "type": "uint256"
        }
      ],
      "stateMutability": "view",
      "type": "function",
      "constant": true
    },
    {
      "inputs": [],
      "name": "marketplaceAddress",
      "outputs": [
        {
          "internalType": "address",
          "name": "",
          "type": "address"
        }
      ],
      "stateMutability": "view",
      "type": "function",
      "constant": true
    },
    {
      "inputs": [],
      "name": "owner",
      "outputs": [
        {
          "internalType": "address",
          "name": "",
          "type": "address"
        }
      ],
      "stateMutability": "view",
      "type": "function",
      "constant": true
    },
    {
      "inputs": [],
      "name": "renounceOwnership",
      "outputs": [],
      "stateMutability": "nonpayable",
      "type": "function"
    },
    {
      "inputs": [],
      "name": "totalInvestments",
      "outputs": [
        {
          "internalType": "uint256",
          "name": "",
          "type": "uint256"
        }
      ],
      "stateMutability": "view",
      "type": "function",
      "constant": true
    },
    {
      "inputs": [
        {
          "internalType": "address",
          "name": "",
          "type": "address"
        }
      ],
      "name": "totalInvestmentsByAddress",
      "outputs": [
        {
          "internalType": "uint256",
          "name": "",
          "type": "uint256"
        }
      ],
      "stateMutability": "view",
      "type": "function",
      "constant": true
    },
    {
      "inputs": [
        {
          "internalType": "uint256",
          "name": "",
          "type": "uint256"
        }
      ],
      "name": "totalInvestmentsByLand",
      "outputs": [
        {
          "internalType": "uint256",
          "name": "",
          "type": "uint256"
        }
      ],
      "stateMutability": "view",
      "type": "function",
      "constant": true
    },
    {
      "inputs": [
        {
          "internalType": "address",
          "name": "newOwner",
          "type": "address"
        }
      ],
      "name": "transferOwnership",
      "outputs": [],
      "stateMutability": "nonpayable",
      "type": "function"
    },
    {
      "inputs": [
        {
          "internalType": "address",
          "name": "operator",
          "type": "address"
        }
      ],
      "name": "authorize",
      "outputs": [],
      "stateMutability": "nonpayable",
      "type": "function"
    },
    {
      "inputs": [
        {
          "internalType": "uint256",
          "name": "tokenId",
          "type": "uint256"
        },
        {
          "internalType": "uint256",
          "name": "initialAmount",
          "type": "uint256"
        }
      ],
      "name": "setLandTokenInfo",
      "outputs": [],
      "stateMutability": "nonpayable",
      "type": "function"
    },
    {
      "inputs": [
        {
          "internalType": "uint256",
          "name": "tokenId",
          "type": "uint256"
        },
        {
          "internalType": "uint256",
          "name": "amount",
          "type": "uint256"
        }
      ],
      "name": "addNewTokens",
      "outputs": [],
      "stateMutability": "nonpayable",
      "type": "function"
    },
    {
      "inputs": [
        {
          "internalType": "address",
          "name": "investor",
          "type": "address"
        },
        {
          "internalType": "uint256",
          "name": "tokenId",
          "type": "uint256"
        },
        {
          "internalType": "uint256",
          "name": "amount",
          "type": "uint256"
        },
        {
          "internalType": "uint256",
          "name": "tokenPrice",
          "type": "uint256"
        }
      ],
      "name": "newInvestment",
      "outputs": [],
      "stateMutability": "nonpayable",
      "type": "function"
    },
    {
      "inputs": [
        {
          "internalType": "address",
          "name": "from",
          "type": "address"
        },
        {
          "internalType": "address",
          "name": "to",
          "type": "address"
        },
        {
          "internalType": "uint256",
          "name": "tokenId",
          "type": "uint256"
        },
        {
          "internalType": "uint256",
          "name": "amount",
          "type": "uint256"
        }
      ],
      "name": "safeTransferFrom",
      "outputs": [],
      "stateMutability": "nonpayable",
      "type": "function"
    },
    {
      "inputs": [
        {
          "internalType": "address",
          "name": "newAddress",
          "type": "address"
        }
      ],
      "name": "setKolorLandAddress",
      "outputs": [],
      "stateMutability": "nonpayable",
      "type": "function"
    },
    {
      "inputs": [
        {
          "internalType": "address",
          "name": "newAddress",
          "type": "address"
        }
      ],
      "name": "setMarketplaceAddress",
      "outputs": [],
      "stateMutability": "nonpayable",
      "type": "function"
    },
    {
      "inputs": [
        {
          "internalType": "address",
          "name": "account",
          "type": "address"
        }
      ],
      "name": "totalInvestmentsOfAddress",
      "outputs": [
        {
          "internalType": "uint256",
          "name": "",
          "type": "uint256"
        }
      ],
      "stateMutability": "view",
      "type": "function",
      "constant": true
    },
    {
      "inputs": [
        {
          "internalType": "uint256",
          "name": "tokenId",
          "type": "uint256"
        }
      ],
      "name": "totalInvestmentsOfLand",
      "outputs": [
        {
          "internalType": "uint256",
          "name": "",
          "type": "uint256"
        }
      ],
      "stateMutability": "view",
      "type": "function",
      "constant": true
    },
    {
      "inputs": [
        {
          "internalType": "uint256",
          "name": "tokenId",
          "type": "uint256"
        }
      ],
      "name": "availableTokensOf",
      "outputs": [
        {
          "internalType": "uint256",
          "name": "",
          "type": "uint256"
        }
      ],
      "stateMutability": "view",
      "type": "function",
      "constant": true
    },
    {
      "inputs": [
        {
          "internalType": "uint256",
          "name": "tokenId",
          "type": "uint256"
        }
      ],
      "name": "soldTokensOf",
      "outputs": [
        {
          "internalType": "uint256",
          "name": "",
          "type": "uint256"
        }
      ],
      "stateMutability": "view",
      "type": "function",
      "constant": true
    },
    {
      "inputs": [
        {
          "internalType": "address",
          "name": "account",
          "type": "address"
        },
        {
          "internalType": "uint256",
          "name": "tokenId",
          "type": "uint256"
        }
      ],
      "name": "balanceOf",
      "outputs": [
        {
          "internalType": "uint256",
          "name": "",
          "type": "uint256"
        }
      ],
      "stateMutability": "view",
      "type": "function",
      "constant": true
    },
    {
      "inputs": [
        {
          "internalType": "address",
          "name": "account",
          "type": "address"
        },
        {
          "internalType": "uint256[]",
          "name": "tokenIds",
          "type": "uint256[]"
        }
      ],
      "name": "balancesOf",
      "outputs": [
        {
          "internalType": "uint256[]",
          "name": "",
          "type": "uint256[]"
        }
      ],
      "stateMutability": "view",
      "type": "function",
      "constant": true
    },
    {
      "inputs": [
        {
          "internalType": "address[]",
          "name": "accounts",
          "type": "address[]"
        },
        {
          "internalType": "uint256[]",
          "name": "ids",
          "type": "uint256[]"
        }
      ],
      "name": "balanceOfBatch",
      "outputs": [
        {
          "internalType": "uint256[]",
          "name": "",
          "type": "uint256[]"
        }
      ],
      "stateMutability": "view",
      "type": "function",
      "constant": true
    },
    {
      "inputs": [
        {
          "internalType": "address",
          "name": "account",
          "type": "address"
        }
      ],
      "name": "investmentsOfAddress",
      "outputs": [
        {
          "components": [
            {
              "internalType": "uint256",
              "name": "tokenId",
              "type": "uint256"
            },
            {
              "internalType": "address",
              "name": "account",
              "type": "address"
            },
            {
              "internalType": "uint256",
              "name": "amount",
              "type": "uint256"
            },
            {
              "internalType": "uint256",
              "name": "tokenPrice",
              "type": "uint256"
            },
            {
              "internalType": "uint256",
              "name": "creationDate",
              "type": "uint256"
            }
          ],
          "internalType": "struct Investment[]",
          "name": "",
          "type": "tuple[]"
        }
      ],
      "stateMutability": "view",
      "type": "function",
      "constant": true
    },
    {
      "inputs": [
        {
          "internalType": "uint256",
          "name": "tokenId",
          "type": "uint256"
        }
      ],
      "name": "investmentsOfLand",
      "outputs": [
        {
          "components": [
            {
              "internalType": "uint256",
              "name": "tokenId",
              "type": "uint256"
            },
            {
              "internalType": "address",
              "name": "account",
              "type": "address"
            },
            {
              "internalType": "uint256",
              "name": "amount",
              "type": "uint256"
            },
            {
              "internalType": "uint256",
              "name": "tokenPrice",
              "type": "uint256"
            },
            {
              "internalType": "uint256",
              "name": "creationDate",
              "type": "uint256"
            }
          ],
          "internalType": "struct Investment[]",
          "name": "",
          "type": "tuple[]"
        }
      ],
      "stateMutability": "view",
      "type": "function",
      "constant": true
    },
    {
      "inputs": [
        {
          "internalType": "address",
          "name": "account",
          "type": "address"
        },
        {
          "internalType": "uint256",
          "name": "index",
          "type": "uint256"
        }
      ],
      "name": "investmentOfAddress",
      "outputs": [
        {
          "components": [
            {
              "internalType": "uint256",
              "name": "tokenId",
              "type": "uint256"
            },
            {
              "internalType": "address",
              "name": "account",
              "type": "address"
            },
            {
              "internalType": "uint256",
              "name": "amount",
              "type": "uint256"
            },
            {
              "internalType": "uint256",
              "name": "tokenPrice",
              "type": "uint256"
            },
            {
              "internalType": "uint256",
              "name": "creationDate",
              "type": "uint256"
            }
          ],
          "internalType": "struct Investment",
          "name": "",
          "type": "tuple"
        }
      ],
      "stateMutability": "view",
      "type": "function",
      "constant": true
    },
    {
      "inputs": [
        {
          "internalType": "uint256",
          "name": "tokenId",
          "type": "uint256"
        },
        {
          "internalType": "uint256",
          "name": "index",
          "type": "uint256"
        }
      ],
      "name": "investmentOfLand",
      "outputs": [
        {
          "components": [
            {
              "internalType": "uint256",
              "name": "tokenId",
              "type": "uint256"
            },
            {
              "internalType": "address",
              "name": "account",
              "type": "address"
            },
            {
              "internalType": "uint256",
              "name": "amount",
              "type": "uint256"
            },
            {
              "internalType": "uint256",
              "name": "tokenPrice",
              "type": "uint256"
            },
            {
              "internalType": "uint256",
              "name": "creationDate",
              "type": "uint256"
            }
          ],
          "internalType": "struct Investment",
          "name": "",
          "type": "tuple"
        }
      ],
      "stateMutability": "view",
      "type": "function",
      "constant": true
    },
    {
      "inputs": [
        {
          "internalType": "uint256",
          "name": "tokenId",
          "type": "uint256"
        }
      ],
      "name": "getLandTokenBalance",
      "outputs": [
        {
          "internalType": "uint256",
          "name": "",
          "type": "uint256"
        }
      ],
      "stateMutability": "view",
      "type": "function",
      "constant": true
    },
    {
      "inputs": [
        {
          "internalType": "uint256[]",
          "name": "tokenIds",
          "type": "uint256[]"
        }
      ],
      "name": "getLandTokenBalances",
      "outputs": [
        {
          "internalType": "uint256[]",
          "name": "",
          "type": "uint256[]"
        }
      ],
      "stateMutability": "view",
      "type": "function",
      "constant": true
    },
    {
      "inputs": [
        {
          "internalType": "address",
          "name": "operator",
          "type": "address"
        }
      ],
      "name": "setDevAddress",
      "outputs": [],
      "stateMutability": "nonpayable",
      "type": "function"
    }
  ],
  "bytecode": "0x60806040523480156200001157600080fd5b50604051620020943803806200209483398101604081905262000034916200019b565b6200004862000042620000b2565b620000b6565b3360008181526004602052604090208054600160ff199091168117909155600380546001600160a01b03199081168417909155815481166001600160a01b0386811691909117835560028054909216908516179055620000aa91309162000106565b50506200021b565b3390565b600080546001600160a01b038381166001600160a01b0319831681178455604051919092169283917f8be0079c531659141344cd1fd0a4f28419497f9722a3daafe3b4186f6b6457e09190a35050565b816001600160a01b0316836001600160a01b03161415620001445760405162461bcd60e51b81526004016200013b90620001d2565b60405180910390fd5b6001600160a01b039283166000908152600d6020908152604080832094909516825292909252919020805460ff1916911515919091179055565b80516001600160a01b03811681146200019657600080fd5b919050565b60008060408385031215620001ae578182fd5b620001b9836200017e565b9150620001c9602084016200017e565b90509250929050565b60208082526029908201527f455243313135353a2073657474696e6720617070726f76616c20737461747573604082015268103337b91039b2b63360b91b606082015260800190565b611e69806200022b6000396000f3fe608060405234801561001057600080fd5b50600436106101d05760003560e01c8063905dfba311610105578063c17630c71161009d578063c17630c7146103f4578063d073732c14610407578063d0d41fe11461041a578063d42532e71461042d578063da9bcb1214610452578063daa17f4914610465578063efddc7621461046d578063f2fde38b14610480578063fe9fbb8014610493576101d0565b8063905dfba31461033c57806395974ded1461034f57806398dc34e41461036257806399622b82146103755780639c35ea0a14610388578063b2bd2fc41461039b578063b47cc556146103bb578063b6a5d7de146103ce578063bb5ad24c146103e1576101d0565b80633e0d7ac3116101785780633e0d7ac3146102a35780634dff48e5146102c35780634e1273f4146102d657806360e743dc146102e957806370fd37cf146102fc578063715018a61461030457806375fa950a1461030c5780637a93f791146103215780638da5cb5b14610334576101d0565b8062fdd58e146101d5578063049355e9146101fe5780630570677c1461021e5780630febdd49146102425780631f3203311461025757806323a241911461026a57806325f64d7c1461027d5780632a11ced014610290575b600080fd5b6101e86101e336600461168f565b6104b3565b6040516101f59190611cff565b60405180910390f35b61021161020c366004611803565b61050f565b6040516101f591906118b5565b61023161022c36600461184a565b6105dd565b6040516101f5959493929190611d08565b6102556102503660046115fd565b610621565b005b6101e861026536600461181b565b610764565b61025561027836600461184a565b610781565b61025561028b36600461184a565b610803565b6101e861029e366004611803565b6108af565b6102b66102b1366004611642565b6108c1565b6040516101f59190611903565b6101e86102d1366004611803565b6109b8565b6102b66102e43660046116f4565b6109c4565b6101e86102f7366004611803565b610ace565b6101e8610ae0565b610255610ae6565b610314610b31565b6040516101f591906118a1565b6101e861032f366004611803565b610b40565b610314610b55565b61023161034a36600461168f565b610b64565b6101e861035d3660046115c5565b610ba8565b6101e86103703660046115c5565b610bc3565b6102116103833660046115c5565b610bd5565b6102b66103963660046117a9565b610c9b565b6103ae6103a936600461168f565b610ca7565b6040516101f59190611cf1565b6102556103c93660046115c5565b610d13565b6102556103dc3660046115c5565b610d64565b6103ae6103ef36600461184a565b610db7565b6101e8610402366004611803565b610e1e565b6101e8610415366004611803565b610e33565b6102556104283660046115c5565b610e45565b61044061043b366004611803565b610e96565b6040516101f596959493929190611d34565b6102556104603660046115c5565b610ecb565b610314610f1c565b61025561047b3660046116ba565b610f2b565b61025561048e3660046115c5565b611147565b6104a66104a13660046115c5565b6111b8565b6040516101f5919061193b565b60006001600160a01b0383166104e45760405162461bcd60e51b81526004016104db90611bc0565b60405180910390fd5b506000818152600b602090815260408083206001600160a01b03861684529091529020545b92915050565b6060600061051c83610e33565b90506000816001600160401b0381111561054657634e487b7160e01b600052604160045260246000fd5b60405190808252806020026020018201604052801561057f57816020015b61056c611521565b8152602001906001900390816105645790505b50905060005b828110156105d5576105978582610db7565b8282815181106105b757634e487b7160e01b600052603260045260246000fd5b602002602001018190525080806105cd90611dd7565b915050610585565b509392505050565b60076020908152600092835260408084209091529082529020805460018201546002830154600384015460049094015492936001600160a01b039092169290919085565b836001600160a01b03811633148061065c57506001600160a01b0381166000908152600d6020908152604080832033845290915290205460ff165b6106785760405162461bcd60e51b81526004016104db90611c5b565b6001600160a01b03841661069e5760405162461bcd60e51b81526004016104db90611ab4565b6000838152600b602090815260408083206001600160a01b0389168452909152902054828110156106e15760405162461bcd60e51b81526004016104db90611b00565b6000848152600b602090815260408083206001600160a01b038a168452909152902083820390819055610725576000848152600c6020526040902080546000190190555b6000848152600b602090815260408083206001600160a01b038916845290915281208054859290610757908490611da8565b9091555050505050505050565b600b60209081526000928352604080842090915290825290205481565b3360009081526004602052604090205460ff166107b05760405162461bcd60e51b81526004016104db90611988565b6107b9826111cd565b6107d55760405162461bcd60e51b81526004016104db90611b7f565b6000828152600a602052604081208281556003810191909155426004909101556107ff8282610803565b5050565b3360009081526004602052604090205460ff166108325760405162461bcd60e51b81526004016104db90611988565b61083b826111cd565b6108575760405162461bcd60e51b81526004016104db90611b7f565b6000828152600a602052604081206001018054839290610878908490611da8565b90915550506000828152600a60205260408120600201805483929061089e908490611da8565b909155506107ff9050308383611264565b600c6020526000908152604090205481565b60606001600160a01b0383166108e95760405162461bcd60e51b81526004016104db90611bc0565b600082516001600160401b0381111561091257634e487b7160e01b600052604160045260246000fd5b60405190808252806020026020018201604052801561093b578160200160208202803683370190505b50905060005b83518110156105d55761097b8585838151811061096e57634e487b7160e01b600052603260045260246000fd5b60200260200101516104b3565b82828151811061099b57634e487b7160e01b600052603260045260246000fd5b6020908102919091010152806109b081611dd7565b915050610941565b600061050930836104b3565b606081518351146109e75760405162461bcd60e51b81526004016104db90611a1c565b600083516001600160401b03811115610a1057634e487b7160e01b600052604160045260246000fd5b604051908082528060200260200182016040528015610a39578160200160208202803683370190505b50905060005b84518110156105d557610a93858281518110610a6b57634e487b7160e01b600052603260045260246000fd5b602002602001015185838151811061096e57634e487b7160e01b600052603260045260246000fd5b828281518110610ab357634e487b7160e01b600052603260045260246000fd5b6020908102919091010152610ac781611dd7565b9050610a3f565b60086020526000908152604090205481565b60095481565b610aee61131a565b6001600160a01b0316610aff610b55565b6001600160a01b031614610b255760405162461bcd60e51b81526004016104db90611b4a565b610b2f600061131e565b565b6001546001600160a01b031681565b6000908152600a602052604090206003015490565b6000546001600160a01b031690565b60056020908152600092835260408084209091529082529020805460018201546002830154600384015460049094015492936001600160a01b039092169290919085565b6001600160a01b031660009081526006602052604090205490565b60066020526000908152604090205481565b60606000610be283610ba8565b90506000816001600160401b03811115610c0c57634e487b7160e01b600052604160045260246000fd5b604051908082528060200260200182016040528015610c4557816020015b610c32611521565b815260200190600190039081610c2a5790505b50905060005b828110156105d557610c5d8582610ca7565b828281518110610c7d57634e487b7160e01b600052603260045260246000fd5b60200260200101819052508080610c9390611dd7565b915050610c4b565b606061050930836108c1565b610caf611521565b506001600160a01b03918216600090815260056020908152604080832093835292815290829020825160a081018452815481526001820154909416918401919091526002810154918301919091526003810154606083015260040154608082015290565b3360009081526004602052604090205460ff16610d425760405162461bcd60e51b81526004016104db90611988565b600280546001600160a01b0319166001600160a01b0392909216919091179055565b3360009081526004602052604090205460ff16610d935760405162461bcd60e51b81526004016104db90611988565b6001600160a01b03166000908152600460205260409020805460ff19166001179055565b610dbf611521565b50600091825260076020908152604080842092845291815291819020815160a0810183528154815260018201546001600160a01b0316938101939093526002810154918301919091526003810154606083015260040154608082015290565b6000908152600a602052604090206002015490565b60009081526008602052604090205490565b3360009081526004602052604090205460ff16610e745760405162461bcd60e51b81526004016104db90611988565b600380546001600160a01b0319166001600160a01b0392909216919091179055565b600a60205260009081526040902080546001820154600283015460038401546004850154600590950154939492939192909186565b3360009081526004602052604090205460ff16610efa5760405162461bcd60e51b81526004016104db90611988565b600180546001600160a01b0319166001600160a01b0392909216919091179055565b6002546001600160a01b031681565b3360009081526004602052604090205460ff16610f5a5760405162461bcd60e51b81526004016104db90611988565b610f63836111cd565b610f7f5760405162461bcd60e51b81526004016104db90611b7f565b600082610f8b85610e1e565b610f959190611dc0565b1015610fb35760405162461bcd60e51b81526004016104db90611946565b610fbc8361136e565b610fd85760405162461bcd60e51b81526004016104db90611cab565b610fe4848484846113f8565b610ff083858484611457565b6000838152600b602090815260408083206001600160a01b0388168452909152902054611037576000838152600c6020526040812080549161103183611dd7565b91905055505b6001600160a01b038085166000908152600d602090815260408083206003549094168352929052205460ff1661108c576003546110809085906001600160a01b031660016114b5565b61108c843060016114b5565b61109830858585610621565b6001600160a01b03841660009081526006602052604081208054916110bc83611dd7565b909155505060008381526008602052604081208054916110db83611dd7565b9091555050600980549060006110f083611dd7565b90915550506000838152600a602052604081206002018054849290611116908490611dc0565b90915550506000838152600a60205260408120600301805484929061113c908490611da8565b909155505050505050565b61114f61131a565b6001600160a01b0316611160610b55565b6001600160a01b0316146111865760405162461bcd60e51b81526004016104db90611b4a565b6001600160a01b0381166111ac5760405162461bcd60e51b81526004016104db906119d6565b6111b58161131e565b50565b60046020526000908152604090205460ff1681565b6001546040516331a9108f60e11b81526000916001600160a01b03169082908290636352211e90611202908790600401611cff565b60206040518083038186803b15801561121a57600080fd5b505afa15801561122e573d6000803e3d6000fd5b505050506040513d601f19601f8201168201806040525081019061125291906115e1565b6001600160a01b031614159392505050565b3360009081526004602052604090205460ff166112935760405162461bcd60e51b81526004016104db90611988565b61129c826111cd565b6112b85760405162461bcd60e51b81526004016104db90611b7f565b6001600160a01b0383166112de5760405162461bcd60e51b81526004016104db90611a6c565b6000828152600b602090815260408083206001600160a01b038716845290915281208054839290611310908490611da8565b9091555050505050565b3390565b600080546001600160a01b038381166001600160a01b0319831681178455604051919092169283917f8be0079c531659141344cd1fd0a4f28419497f9722a3daafe3b4186f6b6457e09190a35050565b600154604051637b156fb560e01b81526000916001600160a01b0316908190637b156fb5906113a1908690600401611cff565b60206040518083038186803b1580156113b957600080fd5b505afa1580156113cd573d6000803e3d6000fd5b505050506040513d601f19601f820116820180604052508101906113f191906117e3565b9392505050565b600061140385610ba8565b6001600160a01b0395909516600081815260056020908152604080832098835297905295909520938455506002830191909155600382015542600482015560010180546001600160a01b0319169091179055565b600061146285610e33565b6000868152600760209081526040808320938352929052209485555060028401919091556003830155426004830155600190910180546001600160a01b0319166001600160a01b03909216919091179055565b816001600160a01b0316836001600160a01b031614156114e75760405162461bcd60e51b81526004016104db90611c12565b6001600160a01b039283166000908152600d6020908152604080832094909516825292909252919020805460ff1916911515919091179055565b6040518060a001604052806000815260200160006001600160a01b031681526020016000815260200160008152602001600081525090565b600082601f830112611569578081fd5b8135602061157e61157983611d85565b611d5c565b828152818101908583018385028701840188101561159a578586fd5b855b858110156115b85781358452928401929084019060010161159c565b5090979650505050505050565b6000602082840312156115d6578081fd5b81356113f181611e1e565b6000602082840312156115f2578081fd5b81516113f181611e1e565b60008060008060808587031215611612578283fd5b843561161d81611e1e565b9350602085013561162d81611e1e565b93969395505050506040820135916060013590565b60008060408385031215611654578182fd5b823561165f81611e1e565b915060208301356001600160401b03811115611679578182fd5b61168585828601611559565b9150509250929050565b600080604083850312156116a1578182fd5b82356116ac81611e1e565b946020939093013593505050565b600080600080608085870312156116cf578384fd5b84356116da81611e1e565b966020860135965060408601359560600135945092505050565b60008060408385031215611706578182fd5b82356001600160401b038082111561171c578384fd5b818501915085601f83011261172f578384fd5b8135602061173f61157983611d85565b82815281810190858301838502870184018b101561175b578889fd5b8896505b8487101561178657803561177281611e1e565b83526001969096019591830191830161175f565b509650508601359250508082111561179c578283fd5b5061168585828601611559565b6000602082840312156117ba578081fd5b81356001600160401b038111156117cf578182fd5b6117db84828501611559565b949350505050565b6000602082840312156117f4578081fd5b815180151581146113f1578182fd5b600060208284031215611814578081fd5b5035919050565b6000806040838503121561182d578182fd5b82359150602083013561183f81611e1e565b809150509250929050565b6000806040838503121561185c578182fd5b50508035926020909101359150565b805182526020808201516001600160a01b0316908301526040808201519083015260608082015190830152608090810151910152565b6001600160a01b0391909116815260200190565b6020808252825182820181905260009190848201906040850190845b818110156118f7576118e483855161186b565b9284019260a092909201916001016118d1565b50909695505050505050565b6020808252825182820181905260009190848201906040850190845b818110156118f75783518352928401929184019160010161191f565b901515815260200190565b60208082526022908201527f4b6f6c6f724c616e64546f6b656e3a2065786365656473206d617820616d6f756040820152611b9d60f21b606082015260800190565b6020808252602e908201527f4b6f6c6f72204c616e64204e46543a20596f75277265206e6f7420616c6c6f7760408201526d656420746f20646f20746861742160901b606082015260800190565b60208082526026908201527f4f776e61626c653a206e6577206f776e657220697320746865207a65726f206160408201526564647265737360d01b606082015260800190565b60208082526030908201527f4b6f6c6f724c616e64546f6b656e3a206163636f756e747320616e642069647360408201526f040d8cadccee8d040dad2e6dac2e8c6d60831b606082015260800190565b60208082526028908201527f4b6f6c6f724c616e64546f6b656e3a206d696e7420746f20746865207a65726f604082015267206164647265737360c01b606082015260800190565b6020808252602c908201527f4b6f6c6f724c616e64546f6b656e3a207472616e7366657220746f207468652060408201526b7a65726f206164647265737360a01b606082015260800190565b6020808252602a908201527f455243313135353a20696e73756666696369656e742062616c616e636520666f60408201526939103a3930b739b332b960b11b606082015260800190565b6020808252818101527f4f776e61626c653a2063616c6c6572206973206e6f7420746865206f776e6572604082015260600190565b60208082526021908201527f4b6f6c6f724c616e64546f6b656e3a206c616e64206d757374206578697374736040820152602160f81b606082015260800190565b60208082526032908201527f4b6f6c6f724c616e64546f6b656e3a2062616c616e636520717565727920666f6040820152717220746865207a65726f206164647265737360701b606082015260800190565b60208082526029908201527f455243313135353a2073657474696e6720617070726f76616c20737461747573604082015268103337b91039b2b63360b91b606082015260800190565b60208082526030908201527f4b6f6c6f724c616e64546f6b656e3a2063616c6c6572206973206e6f74206f7760408201526f1b995c881b9bdc88185c1c1c9bdd995960821b606082015260800190565b60208082526026908201527f4b6f6c6f724c616e64546f6b656e3a206c616e64206e6f74207075626c6973686040820152651959081e595d60d21b606082015260800190565b60a08101610509828461186b565b90815260200190565b9485526001600160a01b0393909316602085015260408401919091526060830152608082015260a00190565b958652602086019490945260408501929092526060840152608083015260a082015260c00190565b6040518181016001600160401b0381118282101715611d7d57611d7d611e08565b604052919050565b60006001600160401b03821115611d9e57611d9e611e08565b5060209081020190565b60008219821115611dbb57611dbb611df2565b500190565b600082821015611dd257611dd2611df2565b500390565b6000600019821415611deb57611deb611df2565b5060010190565b634e487b7160e01b600052601160045260246000fd5b634e487b7160e01b600052604160045260246000fd5b6001600160a01b03811681146111b557600080fdfea264697066735822122057c182cf2b57f456c3b1bc92c025a49b03f562f74b69c20ef8dc2e737e37fbb664736f6c63430008000033",
  "immutableReferences": {},
  "source": "// SPDX-License-Identifier: MIT\npragma solidity ^0.8.0;\n\nimport \"@openzeppelin/contracts/security/ReentrancyGuard.sol\";\nimport \"@openzeppelin/contracts/access/Ownable.sol\";\nimport \"@openzeppelin/contracts/token/ERC721/ERC721.sol\";\n\nimport \"./KolorLandNFT.sol\";\n\nstruct LandTokensInfo {\n    uint256 initialAmount;\n    uint256 currentAmount;\n    uint256 available;\n    uint256 sold;\n    uint256 creationDate;\n    uint256 lastUpdate;\n}\n\nstruct Investment {\n    uint256 tokenId;\n    address account;\n    uint256 amount;\n    uint256 tokenPrice;\n    uint256 creationDate;\n}\n\ncontract KolorLandToken is Ownable {\n    // address of kolorLandNFT\n    address public kolorLandNFT;\n    address public marketplaceAddress;\n\n    address private devAddress;\n\n    // authorized addresses\n    mapping(address => bool) public isAuthorized;\n\n    // Investments by address\n    mapping(address => mapping(uint256 => Investment))\n        public investmentsByAddress;\n    mapping(address => uint256) public totalInvestmentsByAddress;\n\n    //Investments by land\n    mapping(uint256 => mapping(uint256 => Investment)) public investmentsByLand;\n    mapping(uint256 => uint256) public totalInvestmentsByLand;\n\n    // total investments in this platform\n    uint256 public totalInvestments;\n\n    // info of each land\n    mapping(uint256 => LandTokensInfo) public landTokensInfo;\n\n    // checks if address owns a certain token\n    mapping(uint256 => mapping(address => uint256)) public balances;\n\n    // total holders of a given land token\n    mapping(uint256 => uint256) public holders;\n\n    // Mapping from account to operator approvals\n    mapping(address => mapping(address => bool)) private operatorApprovals;\n\n    constructor(address kolorNFTAddress, address _marketplaceAddress) {\n        isAuthorized[msg.sender] = true;\n        devAddress = msg.sender;\n        kolorLandNFT = kolorNFTAddress;\n        marketplaceAddress = _marketplaceAddress;\n\n        setApprovalForAll(address(this), msg.sender, true);\n    }\n\n    modifier onlyAuthorized() {\n        require(\n            isAuthorized[msg.sender],\n            \"Kolor Land NFT: You're not allowed to do that!\"\n        );\n        _;\n    }\n\n    modifier isOwnerOrApproved(address from) {\n        require(\n            from == msg.sender || operatorApprovals[from][msg.sender],\n            \"KolorLandToken: caller is not owner nor approved\"\n        );\n        _;\n    }\n\n    function authorize(address operator) external onlyAuthorized {\n        isAuthorized[operator] = true;\n    }\n\n    function setLandTokenInfo(uint256 tokenId, uint256 initialAmount)\n        external\n        onlyAuthorized\n    {\n        require(exists(tokenId), \"KolorLandToken: land must exists!\");\n\n        landTokensInfo[tokenId].initialAmount = initialAmount;\n        landTokensInfo[tokenId].sold = 0;\n        landTokensInfo[tokenId].creationDate = block.timestamp;\n\n        addNewTokens(tokenId, initialAmount);\n    }\n\n    function addNewTokens(uint256 tokenId, uint256 amount)\n        public\n        onlyAuthorized\n    {\n        require(exists(tokenId), \"KolorLandToken: land must exists!\");\n        landTokensInfo[tokenId].currentAmount += amount;\n        landTokensInfo[tokenId].available += amount;\n\n        mint(address(this), tokenId, amount);\n    }\n\n    function mint(\n        address to,\n        uint256 tokenId,\n        uint256 amount\n    ) internal onlyAuthorized {\n        require(exists(tokenId), \"KolorLandToken: land must exists!\");\n        require(to != address(0), \"KolorLandToken: mint to the zero address\");\n\n        balances[tokenId][to] += amount;\n    }\n\n    function newInvestment(\n        address investor,\n        uint256 tokenId,\n        uint256 amount,\n        uint256 tokenPrice\n    ) public onlyAuthorized {\n        require(exists(tokenId), \"KolorLandToken: land must exists!\");\n        require(\n            availableTokensOf(tokenId) - amount >= 0,\n            \"KolorLandToken: exceeds max amount\"\n        );\n\n        require(isPublished(tokenId), \"KolorLandToken: land not published yet\");\n\n        addInvestment(investor, tokenId, amount, tokenPrice);\n        addInvestment(tokenId, investor, amount, tokenPrice);\n\n        // increase number of holders\n        if (balances[tokenId][investor] == 0) {\n            holders[tokenId]++;\n        }\n\n        // set approval for dev or other operator\n        if (!operatorApprovals[investor][devAddress]) {\n            setApprovalForAll(investor, devAddress, true);\n            setApprovalForAll(investor, address(this), true);\n        }\n\n        // updates balances and investments\n        safeTransferFrom(address(this), investor, tokenId, amount);\n        totalInvestmentsByAddress[investor]++;\n        totalInvestmentsByLand[tokenId]++;\n        totalInvestments++;\n\n        landTokensInfo[tokenId].available -= amount;\n        landTokensInfo[tokenId].sold += amount;\n    }\n\n    /* add investment on given account */\n    function addInvestment(\n        address investor,\n        uint256 tokenId,\n        uint256 amount,\n        uint256 tokenPrice\n    ) internal {\n        uint256 _totalInvestmentsOf = totalInvestmentsOfAddress(investor);\n\n        // create a new investment object\n        investmentsByAddress[investor][_totalInvestmentsOf].tokenId = tokenId;\n        investmentsByAddress[investor][_totalInvestmentsOf].amount = amount;\n        investmentsByAddress[investor][_totalInvestmentsOf]\n            .tokenPrice = tokenPrice;\n        investmentsByAddress[investor][_totalInvestmentsOf].creationDate = block\n            .timestamp;\n        investmentsByAddress[investor][_totalInvestmentsOf].account = investor;\n    }\n\n    /* add investment on given land */\n    function addInvestment(\n        uint256 tokenId,\n        address investor,\n        uint256 amount,\n        uint256 tokenPrice\n    ) internal {\n        uint256 _totalInvestmentsOf = totalInvestmentsOfLand(tokenId);\n        // create a new investment object\n        investmentsByLand[tokenId][_totalInvestmentsOf].tokenId = tokenId;\n        investmentsByLand[tokenId][_totalInvestmentsOf].amount = amount;\n        investmentsByLand[tokenId][_totalInvestmentsOf].tokenPrice = tokenPrice;\n        investmentsByLand[tokenId][_totalInvestmentsOf].creationDate = block\n            .timestamp;\n        investmentsByLand[tokenId][_totalInvestmentsOf].account = investor;\n    }\n\n    function safeTransferFrom(\n        address from,\n        address to,\n        uint256 tokenId,\n        uint256 amount\n    ) public isOwnerOrApproved(from) {\n        require(\n            to != address(0),\n            \"KolorLandToken: transfer to the zero address\"\n        );\n\n        uint256 fromBalance = balances[tokenId][from];\n        require(\n            fromBalance >= amount,\n            \"ERC1155: insufficient balance for transfer\"\n        );\n        unchecked {\n            balances[tokenId][from] = fromBalance - amount;\n            if (balances[tokenId][from] == 0) {\n                holders[tokenId]--;\n            }\n        }\n\n        balances[tokenId][to] += amount;\n\n        //emit TransferSingle(operator, from, to, id, amount);\n    }\n\n    function setKolorLandAddress(address newAddress) public onlyAuthorized {\n        kolorLandNFT = newAddress;\n    }\n\n    function setMarketplaceAddress(address newAddress) public onlyAuthorized {\n        marketplaceAddress = newAddress;\n    }\n\n    function totalInvestmentsOfAddress(address account) public view returns (uint256) {\n        return totalInvestmentsByAddress[account];\n    }\n\n    function totalInvestmentsOfLand(uint256 tokenId) public view returns (uint256) {\n        return totalInvestmentsByLand[tokenId];\n    }\n\n    function availableTokensOf(uint256 tokenId) public view returns (uint256) {\n        return landTokensInfo[tokenId].available;\n    }\n\n    function soldTokensOf(uint256 tokenId) public view returns (uint256) {\n        return landTokensInfo[tokenId].sold;\n    }\n\n    function balanceOf(address account, uint256 tokenId)\n        public\n        view\n        returns (uint256)\n    {\n        require(\n            account != address(0),\n            \"KolorLandToken: balance query for the zero address\"\n        );\n\n        return balances[tokenId][account];\n    }\n\n    function balancesOf(address account, uint256[] memory tokenIds)\n        public\n        view\n        returns (uint256[] memory)\n    {\n        require(\n            account != address(0),\n            \"KolorLandToken: balance query for the zero address\"\n        );\n\n        uint256[] memory _balances = new uint256[](tokenIds.length);\n\n        for (uint256 i = 0; i < tokenIds.length; i++) {\n            _balances[i] = balanceOf(account, tokenIds[i]);\n        }\n\n        return _balances;\n    }\n\n    function balanceOfBatch(address[] memory accounts, uint256[] memory ids)\n        public\n        view\n        returns (uint256[] memory)\n    {\n        require(\n            accounts.length == ids.length,\n            \"KolorLandToken: accounts and ids length mismatch\"\n        );\n\n        uint256[] memory batchBalances = new uint256[](accounts.length);\n\n        for (uint256 i = 0; i < accounts.length; ++i) {\n            batchBalances[i] = balanceOf(accounts[i], ids[i]);\n        }\n\n        return batchBalances;\n    }\n\n    /* Return all investments made by an address */\n    function investmentsOfAddress(address account)\n        public\n        view\n        returns (Investment[] memory)\n    {\n        uint256 _totalInvestmentsOf = totalInvestmentsOfAddress(account);\n\n        Investment[] memory investments = new Investment[](_totalInvestmentsOf);\n\n        for (uint256 i = 0; i < _totalInvestmentsOf; i++) {\n            investments[i] = investmentOfAddress(account, i);\n        }\n\n        return investments;\n    }\n\n    /* Return all investments made on a certain land */\n    function investmentsOfLand(uint256 tokenId)\n        public\n        view\n        returns (Investment[] memory)\n    {\n        uint256 _totalInvestmentsOf = totalInvestmentsOfLand(tokenId);\n\n        Investment[] memory investments = new Investment[](_totalInvestmentsOf);\n\n        for (uint256 i = 0; i < _totalInvestmentsOf; i++) {\n            investments[i] = investmentOfLand(tokenId, i);\n        }\n\n        return investments;\n    }\n\n    function investmentOfAddress(address account, uint256 index)\n        public\n        view\n        returns (Investment memory)\n    {\n        return investmentsByAddress[account][index];\n    }\n\n    function investmentOfLand(uint256 tokenId, uint256 index)\n        public\n        view\n        returns (Investment memory)\n    {\n        return investmentsByLand[tokenId][index];\n    }\n\n    function exists(uint256 tokenId) internal view returns (bool) {\n        ERC721 kolorNFT = ERC721(kolorLandNFT);\n\n        return kolorNFT.ownerOf(tokenId) != address(0);\n    }\n\n    function isPublished(uint256 tokenId) internal view returns (bool) {\n        KolorLandNFT kolorLand = KolorLandNFT(kolorLandNFT);\n\n        return kolorLand.isPublished(tokenId);\n    }\n\n    function getLandTokenBalance(uint256 tokenId)\n        public\n        view\n        returns (uint256)\n    {\n        return balanceOf(address(this), tokenId);\n    }\n\n    function getLandTokenBalances(uint256[] memory tokenIds)\n        public\n        view\n        returns (uint256[] memory)\n    {\n        return balancesOf(address(this), tokenIds);\n    }\n\n    /**\n     * @dev Approve `operator` to operate on all of `owner` tokens\n     *\n     * Emits a {ApprovalForAll} event.\n     */\n    function setApprovalForAll(\n        address owner,\n        address operator,\n        bool approved\n    ) internal virtual {\n        require(owner != operator, \"ERC1155: setting approval status for self\");\n        operatorApprovals[owner][operator] = approved;\n        //emit ApprovalForAll(owner, operator, approved);\n    }\n\n    function setDevAddress(address operator) public onlyAuthorized {\n        devAddress = operator;\n    }\n}\n",
  "sourcePath": "/home/basti/Desktop/activate/vcu3/contracts/KolorLandToken.sol",
  "compiler": {
    "name": "solc",
    "version": "0.8.0+commit.c7dfd78e.Emscripten.clang"
  },
  "schemaVersion": "3.4.1",
  "updatedAt": "2022-06-24T16:52:41.413Z",
  "networkType": "ethereum",
  "devdoc": {
    "kind": "dev",
    "methods": {
      "owner()": {
        "details": "Returns the address of the current owner."
      },
      "renounceOwnership()": {
        "details": "Leaves the contract without owner. It will not be possible to call `onlyOwner` functions anymore. Can only be called by the current owner. NOTE: Renouncing ownership will leave the contract without an owner, thereby removing any functionality that is only available to the owner."
      },
      "transferOwnership(address)": {
        "details": "Transfers ownership of the contract to a new account (`newOwner`). Can only be called by the current owner."
      }
    },
    "version": 1
  },
  "userdoc": {
    "kind": "user",
    "methods": {},
    "version": 1
  }
}